:020000040000fa
:080000000002040000000000f2
:020000040000fa
:04000800fe020000f4
:020000040000fa
:04000c00fe020000f0
:020000040000fa
:04001000fe020000ec
:020000040000fa
:04001400fe020000e8
:020000040000fa
:04001800fe020000e4
:020000040000fa
:04001c00fe020000e0
:020000040000fa
:04002000fe020000dc
:020000040000fa
:04002400fe020000d8
:020000040000fa
:04002800fe020000d4
:020000040000fa
:04002c00fe020000d0
:020000040000fa
:04003000c802000002
:020000040000fa
:04003400fe020000c8
:020000040000fa
:04003800fe020000c4
:020000040000fa
:04003c00fe020000c0
:020000040000fa
:04004000da020000e0
:020000040000fa
:04004400fe020000b8
:020000040000fa
:04004800fe020000b4
:020000040000fa
:04004c00fe020000b0
:020000040000fa
:04005000fe020000ac
:020000040000fa
:04005400fe020000a8
:020000040000fa
:04005800fe020000a4
:020000040000fa
:04005c00fe020000a0
:020000040000fa
:04006000fe0200009c
:020000040000fa
:04006400fe02000098
:020000040000fa
:04006800fe02000094
:020000040000fa
:04006c00fe02000090
:020000040000fa
:04007000fe0200008c
:020000040000fa
:04007400fe02000088
:020000040000fa
:04007800fe02000084
:020000040000fa
:04007c00fe02000080
:020000040000fa
:04008000fe0200007c
:020000040000fa
:04008400fe02000078
:020000040000fa
:04008800fe02000074
:020000040000fa
:04008c00ec02000082
:020000040000fa
:04009000fe0200006c
:020000040000fa
:04009400fe02000068
:020000040000fa
:04009800fe02000064
:020000040000fa
:04009c00fe02000060
:020000040000fa
:0400a000fe0200005c
:020000040000fa
:0400a400fe02000058
:020000040000fa
:0400a800fe02000054
:020000040000fa
:0400ac00fe02000050
:020000040000fa
:0400b000fe0200004c
:020000040000fa
:0400b400fe02000048
:020000040000fa
:0400b800fe02000044
:020000040000fa
:0400bc00fe02000040
:020000040000fa
:0400c000fe0200003c
:020000040000fa
:0400c400fe02000038
:020000040000fa
:0400c800fe02000034
:020000040000fa
:0400cc00fe02000030
:020000040000fa
:0400d000fe0200002c
:020000040000fa
:0400d400fe02000028
:020000040000fa
:0400d800fe02000024
:020000040000fa
:0400dc00fe02000020
:020000040000fa
:0400e000fe0200001c
:020000040000fa
:0400e400fe02000018
:020000040000fa
:0400e800fe02000014
:020000040000fa
:0400ec00fe02000010
:020000040000fa
:0400f000fe0200000c
:020000040000fa
:0400f400fe02000008
:020000040000fa
:0400f800fe02000004
:020000040000fa
:0400fc00fe02000000
:020000040000fa
:04010000fe020000fb
:020000040000fa
:04010400fe020000f7
:020000040000fa
:04010800fe020000f3
:020000040000fa
:04010c00fe020000ef
:020000040000fa
:04011000fe020000eb
:020000040000fa
:04011400fe020000e7
:020000040000fa
:04011800fe020000e3
:020000040000fa
:04011c00fe020000df
:020000040000fa
:04012000fe020000db
:020000040000fa
:04012400fe020000d7
:020000040000fa
:04012800fe020000d3
:020000040000fa
:04012c00fe020000cf
:020000040000fa
:04013000fe020000cb
:020000040000fa
:04013400fe020000c7
:020000040000fa
:04013800fe020000c3
:020000040000fa
:04013c00fe020000bf
:020000040000fa
:04014000fe020000bb
:020000040000fa
:04014400fe020000b7
:020000040000fa
:04014800fe020000b3
:020000040000fa
:04014c00fe020000af
:020000040000fa
:04015000fe020000ab
:020000040000fa
:04015400fe020000a7
:020000040000fa
:04015800fe020000a3
:020000040000fa
:04015c00fe0200009f
:020000040000fa
:04016000fe0200009b
:020000040000fa
:04016400fe02000097
:020000040000fa
:04016800fe02000093
:020000040000fa
:04020800fe020000f2
:020000040000fa
:04020c00fe020000ee
:020000040000fa
:04021000fe020000ea
:020000040000fa
:04021400fe020000e6
:020000040000fa
:04021800fe020000e2
:020000040000fa
:04021c00fe020000de
:020000040000fa
:04022000fe020000da
:020000040000fa
:04022400fe020000d6
:020000040000fa
:04022800fe020000d2
:020000040000fa
:04022c00fe020000ce
:020000040000fa
:04023000c802000000
:020000040000fa
:04023400fe020000c6
:020000040000fa
:04023800fe020000c2
:020000040000fa
:04023c00fe020000be
:020000040000fa
:04024000da020000de
:020000040000fa
:04024400fe020000b6
:020000040000fa
:04024800fe020000b2
:020000040000fa
:04024c00fe020000ae
:020000040000fa
:04025000fe020000aa
:020000040000fa
:04025400fe020000a6
:020000040000fa
:04025800fe020000a2
:020000040000fa
:04025c00fe0200009e
:020000040000fa
:04026000fe0200009a
:020000040000fa
:04026400fe02000096
:020000040000fa
:04026800fe02000092
:020000040000fa
:04026c00fe0200008e
:020000040000fa
:04027000fe0200008a
:020000040000fa
:04027400fe02000086
:020000040000fa
:04027800fe02000082
:020000040000fa
:04027c00fe0200007e
:020000040000fa
:04028000fe0200007a
:020000040000fa
:04028400fe02000076
:020000040000fa
:04028800fe02000072
:020000040000fa
:04028c00ec02000080
:020000040000fa
:04029000fe0200006a
:020000040000fa
:04029400fe02000066
:020000040000fa
:04029800fe02000062
:020000040000fa
:04029c00fe0200005e
:020000040000fa
:0402a000fe0200005a
:020000040000fa
:0402a400fe02000056
:020000040000fa
:0402a800fe02000052
:020000040000fa
:0402ac00fe0200004e
:020000040000fa
:0402b000fe0200004a
:020000040000fa
:0402b400fe02000046
:020000040000fa
:0402b800fe02000042
:020000040000fa
:0402bc00fe0200003e
:020000040000fa
:0402c000fe0200003a
:020000040000fa
:0402c400fe02000036
:020000040000fa
:0402c800fe02000032
:020000040000fa
:0402cc00fe0200002e
:020000040000fa
:0402d000fe0200002a
:020000040000fa
:0402d400fe02000026
:020000040000fa
:0402d800fe02000022
:020000040000fa
:0402dc00fe0200001e
:020000040000fa
:0402e000fe0200001a
:020000040000fa
:0402e400fe02000016
:020000040000fa
:0402e800fe02000012
:020000040000fa
:0402ec00fe0200000e
:020000040000fa
:0402f000fe0200000a
:020000040000fa
:0402f400fe02000006
:020000040000fa
:0402f800fe02000002
:020000040000fa
:0402fc00fe020000fe
:020000040000fa
:04030000fe020000f9
:020000040000fa
:04030400fe020000f5
:020000040000fa
:04030800fe020000f1
:020000040000fa
:04030c00fe020000ed
:020000040000fa
:04031000fe020000e9
:020000040000fa
:04031400fe020000e5
:020000040000fa
:04031800fe020000e1
:020000040000fa
:04031c00fe020000dd
:020000040000fa
:04032000fe020000d9
:020000040000fa
:04032400fe020000d5
:020000040000fa
:04032800fe020000d1
:020000040000fa
:04032c00fe020000cd
:020000040000fa
:04033000fe020000c9
:020000040000fa
:04033400fe020000c5
:020000040000fa
:04033800fe020000c1
:020000040000fa
:04033c00fe020000bd
:020000040000fa
:04034000fe020000b9
:020000040000fa
:04034400fe020000b5
:020000040000fa
:04034800fe020000b1
:020000040000fa
:04034c00fe020000ad
:020000040000fa
:04035000fe020000a9
:020000040000fa
:04035400fe020000a5
:020000040000fa
:04035800fe020000a1
:020000040000fa
:04035c00fe0200009d
:020000040000fa
:04036000fe02000099
:020000040000fa
:04036400fe02000095
:020000040000fa
:04036800fe02000091
:020000040000fa
:100400008f8120000eff20000e01880000000000f8
:10041000000020000000e000020032000001200087
:100420002002880014000700760007000000e000aa
:1004300003003a00c0cb200001002000020037007a
:100440000000200001002000810f70000100320038
:1004500014000700000020000000e000020032004d
:100460000000020000000000f4080200000000008c
:100470000040da000000fe004440a9000000200017
:100480000000e0000300320000002000a00188000e
:100490004440a800000006008a1f78008b1f7800e7
:1004a0000000060091018800800478000000eb0045
:1004b0001a003700e284440032a0b4009905ba0063
:1004c000e284440032a0b4009906ba00e2844400f9
:1004d00032a0b4000006eb00476fde00fd07b2005b
:1004e000636ce10003003a00ebff07000000eb0043
:1004f0000a003700606ce10004003a00005deb0088
:100500008b05e900fdff3e00040037006168e10053
:10051000010032000086eb000b00070019c7ba008b
:100520001905ba000e04e00003003a000a00e000da
:10053000e0ff3a0000000600fe07b2009e018800be
:100540008a047800f5ff3700395dba008b05e900b1
:100550000c003200295dba008b05e900080032006a
:100560000c00e00003003a00e284440032a0b40032
:10057000f5ff370019ddba008b05e900faff3a00f4
:100580008904e800e184440032a0b40000000600c1
:10059000801f78000000fa008440a900004080001d
:1005a0000000e800004088000080fa004f0078005a
:1005b00000400600801f78000000fa0084c0a900f7
:1005c000104080000000e800104088000080fa0021
:1005d0004f00780000400600801f78000000fa00fd
:1005e0008720a900204080000000e800204088000b
:1005f0000080fa004f007800004006000040da005a
:100600000000fe00000005000001be0022000700ff
:100610000470a70003f0a1006509b10016003200c4
:100620000d0035006828e10006003500f0ff2f00be
:10063000f1ff27000300e00013003b000100280049
:100640000000050000004000818048008502e900ac
:10065000fcff3a0008003700f88f420002003c001f
:100660008000eb00000005008100d1000080d30075
:100670008502e800fcff3a000300e00002003b00b6
:1006800060001000e0801800000006004f89de00c6
:100690008201780017013700c70ade00f107b200b7
:1006a000f50fb20008003200e1cf42000200320034
:1006b0000170a00024000500810f700001003200cd
:1006c0000408050044000500810f700002003a0094
:1006d000140005008502e9000000400081c04800c8
:1006e000fcff3b000170a0002400050003836800ac
:1006f0000700280007036300470ade000480a1000a
:10070000c71ade000580a100f70f20000720e100d6
:10071000420032000728e10040003200889fbe00fe
:100720008a9fbe008c1f7800f107b200f307b20069
:100730000400e000640032000170a0000500e00049
:10074000680032000370a00085054200eb07b1008d
:100750000204b8000302b8008484440060854a00a3
:10076000020ab800848444000a854a00030ab800db
:1007700004054500040033000804d0008984d20039
:100780000a85d2008b05e9006158e1003d00350083
:100790000210200009016100030820008981610026
:1007a000f70720008783640008867300c84cde00ca
:1007b000c853dd00878474004855de000300e00064
:1007c0000600320082037600040032008904e8004b
:1007d00060054d000a88a3000c003a00f70f2000c6
:1007e0000758e10044003d000a70a100c75ddd002c
:1007f0000a8575008a007300090078004f067800aa
:100800004f05be004f04be00000006000a05d100df
:100810008984d3008b05e800f0ff3700881f78003b
:100820000604780090000700070278000001fd0030
:100830008101fd008c0007008702780085037200ab
:100840000778a300050032000001fd008101fd00d2
:100850009f0007004f047800000006008503720027
:100860000748a30003003200f0ff2f00f1ff27002c
:10087000f8ff37000000200001f827008880700092
:10088000f4ff3700880178004848dd00808171005e
:100890004848de00c850dd0001007000c850de008e
:1008a000060478000b0178001600070088807000ad
:1008b000d2ff37000500e0000500320017002000dd
:1008c0003a0007009dff370081037000f9ff3a00ee
:1008d000860078004f0678004f05be004f04be002a
:1008e0000000050083037100f9ff3200270020009b
:1008f0002e00070094ff370001f827008680700063
:10090000f4ff37000100e000260032006101110011
:100910007810e10023003c006022b8007010e10074
:100920000400350080027800010078008000eb00b0
:10093000700151000200e000090034007003110052
:10094000062add00822ade008603dd00878272002f
:100950000200de00860bdd00070070008208de006a
:1009600084817100f4ff2700048262008481710099
:1009700004002800848262006102600005f0a60085
:100980000000060004827100070032000000e80049
:10099000e0804800000006000002be006000b800d1
:1009a000efff37006000b80000000600889fbe001f
:1009b0000004eb006138e10016003a000100e0009d
:1009c00008003a00c800de004800dd008800200072
:1009d0000100e00003003a00c800de004800dd002e
:1009e000680444008184cf00e98454000600340088
:1009f0008908dd00f08314008703de008780700023
:100a00000900dd0009044400610214004f04be0027
:100a1000000006000300e00008003a00c811de00f4
:100a20004811dd00880020000300e00003003a00c8
:100a3000c811de004811dd00680444008384cf0043
:100a4000e9845400060034008919dd00f0831400a5
:100a50008713de00878171000911dd00090444005d
:100a6000e1021400e9ff37002700200001f0a70091
:100a700017002000470bde00f60fb2000400320022
:100a80000643e8000a0032004702b30000000600f7
:100a900001037800f607b2000603700002003a0076
:100aa0000703b300000006008702b3000000060041
:100ab00001037800f607b20006037000020032005e
:100ac0000770a000000006000760a00000000600fc
:100ad0000478a300040032000578a300030032006c
:100ae0000168a30001003a000200be000160a000fe
:100af00000000600881f7800030478000300e0006f
:100b000007003d0060001000e0801800600119003f
:100b1000e081190002003b0001f02d0003003700c6
:100b20000400070008f0a70001f0a0004f047800bf
:100b300000000600889fbe008a9fbe0000827000f1
:100b40000402710004827100260032000004be001d
:100b50000200be006011b8006b0920009502200061
:100b60000182cf000a0039000541b1000082cf00a8
:100b7000070039000541b1000982cf0004003900a7
:100b80000541b1000882cf00010039000541b100e4
:100b900005425200120032000a003b0082817100bf
:100ba000610164008100d1000080d3008984d300fa
:100bb0000884d3008b05e8000442e800f7ff3a0000
:100bc000070037000804440089844c0000004800f6
:100bd000818048008b05e9000442e900f9ff3a00f2
:100be000030007004f05be004f04be0000000600d2
:100bf00081002000618055000b003d000b002000ab
:100c000061fe2f000100e1001d00340082817100af
:100c1000610164008904d1000884d3000000e80069
:100c2000faff3a00710020006100640003007000c8
:100c3000020060000900320061044400e0844c00be
:100c40000988a500050032008b05e8006808e1006e
:100c500002003a008904d1000884d300f20f20007a
:100c60000258e10005003d00c75ddd00f907b20054
:100c70008980750008007800000006000bf8270046
:080c80008b0078000000050064
:020000040000fa
:100c88000000fa009a21ef009c21ef00d10c8000af
:100c980000c0210001007000d00c8800e00c80002a
:100ca800f001b300e00c88009ce1a900d10c8000a1
:100cb80080ff2f00008060006000b300d00c880027
:100cc80031058000f08f2f000080600000a0a00098
:100cd8003005880094c0a80084c0a900a421ef00b2
:100ce800a621ef00210d800000c021000100700046
:100cf800200d8800300d8000f001b300300d880011
:100d0800a6e1a900210d800080ff2f00008060006f
:100d18006000b300200d880081058000f0f82f00e6
:100d2800008060000060a000800588009720a8006f
:100d38008720a900c002a900e004a900e024a900b6
:100d4800c022a9000080fa00000006000000fa0096
:100d580005e1a80021088000f0fc2f000080600059
:100d68000040a000200888000421a9000021ef000d
:100d78000080fa00000006000000fa0041e3a90024
:100d88004143a800011a8000f0cf2f0000806000c6
:100d9800001a8800011a8000f0f02f00808060009f
:100da8000007200001007000001a88004043a800d6
:100db800111a8000f0ff230000806000101a8800dc
:100dc80043a3a9004363a8004343a800111a800065
:100dd80030f82f00008060004001b300101a88002e
:100de8004203a90045e3a900211a8000f00f2e0054
:100df800008060000080a000201a8800f0c3b300c3
:100e080044e3b7000080fa00000006000000fa0082
:100e1800c842a800e244a8005083a800c042a80025
:100e2800e044a80051a3a800c062a800e064a8009c
:100e380051c3a800c982a800e384a8005183a80070
:100e4800c9a2a800e3a4a8005163a8000080fa0082
:100e5800000006000000fa0041e3a8000080fa0044
:100e6800000006000000fa00c902a8000080fa008d
:100e7800000006000000fa009021ef009221ef0028
:100e8800810c800000c0210001007000800c8800e7
:100e9800900c8000f001b300900c880092e1a9004a
:100ea800810c800080ff2f00008060006000b3008c
:100eb800800c880021058000f08f2f0000806000e2
:100ec80000a0a000200588009440a9009421ef000c
:100ed8009621ef000080fa00000006000000fa00ea
:100ee800c8e2a9000080fa00000006000000fa002d
:100ef800c9e2a800e3e4a8005123a8000080fa0092
:100f0800000006000000fa00c902a9000080fa00eb
:100f1800000006000200fa0041188000c05d2000b1
:100f2800808f50000300360010002000000f78006a
:100f3800020037000000eb00000f78001e00780068
:100f48000080fa00000006000200fa00d1188000b4
:100f5800c05d2000808f5000030036001000200084
:100f6800000f7800020037000000eb00000f780047
:100f78001e0078000080fa00000006000200fa0057
:100f8800e1188000c05d2000808f5000030036000b
:100f980010002000000f7800020037000000eb006e
:100fa800000f78001e0078000080fa00000006009c
:100fb8000200fa00c1188000c05d2000808f500038
:100fc8000300360010002000000f780002003700f0
:100fd8000000eb00000f78001e0078000080fa0087
:100fe800000006000200fa00b1188000c05d200071
:100ff800808f50000300360010002000000f78009a
:10100800020037000000eb00000f78001e00780097
:101018000080fa00000006000000fa009018800026
:101028000080fa00000006000000fa00a005200079
:10103800f00c8800d0022000000d8800a0052000d8
:10104800400d8800d0022000500d8800c402a8007e
:10105800c422a9000080fa00000006000000fa007f
:1010680080072000f00c8800c0032000000d8800d5
:10107800a0052000400d8800d0022000500d8800f7
:10108800c402a800c422a9000080fa0000000600db
:101098000000fa00a0052000f00c8800d002200013
:1010a800000d880080072000400d8800c003200044
:1010b800500d8800c402a800c422a9000080fa00cc
:1010c800000006000000fa00c00d2000f00c8800a7
:1010d800e0062000000d8800a0052000400d8800d3
:1010e800d0022000500d8800c402a800c422a90024
:1010f8000080fa00000006000000fa00a0052000a9
:10110800f00c8800d0022000000d8800c00d2000df
:10111800400d8800e0062000500d8800c402a80099
:10112800c422a9000080fa00000006000000fa00ae
:101138009e21ef00a021ef00a821ef00aa21ef00d7
:101148000080fa00000006000200fa00000f780094
:101158001e0078000000e00002003200d9ff0700fe
:1011680001003700e4ff07000080fa0000000600d5
:101178000200fa00000f78001e0078000040780096
:10118800614060000080fb00610060004700dd00f6
:10119800611680000170a1000100700060168800cf
:1011a8000080fa00000006000000fa003018200055
:1011b800a00c8800e0012000b00c88000080fa0034
:1011c800000006000000fa0030182000a00c88007b
:1011d800a0002000b00c88000080fa000000060083
:1011e8000000fa00a6fe0700e3fe07003fff070025
:1011f80006ff0700d5fe07001aff07001dff0700be
:1012080036ff070013ff07000c28ef0086ff0700d2
:101218000e28ef001028ef001228ef004d010700fc
:10122800feff37000000fa0060408000e20f500027
:101238004f003200e20f500005003e000000e000c1
:101248000a003200e10f500024003200e2003700ab
:10125800e40f50008f003200e40f5000680039009e
:10126800e50f5000af003200db00370029ff070010
:101278000000e0000b00320033ff07000000e00030
:101288000400320075ff070010002000604088004d
:10129800d10037008bff0700300020006040880035
:1012a800cd00370035ff07000000e000bf00320026
:1012b80025ff07000000e0000400320074ff07006b
:1012c8002000200060408800c30037008aff070024
:1012d8004000200060408800bf0037001000200058
:1012e800504088000bff07000000e00007003200b4
:1012f80015ff07000000e000ae003a0071ff07008c
:101308003000200060408800b30037001bff070052
:101318000000e0000b0032000bff07000000e000b7
:10132800040032005aff07002000200060408800b7
:10133800a900370070ff07004000200060408800c7
:10134800a500370000ff07000000e000030032009e
:1013580035ff07000c28ef009f00370050002000e1
:10136800604088005040800077ff07009a003700ef
:101378000a28ef00e7fe07000000e0000b0032003b
:10138800f1fe07000000e0000400320033ff070010
:1013980010002000604088008f00370049ff0700d8
:1013a80030002000604088008b003700f3fe070003
:1013b8000000e00007003200e3fe07000000e00044
:1013c8007e003a004cff0700400020006040880083
:1013d80081003700dcfe07000000e0000300320057
:1013e80011ff07000c28ef007b0037005000200099
:1013f800604088005040800053ff070076003700a7
:101408001000200050408800c2fe07000000e000e5
:1014180007003200ccfe07000000e000690032003f
:101428000eff070010002000604088006a003700a7
:10143800d2fe07000000e0000b003200c2fe0700e9
:101448000000e0000400320011ff07002000200027
:10145800604088006000370027ff07004000200038
:10146800604088005c003700b7fe07000000e0001d
:1014780003003200ecfe07000c28ef00560037008e
:101488005000200060408800504080002eff070078
:10149800510037000a28ef009efe07000000e00018
:1014a8000b003200a8fe07000000e0000400320034
:1014b800eafe070010002000604088004600370060
:1014c80000ff07003000200060408800420037001d
:1014d800aafe07000000e000070032009afe07009d
:1014e8000000e00039003200e9fe0700200020007b
:1014f800604088003800370093fe07000000e000d5
:1015080003003200c8fe07000c28ef003200370045
:101518005000200060408800504080000aff07000b
:101528002d0037007bfe07000000e0000b003200b2
:1015380085fe07000000e00004003200c7fe070037
:10154800100020006040880023003700ddfe0700ff
:1015580030002000604088001f00370087fe070029
:101568000000e0000b00320077fe07000000e000fa
:1015780004003200c6fe07002000200060408800fa
:1015880015003700dcfe070040002000604088009e
:10159800110037006cfe07000000e0000d0032006b
:1015a800a1fe07000c28ef000b0037000000000028
:1015b80009003700000000000700370000000000a5
:1015c800050037000000000003003700000000009d
:1015d80001003700000000000080fa00000006004b
:1015e8000000fa0070408000e10f50000e00320049
:1015f800e10f500003003900e20f50001b003200d9
:10160800330037006afe07000000e0002b003200bc
:1016180010002000704088000228ef0094c0a80045
:101628000828ef002a00370011408000b01220007f
:10163800808f5000030034000e28ef0094c0a900ea
:10164800230037005afe07000000e0001d003a00a2
:10165800404080000000e800404088000228ef0079
:1016680020002000704088001900370011408000d9
:10167800b0122000808f5000030034000e28ef00c5
:1016880094c0a9001200370040408000e30f5000ca
:1016980003003a00a021ef00aa21ef000c00370058
:1016a80043fe07000000e0000800320010002000a0
:1016b8007040880094c0a9000500370000000000b1
:1016c80003003700000000000100370000000000a0
:1016d8000080fa00000006000000fa008040800048
:1016e8000000e00003003200e10f50000d0032005e
:1016f800160037005116800000102000008060009e
:101708000000e0000e003a00100020008040880031
:101718000228ef008000eb00a0052000630007000e
:101728000a0037001140800030408000808f500050
:10173800050035001028ef003bfe070003003700c6
:101748000000000001003700000000000080fa00df
:10175800000006000000fa0090408000e10f5000f1
:1017680023003200e10f500003003900e20f50005f
:10177800320032004b0037001140800030408000ba
:10178800808f50000200350068fe07000228ef0035
:1017980001088000606b2100808f50003a003600fd
:1017a80010fe07000000e0000700320020002000c3
:1017b800904088008000eb00a00520003b00070057
:1017c8000021ef003700370006fe07000000e000a8
:1017d8002f003a00100020009040880011002000df
:1017e800a0052000310007000021ef002d00370080
:1017f8001140800030408000808f50000400350088
:1018080069fe07000228ef0048fe070025003700a0
:1018180001088000606b2100808f50001e00360098
:101828001228ef008000eb00a00520001f00070031
:1018380064fe07000021ef001a0037001140800005
:1018480030408000808f50000400350056fe0700ad
:101858000228ef0035fe070012003700010880005b
:10186800606b2100808f50000d0036001228ef00b9
:1018780011002000a00520000c00070051fe070001
:101888000021ef00070037000000000005003700c6
:1018980000000000030037000000000001003700ce
:1018a800000000000080fa00000006000400fa00b2
:1018b800000f78000e80e800010878001e0078000c
:1018c800cf80de006ffb07000002be00a040800052
:1018d800b14080000001be000400be0081fb07008b
:1018e80047fb0700000078003040880094c0a8003b
:1018f8000228ef0040062000f00c8800200320009a
:10190800000d880040062000400d880020032000bc
:10191800500d88000e80e800100078000040780024
:10192800614060000080fb006100600021168000bb
:101938000100a10001007000201688000e80e80058
:101948001000780000407800614060000080fb00d3
:101958006100600000004000211680000110a10015
:1019680001007000201688000080fa0000000600c0
:020000040000fa
:101978000008000014000000000000001408000027
:101988000400000002000000f31fe2003f00000016
:04199800000000004b
:020000040000fa
:0200000401f009
:04000c00fdff0000f4
:00000001FF
