:020000040000fa
:080000000002040000000000f2
:020000040000fa
:04000800fe020000f4
:020000040000fa
:04000c00fe020000f0
:020000040000fa
:04001000fe020000ec
:020000040000fa
:04001400fe020000e8
:020000040000fa
:04001800fe020000e4
:020000040000fa
:04001c00fe020000e0
:020000040000fa
:04002000fe020000dc
:020000040000fa
:04002400fe020000d8
:020000040000fa
:04002800fe020000d4
:020000040000fa
:04002c00fe020000d0
:020000040000fa
:04003000c802000002
:020000040000fa
:04003400fe020000c8
:020000040000fa
:04003800fe020000c4
:020000040000fa
:04003c00fe020000c0
:020000040000fa
:04004000da020000e0
:020000040000fa
:04004400fe020000b8
:020000040000fa
:04004800fe020000b4
:020000040000fa
:04004c00fe020000b0
:020000040000fa
:04005000fe020000ac
:020000040000fa
:04005400fe020000a8
:020000040000fa
:04005800fe020000a4
:020000040000fa
:04005c00fe020000a0
:020000040000fa
:04006000fe0200009c
:020000040000fa
:04006400fe02000098
:020000040000fa
:04006800fe02000094
:020000040000fa
:04006c00fe02000090
:020000040000fa
:04007000fe0200008c
:020000040000fa
:04007400fe02000088
:020000040000fa
:04007800fe02000084
:020000040000fa
:04007c00fe02000080
:020000040000fa
:04008000fe0200007c
:020000040000fa
:04008400fe02000078
:020000040000fa
:04008800fe02000074
:020000040000fa
:04008c00ec02000082
:020000040000fa
:04009000fe0200006c
:020000040000fa
:04009400fe02000068
:020000040000fa
:04009800fe02000064
:020000040000fa
:04009c00fe02000060
:020000040000fa
:0400a000fe0200005c
:020000040000fa
:0400a400fe02000058
:020000040000fa
:0400a800fe02000054
:020000040000fa
:0400ac00fe02000050
:020000040000fa
:0400b000fe0200004c
:020000040000fa
:0400b400fe02000048
:020000040000fa
:0400b800fe02000044
:020000040000fa
:0400bc00fe02000040
:020000040000fa
:0400c000fe0200003c
:020000040000fa
:0400c400fe02000038
:020000040000fa
:0400c800fe02000034
:020000040000fa
:0400cc00fe02000030
:020000040000fa
:0400d000fe0200002c
:020000040000fa
:0400d400fe02000028
:020000040000fa
:0400d800fe02000024
:020000040000fa
:0400dc00fe02000020
:020000040000fa
:0400e000fe0200001c
:020000040000fa
:0400e400fe02000018
:020000040000fa
:0400e800fe02000014
:020000040000fa
:0400ec00fe02000010
:020000040000fa
:0400f000fe0200000c
:020000040000fa
:0400f400fe02000008
:020000040000fa
:0400f800fe02000004
:020000040000fa
:0400fc00fe02000000
:020000040000fa
:04010000fe020000fb
:020000040000fa
:04010400fe020000f7
:020000040000fa
:04010800fe020000f3
:020000040000fa
:04010c00fe020000ef
:020000040000fa
:04011000fe020000eb
:020000040000fa
:04011400fe020000e7
:020000040000fa
:04011800fe020000e3
:020000040000fa
:04011c00fe020000df
:020000040000fa
:04012000fe020000db
:020000040000fa
:04012400fe020000d7
:020000040000fa
:04012800fe020000d3
:020000040000fa
:04012c00fe020000cf
:020000040000fa
:04013000fe020000cb
:020000040000fa
:04013400fe020000c7
:020000040000fa
:04013800fe020000c3
:020000040000fa
:04013c00fe020000bf
:020000040000fa
:04014000fe020000bb
:020000040000fa
:04014400fe020000b7
:020000040000fa
:04014800fe020000b3
:020000040000fa
:04014c00fe020000af
:020000040000fa
:04015000fe020000ab
:020000040000fa
:04015400fe020000a7
:020000040000fa
:04015800fe020000a3
:020000040000fa
:04015c00fe0200009f
:020000040000fa
:04016000fe0200009b
:020000040000fa
:04016400fe02000097
:020000040000fa
:04016800fe02000093
:020000040000fa
:04020800fe020000f2
:020000040000fa
:04020c00fe020000ee
:020000040000fa
:04021000fe020000ea
:020000040000fa
:04021400fe020000e6
:020000040000fa
:04021800fe020000e2
:020000040000fa
:04021c00fe020000de
:020000040000fa
:04022000fe020000da
:020000040000fa
:04022400fe020000d6
:020000040000fa
:04022800fe020000d2
:020000040000fa
:04022c00fe020000ce
:020000040000fa
:04023000c802000000
:020000040000fa
:04023400fe020000c6
:020000040000fa
:04023800fe020000c2
:020000040000fa
:04023c00fe020000be
:020000040000fa
:04024000da020000de
:020000040000fa
:04024400fe020000b6
:020000040000fa
:04024800fe020000b2
:020000040000fa
:04024c00fe020000ae
:020000040000fa
:04025000fe020000aa
:020000040000fa
:04025400fe020000a6
:020000040000fa
:04025800fe020000a2
:020000040000fa
:04025c00fe0200009e
:020000040000fa
:04026000fe0200009a
:020000040000fa
:04026400fe02000096
:020000040000fa
:04026800fe02000092
:020000040000fa
:04026c00fe0200008e
:020000040000fa
:04027000fe0200008a
:020000040000fa
:04027400fe02000086
:020000040000fa
:04027800fe02000082
:020000040000fa
:04027c00fe0200007e
:020000040000fa
:04028000fe0200007a
:020000040000fa
:04028400fe02000076
:020000040000fa
:04028800fe02000072
:020000040000fa
:04028c00ec02000080
:020000040000fa
:04029000fe0200006a
:020000040000fa
:04029400fe02000066
:020000040000fa
:04029800fe02000062
:020000040000fa
:04029c00fe0200005e
:020000040000fa
:0402a000fe0200005a
:020000040000fa
:0402a400fe02000056
:020000040000fa
:0402a800fe02000052
:020000040000fa
:0402ac00fe0200004e
:020000040000fa
:0402b000fe0200004a
:020000040000fa
:0402b400fe02000046
:020000040000fa
:0402b800fe02000042
:020000040000fa
:0402bc00fe0200003e
:020000040000fa
:0402c000fe0200003a
:020000040000fa
:0402c400fe02000036
:020000040000fa
:0402c800fe02000032
:020000040000fa
:0402cc00fe0200002e
:020000040000fa
:0402d000fe0200002a
:020000040000fa
:0402d400fe02000026
:020000040000fa
:0402d800fe02000022
:020000040000fa
:0402dc00fe0200001e
:020000040000fa
:0402e000fe0200001a
:020000040000fa
:0402e400fe02000016
:020000040000fa
:0402e800fe02000012
:020000040000fa
:0402ec00fe0200000e
:020000040000fa
:0402f000fe0200000a
:020000040000fa
:0402f400fe02000006
:020000040000fa
:0402f800fe02000002
:020000040000fa
:0402fc00fe020000fe
:020000040000fa
:04030000fe020000f9
:020000040000fa
:04030400fe020000f5
:020000040000fa
:04030800fe020000f1
:020000040000fa
:04030c00fe020000ed
:020000040000fa
:04031000fe020000e9
:020000040000fa
:04031400fe020000e5
:020000040000fa
:04031800fe020000e1
:020000040000fa
:04031c00fe020000dd
:020000040000fa
:04032000fe020000d9
:020000040000fa
:04032400fe020000d5
:020000040000fa
:04032800fe020000d1
:020000040000fa
:04032c00fe020000cd
:020000040000fa
:04033000fe020000c9
:020000040000fa
:04033400fe020000c5
:020000040000fa
:04033800fe020000c1
:020000040000fa
:04033c00fe020000bd
:020000040000fa
:04034000fe020000b9
:020000040000fa
:04034400fe020000b5
:020000040000fa
:04034800fe020000b1
:020000040000fa
:04034c00fe020000ad
:020000040000fa
:04035000fe020000a9
:020000040000fa
:04035400fe020000a5
:020000040000fa
:04035800fe020000a1
:020000040000fa
:04035c00fe0200009d
:020000040000fa
:04036000fe02000099
:020000040000fa
:04036400fe02000095
:020000040000fa
:04036800fe02000091
:020000040000fa
:100400008f8220000eff20000e01880000000000f7
:10041000000020000000e000020032000001200087
:100420002002880014000700760007000000e000aa
:1004300003003a00005921000100200002003700ab
:100440000000200001002000810f70000100320038
:1004500014000700000020000000e000020032004d
:1004600000000200000000007a0d02000000000001
:100470000040da000000fe004440a9000000200017
:100480000000e0000300320000002000a00188000e
:100490004440a800000006008a1f78008b1f7800e7
:1004a0000000060091018800800478000000eb0045
:1004b0001a003700e284440032a0b4009905ba0063
:1004c000e284440032a0b4009906ba00e2844400f9
:1004d00032a0b4000006eb00476fde00fd07b2005b
:1004e000636ce10003003a00ebff07000000eb0043
:1004f0000a003700606ce10004003a00005deb0088
:100500008b05e900fdff3e00040037006168e10053
:10051000010032000086eb000b00070019c7ba008b
:100520001905ba000e04e00003003a000a00e000da
:10053000e0ff3a0000000600fe07b2009e018800be
:100540008a047800f5ff3700395dba008b05e900b1
:100550000c003200295dba008b05e900080032006a
:100560000c00e00003003a00e284440032a0b40032
:10057000f5ff370019ddba008b05e900faff3a00f4
:100580008904e800e184440032a0b40000000600c1
:10059000801f78000000fa008440a900004080001d
:1005a0000000e800004088000080fa004f0078005a
:1005b00000400600801f78000000fa0084c0a900f7
:1005c000104080000000e800104088000080fa0021
:1005d0004f00780000400600801f78000000fa00fd
:1005e0008720a900204080000000e800204088000b
:1005f0000080fa004f007800004006000040da005a
:100600000000fe0000000500f4ff2f004602370046
:100610000001be003f0007000470a70003f0a10026
:100620006509b100160032000d0035006828e100b0
:1006300006003500f0ff2f00f1ff27000300e00067
:1006400013003b00010028000000050000004000ee
:10065000818048008502e900fcff3a00080037006d
:10066000f88f420002003c008000eb000000050013
:100670008100d1000080d3008502e800fcff3a0031
:100680000300e00002003b0060001000e080180062
:10069000000006000001be001e0007000470a70055
:1006a00003f0a10003f8a30013003a006509b100ac
:1006b00010003200090035006928e1000200350011
:1006c0000100280000000500000040008180480073
:1006d0008502e900fcff3a0000000600f88f4200a6
:1006e000050035008100d1000080d3008502e800bc
:1006f000fcff3a00000006008000eb00000005004f
:100700004f89de0082017800220237006011b800b4
:1007100030023700c70ade00f107b200f50fb20061
:1007200008003200e1cf4200020032000170a00058
:1007300024000500810f700001003200040805004c
:1007400044000500810f700002003a00140005000b
:100750008502e9000000400081c04800fcff3b002a
:100760000170a0002400050007f82700078361003e
:100770000638e10004003a00f70720008783610093
:100780008703710001003a0003f0a200889fbe00b9
:100790008a9fbe008c9fbe00470ade000480a10035
:1007a000c71ade000580a100070028000785600049
:1007b00087856100f70f20000720e1009e003200ce
:1007c0000728e1009c003200010678000400e000e8
:1007d000b4003200f7072000878060000170a0009d
:1007e0000500e000c0003200f707200087816100ab
:1007f0000370a000050652000f003a000b50e10004
:100800000b0032000308e10002003a000200e100a0
:100810007e0032000204500083845800040031003e
:100820000001fd008101fd008402fd008a05fd003c
:100830006044b800210037000520e10005003d00bc
:100840000001fd008101fd008402fd008a05fd001c
:10085000050652007a60e100050035000170a10034
:100860004722dd00848070008a80700063003700ba
:100870006044b800ef02660007ff2f00070666001d
:100880000500e00006003400f08312008714dd004c
:100890000511de00071bdd00060171008519de0071
:1008a0007060e100050035000904780082047800da
:1008b000030178008001eb00700656000b50e10048
:1008c00003003a0002004000838048000400370023
:1008d00060041400e0841c0002005800838058006b
:1008e0000188a300060032008100d1000080d300ff
:1008f0008984d3000884d3000402e800270037006d
:100900000178a30025003a000100e0000300320056
:100910008186cf00698656000a0037008c002000cf
:100920000000e00004003a00090078008804780024
:100930000004eb00700252008086cf000d064600d6
:100940000c06e9007060e1000600350080007800c8
:1009500009007800880478000004eb007006560057
:10096000700252000c00e0000c0034008c08dd0026
:10097000f00316000703de00868070000c00dd0027
:10098000074bde00060070008c4cdd000743de00e4
:10099000868474000c44dd000c0252006120e100ea
:1009a0002000350061016000070028008781640095
:1009b000f7ff270087836400070374000300e0004b
:1009c0000600320082037300040032000000e800d9
:1009d000e08048000188a3000e003a00f70f2000d5
:1009e0000720e1004a003d000170a1004722dd0020
:1009f000810072008a8070000000be004f06be00b9
:100a00004f05be004f04be00000006006000b800a5
:100a1000faff37008100d1000080d3000402e80013
:100a2000eeff37000401780089017400c20007005e
:100a30008a807000f1ff3700180107000702780074
:100a40000001fd008101fd0014010700870278000c
:100a5000850372000778a300040032000001fd0046
:100a60008101fd0027010700e4ff370085036200d4
:100a70000768a300080032000b50e10003003200b9
:100a8000f0ff2f00f1ff2700dcff37000001fd0021
:100a90008101fd00d9ff37000468a300d7ff3200b1
:100aa000faff3700f8ff2700888360000b003a0048
:100ab0000000e00009003a008303640082837300b1
:100ac000020032000200be00ccff37000b50e100f4
:100ad000ceff3a000200be00c8ff3700140020001d
:100ae000810064003eff3700f8ff27008883610023
:100af00004003a000200e00002003a008c00780096
:100b0000beff3700150020008301640039ff370065
:100b100001f827000000200081007500b7ff3700b2
:100b2000038368000700280007036300470ade000c
:100b30000480a100c71ade000580a100f70f200085
:100b40000720e100420032000728e10040003200a7
:100b5000889fbe008a9fbe008c1f7800f107b200fc
:100b6000f307b2000400e000640032000170a0004e
:100b70000500e000680032000370a0008505420017
:100b8000eb07b1000204b8000302b80084844400fb
:100b900060854a00020ab800848444000a854a003d
:100ba000030ab80004054500040033000804d0001f
:100bb0008984d2000a85d2008b05e9006158e100e2
:100bc0003d003500021020000901610003082000eb
:100bd00089816100f707200087836400088673001d
:100be000c84cde00c853dd00878474004855de0021
:100bf0000300e000060032008203760004003200a9
:100c00008904e80060054d000a88a3000c003a0042
:100c1000f70f20000758e10044003d000a70a100d2
:100c2000c75ddd000a8575008a0073000900780041
:100c30004f0678004f05be004f04be0000000600be
:100c40000a05d1008984d3008b05e800f0ff370046
:100c5000881f7800060478009000070007027800db
:100c60000001fd008101fd008c0007008702780073
:100c7000850372000778a300050032000001fd0023
:100c80008101fd009f0007004f047800000006006e
:100c9000850372000748a30003003200f0ff2f0015
:100ca000f1ff2700f8ff37000000200001f82700bf
:100cb00088807000f4ff3700880178004848dd0024
:100cc000808171004848de00c850dd0001007000de
:100cd000c850de00060478000b01780016000700fb
:100ce00088807000d2ff37000500e0000500320068
:100cf000170020003a0007009dff370081037000b5
:100d0000f9ff3a00860078004f0678004f05be00d4
:100d10004f04be000000050083037100f9ff32009c
:100d2000270020002e00070094ff370001f827005d
:100d300086807000f4ff37000100e00026003200da
:100d4000610111007810e10023003c006022b8002e
:100d50007010e10004003500800278000100780086
:100d60008000eb00700151000200e0000900340037
:100d700070031100062add00822ade008603dd00f2
:100d8000878272000200de00860bdd000700700023
:100d90008208de0084817100f4ff27000482620073
:100da0008481710004002800848262006102600076
:100db00005f0a60000000600048271000700320062
:100dc0000000e800e0804800000006000002be00cd
:100dd0006000b800efff37006000b80000000600b8
:100de000889fbe000004eb006138e10016003a0065
:100df0000100e00008003a00c800de004800dd0005
:100e0000880020000100e00003003a00c800de0076
:100e10004800dd00680444008184cf00e984540068
:100e2000060034008908dd00f08314008703de002b
:100e3000878070000900dd0009044400610214008d
:100e40004f04be00000006000300e00008003a0066
:100e5000c811de004811dd00880020000300e0001a
:100e600003003a00c811de004811dd0068044400a8
:100e70008384cf00e9845400060034008919dd0022
:100e8000f08314008713de00878171000911dd00f3
:100e900009044400e1021400e9ff370027002000a4
:100ea00001f0a70017002000470bde00f60fb2008c
:100eb000040032000643e8000a0032004702b30093
:100ec0000000060001037800f607b2000603700078
:100ed00002003a000703b300000006008702b300d7
:100ee0000000060001037800f607b2000603700058
:100ef000020032000770a000000006000760a0009a
:100f0000000006000478a300040032000578a30066
:100f1000030032000168a30001003a000200be0095
:100f20000160a00000000600889fbe008a9fbe00ee
:100f3000841f78007c0007004f0078001100330008
:100f4000f0ff2f00838f6c0006003b000405650056
:100f50000a00a7000800370009f0a60010002000d2
:100f600008003700820f5400838f5c0003003900b3
:100f70001000200001003e000000200009f0a70042
:100f80000000ea004f05be004f04be000000e00074
:100f900000000600881f7800030478000300e000ca
:100fa00007003d0060001000e0801800600119009b
:100fb000e081190002003b0001f02d000300370022
:100fc0000400070008f0a70001f0a0004f0478001b
:100fd00000000600889fbe008a9fbe00008270004d
:100fe0000402710004827100260032000004be0079
:100ff0000200be006011b8006b09200095022000bd
:101000000182cf000a0039000541b1000082cf0003
:10101000070039000541b1000982cf000400390002
:101020000541b1000882cf00010039000541b1003f
:1010300005425200120032000a003b00828171001a
:10104000610164008100d1000080d3008984d30055
:101050000884d3008b05e8000442e800f7ff3a005b
:10106000070037000804440089844c000000480051
:10107000818048008b05e9000442e900f9ff3a004d
:10108000030007004f05be004f04be00000006002d
:1010900081002000618055000b003d000b00200006
:1010a00061fe2f000100e1001d003400828171000b
:1010b000610164008904d1000884d3000000e800c5
:1010c000faff3a0071002000610064000300700024
:1010d000020060000900320061044400e0844c001a
:1010e0000988a500050032008b05e8006808e100ca
:1010f00002003a008904d1000884d300f20f2000d6
:101100000258e10005003d00c75ddd00f907b200af
:101110008980750008007800000006000bf82700a1
:101120008b007800000005000004be0079fd070078
:101130000003be000405be000200be0075fd0700ee
:08114000844f75000000060059
:020000040000fa
:101148000000fa009a21ef009c21ef00d10c8000ea
:1011580000c0210001007000d00c8800e00c800065
:10116800f001b300e00c88009ce1a900d10c8000dc
:1011780080ff2f00008060006000b300d00c880062
:1011880031058000f08f2f00808060000050200023
:10119800010070003005880094c0a80084c0a90030
:1011a800a421ef00a621ef00210d800000c021003e
:1011b80001007000200d8800300d8000f001b300a0
:1011c800300d8800a6e1a900210d800080ff2f00c6
:1011d800008060006000b300200d88008105800059
:1011e800f0f82f00008060000060a00080058800f3
:1011f8009720a8008720a900c002a900e004a90040
:10120800e024a900c022a9000080fa00000006001e
:101218000000fa0005e1a800210880000003200072
:1012280001007000200888000421a9000021ef00b7
:101238000080fa00000006000000fa0041e3a9005f
:101248004143a800011a8000f0cf2f000080600001
:10125800001a8800011a8000f0f02f0080806000da
:101268000007200001007000001a88004043a80011
:10127800111a8000f0ff230000806000101a880017
:1012880043a3a9004363a8004343a800111a8000a0
:1012980030f82f00008060008001b300101a880029
:1012a8004203a90045e3a900211a8000f00f2e008f
:1012b800008060000080a000201a8800f0c3b300fe
:1012c80044e3b7000080fa00000006000000fa00be
:1012d800c842a800e244a8005083a800c042a80061
:1012e800e044a80051a3a800c062a800e064a800d8
:1012f80051c3a800c982a800e384a8005183a800ac
:10130800c9a2a800e3a4a8005163a800c9c2a80004
:10131800e3c4a8005143a8000080fa0000000600ba
:101328000000fa0041e3a8000080fa00000006006f
:101338000000fa00c902a8000080fa0000000600b8
:101348000000fa009021ef009221ef00810c80004c
:1013580000c0210001007000800c8800900c800003
:10136800f001b300900c880092e1a900810c800084
:1013780080ff2f00008060006000b300800c8800b0
:1013880021058000f08f2f000080600000a0a000e1
:10139800200588009440a9009421ef009621ef00d1
:1013a8000080fa00000006000000fa00c8e2a90068
:1013b8000080fa00000006000000fa00c9e2a80058
:1013c800e3e4a8005123a8000080fa00000006000a
:1013d8000000fa00c902a9000080fa000000060017
:1013e8000200fa0041188000007d2000808f500024
:1013f8000300360010002000000f780002003700bc
:101408000000eb00000f78001e0078000080fa0052
:10141800000006000200fa00d1188000007d2000bc
:10142800808f50000300360010002000000f780065
:10143800020037000000eb00000f78001e00780063
:101448000080fa00000006000200fa00e11880009f
:10145800007d2000808f500003003600100020001f
:10146800000f7800020037000000eb00000f780042
:101478001e0078000080fa00000006000200fa0052
:10148800c1188000007d2000808f500003003600c6
:1014980010002000000f7800020037000000eb0069
:1014a800000f78001e0078000080fa000000060097
:1014b8000200fa00b1188000007d2000808f5000e3
:1014c8000300360010002000000f780002003700eb
:1014d8000000eb00000f78001e0078000080fa0082
:1014e800000006000200fa00a1188000007d20001c
:1014f800808f50000300360010002000000f780095
:10150800020037000000eb00000f78001e00780092
:101518000080fa00000006000000fa009018800021
:101528000080fa00000006000000fa0080bb2000de
:10153800f00c8800c05d2000000d880080bb2000f2
:10154800400d8800c05d2000500d8800c402a8002e
:10155800c422a9000080fa00000006000000fa007a
:1015680000fa2000f00c8800007d2000000d8800a3
:1015780080bb2000400d8800c05d2000500d880011
:10158800c402a800c422a9000080fa0000000600d6
:101598000000fa0080bb2000f00c8800c05d20002d
:1015a800000d880000fa2000400d8800007d200012
:1015b800500d8800c402a800c422a9000080fa00c7
:1015c800000006000000fa0000e22400f00c880089
:1015d80000712200000d880080bb2000400d8800ab
:1015e800c05d2000500d8800c402a800c422a900d4
:1015f8000080fa00000006000000fa0080bb20000e
:10160800f00c8800c05d2000000d880000e2240076
:10161800400d880000712200500d8800c402a80007
:10162800c422a9000080fa00000006000000fa00a9
:101638009e21ef00a021ef00a821ef00aa21ef00d2
:101648000080fa00000006000200fa00000f78008f
:101658001e0078000000e00002003200d9ff0700f9
:1016680001003700e4ff07000080fa0000000600d0
:101678000200fa00000f78001e0078000040780091
:10168800614060000080fb00610060004700dd00f1
:10169800611680000170a1000100700060168800ca
:1016a8000080fa00000006000000fa003018200050
:1016b800a00c8800e0012000b00c88000080fa002f
:1016c800000006000000fa0030182000a00c880076
:1016d800a0002000b00c88000080fa00000006007e
:1016e8000000fa00cd02a8000080fa000000060001
:1016f8000000fa00cd02a9000080fa0000000600f0
:101708000000fa00b00c8000ea0f50000f0036000d
:101718000108800000192000808f50000d0036005d
:10172800b00c80008000eb00f6fb070002002000f0
:1017380003f023000afc0700d4fb07000000780030
:10174800b00c88000021ef00020037009001200053
:10175800b00c88000080fa00000006000600fa00bd
:1017680040832000000f780000e224001e00500093
:101778000000e00002003d00f1ff200001004000f1
:101788004c80de00411880000180b900000078001c
:101798009e007800810040000e80e8000108780073
:1017a8000e80e80010007800f00c88000e80e80039
:1017b80010007800cf00de00008040000080d100db
:1017c800000d880000e224001e0050000000e00028
:1017d80002003d00f1ff2000010040004c80de00c7
:1017e800e11880000180b900000078009e007800b0
:1017f8008100400064004700010878006400470049
:1018080010007800400d8800640047001000780040
:10181800cf00de00008040000080d100500d88001d
:10182800c402a800c422a9000080fa000000060033
:101838000000fa00f00c80008000eb00b1fb07000c
:101848006266260063f62300b3fc0700020020004e
:1018580063392400cbfb07008cfb070000007800ed
:10186800f00c8800f00c80000000d100000d88000a
:10187800400d80008000eb00a2fb07006266260096
:1018880063f62300a4fc070002002000633924004b
:10189800bcfb07007dfb070000007800400d8800b6
:1018a800400d80000000d100500d8800c402a8003f
:1018b800c422a9000080fa00000006000000fa0017
:1018c800f00c80008000eb008efb070062662600ab
:1018d80063f6230090fc070002002000833c2400ec
:1018e800a8fb070069fb070000007800f00c8800df
:1018f800f00c80000000d100000d8800400d800031
:101908008000eb007ffb07006266260063f6230079
:1019180081fc0700020020006339240099fb0700be
:101928005afb070000007800400d8800400d800039
:101938000000d100500d8800c402a800c422a900ec
:101948000080fa00000006000000fa00f00c800099
:101958008000eb006bfb07006266260063f623003d
:101968006dfc0700020020006339240085fb070096
:1019780046fb070000007800f00c8800f00c80009f
:101988000000d100000d8800400d80008000eb00b1
:101998005cfb07006266260063f623005efc070016
:1019a80002002000833c240076fb070037fb070079
:1019b80000007800400d8800400d80000000d10034
:1019c800500d8800c402a800c422a9000080fa00b3
:1019d800000006000000fa00f00c80008000eb0018
:1019e80048fb07006266260063f623004afc0700ee
:1019f80002002000a34f240062fb070023fb07001e
:101a080000007800f00c8800f00c80000000d10085
:101a1800000d8800400d80008000eb0039fb0700b6
:101a28006266260063f623003bfc070002002000e4
:101a38006339240053fb070014fb070000007800fb
:101a4800400d8800400d80000000d100500d880036
:101a5800c402a800c422a9000080fa000000060001
:101a68000000fa00f00c80008000eb0025fb070066
:101a78006266260063f6230027fc070002002000a8
:101a8800633924003ffb070000fb070000007800d3
:101a9800f00c8800f00c80000000d100000d8800d8
:101aa800400d80008000eb0016fb070062662600f0
:101ab80063f6230018fc070002002000a34f24004f
:101ac80030fb0700f1fa070000007800400d88009d
:101ad800400d80000000d100500d8800c402a8000d
:101ae800c422a9000080fa00000006000000fa00e5
:101af80093fd0700cdfe0700cffd07002efe07006f
:101b0800f2fd0700c2fd070009fe07000cfe0700f2
:101b180025fe070002fe07002dfe0700100020002a
:101b2800704088001028ef007ffe07001428ef009f
:101b38001628ef001828ef001a28ef001c28ef00dd
:101b480001000700feff37000000fa007040800027
:101b5800e20f50002d003200e20f500005003e0059
:101b68000000e00008003200e10f50000e003200d3
:101b780049003700e30f50002c003200e40f5000fa
:101b88003200320044003700fc0207006040800049
:101b98000000e000350032000c28ef0010002000a3
:101ba800704088003c0037003d0007002b0107000b
:101bb800604080000000e0002e0032000c28ef009a
:101bc8000828ef0030418000e20f500008003a007a
:101bd8002000200070408800304180000000e800ac
:101be8003041880050fe07000021ef002a0037002e
:101bf80030418000e30f500020003a00304180005f
:101c08000000e8003041880023003700f802070090
:101c1800604080000000e0001a0032000c28ef004d
:101c280010002000704088001b0037006a01070080
:101c3800604080000000e000140032000c28ef0033
:101c4800100020007040880013003700430107008f
:101c5800604080000000e0000e0032000c28ef0019
:101c680010002000704088000b00370000000000c2
:101c780009003700000000000700370000000000de
:101c880005003700000000000300370000000000d6
:101c980001003700000000000080fa000000060084
:101ca8000000fa0080408000e20f50004f00320030
:101cb800e20f500005003e000000e0000a0032007c
:101cc800e10f500024003200e2003700e40f50001a
:101cd8008f003200e40f500068003900e50f500013
:101ce800af003200db003700bdfd07000000e00058
:101cf8000b003200c7fd07000000e00004003200be
:101d080016fe07001000200080408800d100370030
:101d18002cfe07003000200080408800cd003700ee
:101d2800c9fd07000000e000bf003200b9fd070050
:101d38000000e0000400320015fe0700200020002b
:101d480080408800c30037002bfe070040002000b9
:101d580080408800bf0037001000200050408800f5
:101d68009ffd07000000e00007003200a9fd070002
:101d78000000e000ae003a0012fe0700300020002c
:101d880080408800b3003700affd07000000e00086
:101d98000b0032009ffd07000000e0000400320045
:101da800fbfd07002000200080408800a9003700c4
:101db80011fe07004000200080408800a500370081
:101dc80094fd07000000e00003003200d6fd070084
:101dd8001028ef009f003700500020008040880046
:101de8005040800018fe07009a0037000a28ef00cc
:101df8007bfd07000000e0000b00320085fd0700b6
:101e08000000e00004003200d4fd070010002000ac
:101e1800804088008f003700eafd0700300020006e
:101e2800804088008b00370087fd07000000e00035
:101e38000700320077fd07000000e0007e003a004e
:101e4800edfd070040002000804088008100370039
:101e580070fd07000000e00003003200b2fd07003b
:101e68001028ef007b0037005000200080408800d9
:101e780050408000f4fd0700760037001000200075
:101e88005040880056fd07000000e00007003200bf
:101e980060fd07000000e00069003200affd0700a8
:101ea80010002000804088006a00370066fd0700a7
:101eb8000000e0000b00320056fd07000000e000c3
:101ec80004003200b2fd0700200020008040880096
:101ed80060003700c8fd07004000200080408800ef
:101ee8005c0037004bfd07000000e00003003200f3
:101ef8008dfd07001028ef00560037005000200025
:101f08008040880050408000cffd07005100370016
:101f18000a28ef0032fd07000000e0000b00320045
:101f28003cfd07000000e000040032008bfd0700c4
:101f3800100020008040880046003700a1fd0700ff
:101f48003000200080408800420037003efd070036
:101f58000000e000070032002efd07000000e0004e
:101f6800390032008afd07002000200080408800e8
:101f78003800370027fd07000000e00003003200aa
:101f880069fd07001028ef003200370050002000dc
:101f98008040880050408000abfd07002d003700ce
:101fa8000ffd07000000e0000b00320019fd0700dc
:101fb8000000e0000400320068fd07001000200067
:101fc80080408800230037007efd07003000200095
:101fd800804088001f0037001bfd07000000e0005c
:101fe8000b0032000bfd07000000e0000400320087
:101ff80067fd07002000200080408800150037009a
:102008007dfd070040002000804088001100370057
:1020180000fd07000000e0000d00320042fd07004f
:102028001028ef000b0037000000000009003700ff
:10203800000000000700370000000000050037001e
:102048000000000003003700000000000100370016
:10205800000000000080fa00000006000000fa00fe
:10206800a0408000e10f50000e003200e10f500048
:1020780003003900e20f50001b0032003500370022
:10208800fefc07000000e0002d00320010002000d8
:10209800a04088000428ef009720a8000828ef0037
:1020a8002c0037002140800030062000808f50002f
:1020b800030034001428ef009720a90025003700fa
:1020c800eefc07000000e0001f003a0040408000de
:1020d8000000e800404088000428ef0020002000ad
:1020e800a04088001b0037002140800030062000f7
:1020f800808f5000030034001428ef009720a900b7
:10210800140037004140800030418000808f50002b
:1021180004003a0010002000604088001428ef00f6
:102128000c003700d5fc07000000e0000800320072
:1021380010002000a04088009720a9000500370063
:102148000000000003003700000000000100370015
:10215800000000000080fa00000006000000fa00fd
:10216800b04080000000e00003003200e10f5000a2
:102178000d003200160037005116800000102000b4
:10218800008060000000e0000e003a00100020000f
:10219800b04088000228ef008000eb00a005200076
:1021a800070207000a003700114080003040800015
:1021b800808f5000050035001628ef00dafc070074
:1021c8000300370000000000010037000000000095
:1021d8000080fa00000006000000fa00c0408000fd
:1021e800e10f500023003200e10f500003003900d6
:1021f800e20f5000320032004b00370011408000df
:1022080030408000808f50000200350007fd070035
:102218000228ef000108800090d02300808f500032
:102228003a003600a2fc07000000e0000700320078
:1022380020002000c04088008000eb00a00520009e
:10224800df0107000021ef003700370098fc070086
:102258000000e0002f003a0010002000c040880075
:1022680011002000a0052000d50107000021ef0083
:102278002d0037001140800030408000808f5000d2
:102288000400350008fd07000228ef00e7fc0700fe
:10229800250037000108800090d02300808f50006f
:1022a8001e0036001828ef008000eb00a005200073
:1022b800c301070003fd07000021ef001a003700e3
:1022c8001140800030408000808f500004003500ad
:1022d800f5fc07000228ef00d4fc070012003700c5
:1022e8000108800090d02300808f50000d00360038
:1022f8001828ef0011002000a0052000b0010700f9
:10230800f0fc07000021ef00070037000000000084
:10231800050037000000000003003700000000003f
:1023280001003700000000000080fa0000000600ed
:102338000000fa0090408000e10f500007003200d2
:10234800e10f500003003900e20f50000a0032008c
:102358001400370001fd07001200370099fc070040
:102368002cfc07000000e0000b003200fbfc07001b
:102378001228ef000b0037000a28ef009efc070028
:1023880024fc07000000e00005003200f3fc070011
:102398001228ef000300370000000000010037009a
:1023a800000000000080fa00000006000000fa00ab
:1023b80080408000e20f500051003200e20f5000d0
:1023c80005003e000000e0000a003200e10f500066
:1023d80025003200e7003700e40f50009300320078
:1023e800e40f50006b003900e50f5000b4003200d4
:1023f800e00037000efd0700f9fb07000000e000d1
:102408000b00320003fc07000000e000040032006b
:102418002afd07001000200080408800d500370002
:102428006cfd07003000200080408800d100370094
:1024380005fc07000000e000c3003200f5fb0700c0
:102448000000e000040032003ffd070020002000eb
:1024580080408800c700370081fd07004000200049
:1024680080408800c30037001000200050408800da
:1024780012fd0700dafb07000000e0000700320049
:10248800e4fb07000000e000b1003a0051fd07003e
:102498003000200080408800b6003700eafb0700c3
:1024a8000000e0000b003200dafb07000000e0004b
:1024b8000400320024fd070020002000804088002e
:1024c800ac00370066fd070040002000804088000f
:1024d800a8003700cffb07000000e000030032002f
:1024e800d3fc07001028ef00a2003700500020009e
:1024f800804088005040800053fc07009d00370052
:102508000a28ef0010fd0700b5fb07000000e000f7
:102518000b003200bffb07000000e000040032009f
:10252800e6fc07001000200080408800910037007a
:1025380028fd070030002000804088008d0037000b
:10254800c1fb07000000e00007003200b1fb0700f4
:102558000000e00080003a0041fd07004000200034
:102568008040880083003700aafb07000000e000d5
:1025780003003200aefc07001028ef007d00370092
:102588005000200080408800504080002efc07004a
:102598007800370010002000504088000dfd07002b
:1025a8008ffb07000000e0000700320099fb0700de
:1025b8000000e0006a003200c0fc070010002000a4
:1025c800804088006b0037009ffb07000000e00098
:1025d8000b0032008ffb07000000e000040032000f
:1025e800d9fc0700200020008040880061003700e7
:1025f8001bfd070040002000804088005d00370078
:1026080084fb07000000e0000300320088fc07009c
:102618001028ef0057003700500020008040880045
:102628005040800008fc0700520037000a28ef00dd
:102638000bfd07006afb07000000e0000b003200fa
:1026480074fb07000000e000040032009bfc070058
:10265800100020008040880046003700ddfc07009d
:1026680030002000804088004200370076fb0700d9
:102678000000e0000700320066fb07000000e000f1
:1026880039003200b0fc070020002000804088009c
:10269800380037005ffb07000000e000030032004d
:1026a80063fc07001028ef003200370050002000bc
:1026b8008040880050408000e3fb07002d00370071
:1026c80047fb07000000e0000b00320051fb070049
:1026d8000000e0000400320078fc07001000200031
:1026e8008040880023003700bafc07003000200033
:1026f800804088001f00370053fb07000000e000ff
:102708000b00320043fb07000000e0000400320029
:102718008dfc07002000200080408800150037004d
:10272800cffc0700400020008040880011003700df
:1027380038fb07000000e0000d0032003cfc0700f9
:102748001028ef000b0037000000000009003700d8
:1027580000000000070037000000000005003700f7
:1027680000000000030037000000000001003700ef
:10277800000000000080fa00000006000000fa00d7
:10278800d04080000000e00003003200e10f50005c
:102798000b003200140037001140800030408000e8
:1027a800808f50000d00350011002000a00520008a
:1027b8008300070010002000d04088000a0037007e
:1027c8001140800030408000808f500005003500a7
:1027d800100020006040880003003700000000005f
:1027e80001003700000000000080fa000000060029
:1027f8000000fa00881f7800e0408000e30f5000d6
:102808003b003200e30f500005003e00e10f50008e
:102818001b003200e10f50002b003e00070037007c
:10282800e50f500045003200e50f5000390039002f
:10283800e60f50004b0032005e00370000088000b1
:102848008000eb00aff7070018c0b30002002500b6
:10285800335c24006af707000000e00001003d0037
:102868000044eb000804e00045003200100020009e
:10287800e04088006dfb07000021ef004d003700a5
:10288800000880008000eb009ef7070018c0b30026
:10289800020025003354240059f707000000e00027
:1028a80001003c000044eb000804e0003600320060
:1028b80020002000e04088008000eb005005200048
:1028c8003f0007003b003700114080003040800087
:1028d800808f50002e00350030002000e040880036
:1028e80011002000000f20006600070031003700ab
:1028f8001140800030408000808f50002600350055
:102908004afb070040002000e04088000021ef005b
:10291800280037000108800090d02300808f5000e5
:102928001f0036008000eb00000f20005500070054
:1029380050002000e04088001e0037001140800051
:1029480030408000808f50001700350011002000b3
:10295800000520001a00070060002000e040880001
:10296800140037001140800030408000808f5000f4
:102978000f00350010002000604088000d0037006f
:10298800000000000b0037000000000009003700bd
:1029980000000000070037000000000005003700b5
:1029a80000000000030037000000000001003700ad
:1029b800000000004f0478000080fa0000000600c4
:1029c8000400fa00000f78000e80e8000108780083
:1029d8001e007800cf80de0047f707000002be0027
:1029e800f0408000014180000001be000400be00ec
:1029f80049f8070004f70700000078003040880015
:102a080094c0a8000228ef0000772100f00c88008d
:102a180080bb2000000d880000772100400d880051
:102a280080bb2000500d88000e80e8001000780060
:102a380000407800614060000080fb006100600099
:102a4800211680000100a1000100700020168800f6
:102a58000e80e800100078000040780061406000b7
:102a68000080fb006100600000004000211680002b
:102a78000110a10001007000201688000080fa00f3
:102a8800000006000400fa00000f78000e80e8003d
:102a9800010878001e007800cf80de0016f70700d6
:102aa8000002be0010418000214180000001be00ec
:102ab8000400be0018f80700d3f6070000007800ed
:102ac800304088000228ef0094c0a8000077210059
:102ad800f00c880080bb2000000d880000772100e2
:102ae800400d880080bb2000500d88000e80e80053
:102af800100078000000e00003003200c402a800c3
:102b0800c422a90002003700c402a900c422a800f8
:082b18000080fa000000060035
:020000040000fa
:102b2000000800001e000000000000001e08000059
:102b30000a000000020000009a996900409a99007a
:0c2b40000940020000000000000000003e
:020000040000fa
:0200000401f009
:04000c00f8ff0000f9
:00000001FF
