:020000040000fa
:080000000002040000000000f2
:020000040000fa
:04000800fe020000f4
:020000040000fa
:04000c00fe020000f0
:020000040000fa
:04001000fe020000ec
:020000040000fa
:04001400fe020000e8
:020000040000fa
:04001800fe020000e4
:020000040000fa
:04001c00fe020000e0
:020000040000fa
:04002000fe020000dc
:020000040000fa
:04002400fe020000d8
:020000040000fa
:04002800fe020000d4
:020000040000fa
:04002c00fe020000d0
:020000040000fa
:04003000c802000002
:020000040000fa
:04003400fe020000c8
:020000040000fa
:04003800fe020000c4
:020000040000fa
:04003c00fe020000c0
:020000040000fa
:04004000da020000e0
:020000040000fa
:04004400fe020000b8
:020000040000fa
:04004800fe020000b4
:020000040000fa
:04004c00fe020000b0
:020000040000fa
:04005000fe020000ac
:020000040000fa
:04005400fe020000a8
:020000040000fa
:04005800fe020000a4
:020000040000fa
:04005c00fe020000a0
:020000040000fa
:04006000fe0200009c
:020000040000fa
:04006400fe02000098
:020000040000fa
:04006800fe02000094
:020000040000fa
:04006c00fe02000090
:020000040000fa
:04007000fe0200008c
:020000040000fa
:04007400fe02000088
:020000040000fa
:04007800fe02000084
:020000040000fa
:04007c00fe02000080
:020000040000fa
:04008000fe0200007c
:020000040000fa
:04008400fe02000078
:020000040000fa
:04008800fe02000074
:020000040000fa
:04008c00ec02000082
:020000040000fa
:04009000fe0200006c
:020000040000fa
:04009400fe02000068
:020000040000fa
:04009800fe02000064
:020000040000fa
:04009c00fe02000060
:020000040000fa
:0400a000fe0200005c
:020000040000fa
:0400a400fe02000058
:020000040000fa
:0400a800fe02000054
:020000040000fa
:0400ac00fe02000050
:020000040000fa
:0400b000fe0200004c
:020000040000fa
:0400b400fe02000048
:020000040000fa
:0400b800fe02000044
:020000040000fa
:0400bc00fe02000040
:020000040000fa
:0400c000fe0200003c
:020000040000fa
:0400c400fe02000038
:020000040000fa
:0400c800fe02000034
:020000040000fa
:0400cc00fe02000030
:020000040000fa
:0400d000fe0200002c
:020000040000fa
:0400d400fe02000028
:020000040000fa
:0400d800fe02000024
:020000040000fa
:0400dc00fe02000020
:020000040000fa
:0400e000fe0200001c
:020000040000fa
:0400e400fe02000018
:020000040000fa
:0400e800fe02000014
:020000040000fa
:0400ec00fe02000010
:020000040000fa
:0400f000fe0200000c
:020000040000fa
:0400f400fe02000008
:020000040000fa
:0400f800fe02000004
:020000040000fa
:0400fc00fe02000000
:020000040000fa
:04010000fe020000fb
:020000040000fa
:04010400fe020000f7
:020000040000fa
:04010800fe020000f3
:020000040000fa
:04010c00fe020000ef
:020000040000fa
:04011000fe020000eb
:020000040000fa
:04011400fe020000e7
:020000040000fa
:04011800fe020000e3
:020000040000fa
:04011c00fe020000df
:020000040000fa
:04012000fe020000db
:020000040000fa
:04012400fe020000d7
:020000040000fa
:04012800fe020000d3
:020000040000fa
:04012c00fe020000cf
:020000040000fa
:04013000fe020000cb
:020000040000fa
:04013400fe020000c7
:020000040000fa
:04013800fe020000c3
:020000040000fa
:04013c00fe020000bf
:020000040000fa
:04014000fe020000bb
:020000040000fa
:04014400fe020000b7
:020000040000fa
:04014800fe020000b3
:020000040000fa
:04014c00fe020000af
:020000040000fa
:04015000fe020000ab
:020000040000fa
:04015400fe020000a7
:020000040000fa
:04015800fe020000a3
:020000040000fa
:04015c00fe0200009f
:020000040000fa
:04016000fe0200009b
:020000040000fa
:04016400fe02000097
:020000040000fa
:04016800fe02000093
:020000040000fa
:04020800fe020000f2
:020000040000fa
:04020c00fe020000ee
:020000040000fa
:04021000fe020000ea
:020000040000fa
:04021400fe020000e6
:020000040000fa
:04021800fe020000e2
:020000040000fa
:04021c00fe020000de
:020000040000fa
:04022000fe020000da
:020000040000fa
:04022400fe020000d6
:020000040000fa
:04022800fe020000d2
:020000040000fa
:04022c00fe020000ce
:020000040000fa
:04023000c802000000
:020000040000fa
:04023400fe020000c6
:020000040000fa
:04023800fe020000c2
:020000040000fa
:04023c00fe020000be
:020000040000fa
:04024000da020000de
:020000040000fa
:04024400fe020000b6
:020000040000fa
:04024800fe020000b2
:020000040000fa
:04024c00fe020000ae
:020000040000fa
:04025000fe020000aa
:020000040000fa
:04025400fe020000a6
:020000040000fa
:04025800fe020000a2
:020000040000fa
:04025c00fe0200009e
:020000040000fa
:04026000fe0200009a
:020000040000fa
:04026400fe02000096
:020000040000fa
:04026800fe02000092
:020000040000fa
:04026c00fe0200008e
:020000040000fa
:04027000fe0200008a
:020000040000fa
:04027400fe02000086
:020000040000fa
:04027800fe02000082
:020000040000fa
:04027c00fe0200007e
:020000040000fa
:04028000fe0200007a
:020000040000fa
:04028400fe02000076
:020000040000fa
:04028800fe02000072
:020000040000fa
:04028c00ec02000080
:020000040000fa
:04029000fe0200006a
:020000040000fa
:04029400fe02000066
:020000040000fa
:04029800fe02000062
:020000040000fa
:04029c00fe0200005e
:020000040000fa
:0402a000fe0200005a
:020000040000fa
:0402a400fe02000056
:020000040000fa
:0402a800fe02000052
:020000040000fa
:0402ac00fe0200004e
:020000040000fa
:0402b000fe0200004a
:020000040000fa
:0402b400fe02000046
:020000040000fa
:0402b800fe02000042
:020000040000fa
:0402bc00fe0200003e
:020000040000fa
:0402c000fe0200003a
:020000040000fa
:0402c400fe02000036
:020000040000fa
:0402c800fe02000032
:020000040000fa
:0402cc00fe0200002e
:020000040000fa
:0402d000fe0200002a
:020000040000fa
:0402d400fe02000026
:020000040000fa
:0402d800fe02000022
:020000040000fa
:0402dc00fe0200001e
:020000040000fa
:0402e000fe0200001a
:020000040000fa
:0402e400fe02000016
:020000040000fa
:0402e800fe02000012
:020000040000fa
:0402ec00fe0200000e
:020000040000fa
:0402f000fe0200000a
:020000040000fa
:0402f400fe02000006
:020000040000fa
:0402f800fe02000002
:020000040000fa
:0402fc00fe020000fe
:020000040000fa
:04030000fe020000f9
:020000040000fa
:04030400fe020000f5
:020000040000fa
:04030800fe020000f1
:020000040000fa
:04030c00fe020000ed
:020000040000fa
:04031000fe020000e9
:020000040000fa
:04031400fe020000e5
:020000040000fa
:04031800fe020000e1
:020000040000fa
:04031c00fe020000dd
:020000040000fa
:04032000fe020000d9
:020000040000fa
:04032400fe020000d5
:020000040000fa
:04032800fe020000d1
:020000040000fa
:04032c00fe020000cd
:020000040000fa
:04033000fe020000c9
:020000040000fa
:04033400fe020000c5
:020000040000fa
:04033800fe020000c1
:020000040000fa
:04033c00fe020000bd
:020000040000fa
:04034000fe020000b9
:020000040000fa
:04034400fe020000b5
:020000040000fa
:04034800fe020000b1
:020000040000fa
:04034c00fe020000ad
:020000040000fa
:04035000fe020000a9
:020000040000fa
:04035400fe020000a5
:020000040000fa
:04035800fe020000a1
:020000040000fa
:04035c00fe0200009d
:020000040000fa
:04036000fe02000099
:020000040000fa
:04036400fe02000095
:020000040000fa
:04036800fe02000091
:020000040000fa
:100400006f8120000eff20000e0188000000000018
:10041000000020000000e000020032000001200087
:100420002002880014000700760007000000e000aa
:1004300003003a00a0c020000100200002003700a5
:100440000000200001002000810f70000100320038
:1004500014000700000020000000e000020032004d
:100460000000020000000000b608020000000000ca
:100470000040da000000fe004440a9000000200017
:100480000000e0000300320000002000a00188000e
:100490004440a800000006008a1f78008b1f7800e7
:1004a0000000060091018800800478000000eb0045
:1004b0001a003700e284440032a0b4009905ba0063
:1004c000e284440032a0b4009906ba00e2844400f9
:1004d00032a0b4000006eb00476fde00fd07b2005b
:1004e000636ce10003003a00ebff07000000eb0043
:1004f0000a003700606ce10004003a00005deb0088
:100500008b05e900fdff3e00040037006168e10053
:10051000010032000086eb000b00070019c7ba008b
:100520001905ba000e04e00003003a000a00e000da
:10053000e0ff3a0000000600fe07b2009e018800be
:100540008a047800f5ff3700395dba008b05e900b1
:100550000c003200295dba008b05e900080032006a
:100560000c00e00003003a00e284440032a0b40032
:10057000f5ff370019ddba008b05e900faff3a00f4
:100580008904e800e184440032a0b40000000600c1
:10059000801f78000000fa008440a900004080001d
:1005a0000000e800004088000080fa004f0078005a
:1005b00000400600801f78000000fa0084c0a900f7
:1005c000104080000000e800104088000080fa0021
:1005d0004f00780000400600801f78000000fa00fd
:1005e0008720a900204080000000e800204088000b
:1005f0000080fa004f007800004006000040da005a
:100600000000fe00000005000001be0022000700ff
:100610000470a70003f0a1006509b10016003200c4
:100620000d0035006828e10006003500f0ff2f00be
:10063000f1ff27000300e00013003b000100280049
:100640000000050000004000818048008502e900ac
:10065000fcff3a0008003700f88f420002003c001f
:100660008000eb00000005008100d1000080d30075
:100670008502e800fcff3a000300e00002003b00b6
:1006800060001000e0801800000006004f89de00c6
:100690008201780017013700c70ade00f107b200b7
:1006a000f50fb20008003200e1cf42000200320034
:1006b0000170a00024000500810f700001003200cd
:1006c0000408050044000500810f700002003a0094
:1006d000140005008502e9000000400081c04800c8
:1006e000fcff3b000170a0002400050003836800ac
:1006f0000700280007036300470ade000480a1000a
:10070000c71ade000580a100f70f20000720e100d6
:10071000420032000728e10040003200889fbe00fe
:100720008a9fbe008c1f7800f107b200f307b20069
:100730000400e000640032000170a0000500e00049
:10074000680032000370a00085054200eb07b1008d
:100750000204b8000302b8008484440060854a00a3
:10076000020ab800848444000a854a00030ab800db
:1007700004054500040033000804d0008984d20039
:100780000a85d2008b05e9006158e1003d00350083
:100790000210200009016100030820008981610026
:1007a000f70720008783640008867300c84cde00ca
:1007b000c853dd00878474004855de000300e00064
:1007c0000600320082037600040032008904e8004b
:1007d00060054d000a88a3000c003a00f70f2000c6
:1007e0000758e10044003d000a70a100c75ddd002c
:1007f0000a8575008a007300090078004f067800aa
:100800004f05be004f04be00000006000a05d100df
:100810008984d3008b05e800f0ff3700881f78003b
:100820000604780090000700070278000001fd0030
:100830008101fd008c0007008702780085037200ab
:100840000778a300050032000001fd008101fd00d2
:100850009f0007004f047800000006008503720027
:100860000748a30003003200f0ff2f00f1ff27002c
:10087000f8ff37000000200001f827008880700092
:10088000f4ff3700880178004848dd00808171005e
:100890004848de00c850dd0001007000c850de008e
:1008a000060478000b0178001600070088807000ad
:1008b000d2ff37000500e0000500320017002000dd
:1008c0003a0007009dff370081037000f9ff3a00ee
:1008d000860078004f0678004f05be004f04be002a
:1008e0000000050083037100f9ff3200270020009b
:1008f0002e00070094ff370001f827008680700063
:10090000f4ff37000100e000260032006101110011
:100910007810e10023003c006022b8007010e10074
:100920000400350080027800010078008000eb00b0
:10093000700151000200e000090034007003110052
:10094000062add00822ade008603dd00878272002f
:100950000200de00860bdd00070070008208de006a
:1009600084817100f4ff2700048262008481710099
:1009700004002800848262006102600005f0a60085
:100980000000060004827100070032000000e80049
:10099000e0804800000006000002be006000b800d1
:1009a000efff37006000b80000000600889fbe001f
:1009b0000004eb006138e10016003a000100e0009d
:1009c00008003a00c800de004800dd008800200072
:1009d0000100e00003003a00c800de004800dd002e
:1009e000680444008184cf00e98454000600340088
:1009f0008908dd00f08314008703de008780700023
:100a00000900dd0009044400610214004f04be0027
:100a1000000006000300e00008003a00c811de00f4
:100a20004811dd00880020000300e00003003a00c8
:100a3000c811de004811dd00680444008384cf0043
:100a4000e9845400060034008919dd00f0831400a5
:100a50008713de00878171000911dd00090444005d
:100a6000e1021400e9ff37002700200001f0a70091
:100a700017002000470bde00f60fb2000400320022
:100a80000643e8000a0032004702b30000000600f7
:100a900001037800f607b2000603700002003a0076
:100aa0000703b300000006008702b3000000060041
:100ab00001037800f607b20006037000020032005e
:100ac0000770a000000006000760a00000000600fc
:100ad0000478a300040032000578a300030032006c
:100ae0000168a30001003a000200be000160a000fe
:100af00000000600881f7800030478000300e0006f
:100b000007003d0060001000e0801800600119003f
:100b1000e081190002003b0001f02d0003003700c6
:100b20000400070008f0a70001f0a0004f047800bf
:100b300000000600889fbe008a9fbe0000827000f1
:100b40000402710004827100260032000004be001d
:100b50000200be006011b8006b0920009502200061
:100b60000182cf000a0039000541b1000082cf00a8
:100b7000070039000541b1000982cf0004003900a7
:100b80000541b1000882cf00010039000541b100e4
:100b900005425200120032000a003b0082817100bf
:100ba000610164008100d1000080d3008984d300fa
:100bb0000884d3008b05e8000442e800f7ff3a0000
:100bc000070037000804440089844c0000004800f6
:100bd000818048008b05e9000442e900f9ff3a00f2
:100be000030007004f05be004f04be0000000600d2
:100bf00081002000618055000b003d000b002000ab
:100c000061fe2f000100e1001d00340082817100af
:100c1000610164008904d1000884d3000000e80069
:100c2000faff3a00710020006100640003007000c8
:100c3000020060000900320061044400e0844c00be
:100c40000988a500050032008b05e8006808e1006e
:100c500002003a008904d1000884d300f20f20007a
:100c60000258e10005003d00c75ddd00f907b20054
:100c70008980750008007800000006000bf8270046
:080c80008b0078000000050064
:020000040000fa
:100c88000000fa009a21ef009c21ef00d10c8000af
:100c980000c0210001007000d00c8800e00c80002a
:100ca800f001b300e00c88009ce1a900d10c8000a1
:100cb80080ff2f00008060006000b300d00c880027
:100cc80031058000f08f2f000080600000a0a00098
:100cd8003005880094c0a80084c0a900a421ef00b2
:100ce800a621ef00210d800000c021000100700046
:100cf800200d8800300d8000f001b300300d880011
:100d0800a6e1a900210d800080ff2f00008060006f
:100d18006000b300200d880081058000f0f82f00e6
:100d2800008060000060a000800588009720a8006f
:100d38008720a900c002a900e004a900e024a900b6
:100d4800c022a9000080fa00000006000000fa0096
:100d580005e1a80021088000f0fc2f000080600059
:100d68000040a000200888000421a9000021ef000d
:100d78000080fa00000006000000fa0041e3a90024
:100d88004143a800011a8000f0cf2f0000806000c6
:100d9800001a8800011a8000f0f02f00808060009f
:100da8000007200001007000001a88004043a800d6
:100db800111a8000f0ff230000806000101a8800dc
:100dc80043a3a9004363a8004343a800111a800065
:100dd80030f82f00008060000040a000101a880042
:100de8004203a90045e3a900211a8000f00f2e0054
:100df800008060000080a000201a8800f0c3b300c3
:100e080044e3b700c842a800e244a8005083a80001
:100e1800c042a800e044a80051a3a800c062a800ee
:100e2800e064a80051c3a800c982a800e384a80010
:100e38005183a800c9a2a800e3a4a8005163a80090
:100e480041e3a8000080fa00000006000000fa0054
:100e5800c902a8000080fa00000006000000fa009d
:100e68009021ef009221ef00810c800000c021004a
:100e780001007000800c8800900c8000f001b30025
:100e8800900c880092e1a900810c800080ff2f005f
:100e9800008060006000b300800c8800210580009d
:100ea800f08f2f000080600000a0a00020058800bf
:100eb8009440a9009421ef009621ef000080fa00e9
:100ec800000006000200fa0041188000409c200043
:100ed800808f50000300360010002000000f7800bb
:100ee800020037000000eb00000f78001e007800b9
:100ef8000080fa00000006000200fa00d118800005
:100f0800409c2000808f5000030036001000200015
:100f1800000f7800020037000000eb00000f780097
:100f28001e0078000080fa00000006000200fa00a7
:100f3800e1188000409c2000808f5000030036009c
:100f480010002000000f7800020037000000eb00be
:100f5800000f78001e0078000080fa0000000600ec
:100f68000200fa00c1188000409c2000808f5000c9
:100f78000300360010002000000f78000200370040
:100f88000000eb00000f78001e0078000080fa00d7
:100f9800000006000200fa00b1188000409c200002
:100fa800808f50000300360010002000000f7800ea
:100fb800020037000000eb00000f78001e007800e8
:100fc8000080fa00000006000000fa00b0042000cb
:100fd800f00c880050022000000d8800b0042000aa
:100fe800400d880050022000500d8800c402a8005f
:100ff800c422a9000080fa00000006000000fa00e0
:1010080040062000f00c880020032000000d880016
:10101800b0042000400d880050022000500d8800c8
:10102800c402a800c422a9000080fa00000006003b
:101038000000fa00b0042000f00c880050022000e4
:10104800000d880040062000400d88002003200085
:10105800500d8800c402a800c422a9000080fa002c
:10106800000006000000fa0040102000f00c880084
:1010780020082000000d8800b0042000400d8800e2
:1010880050022000500d8800c402a800c422a90004
:101098000080fa00000006000000fa00b0042000fa
:1010a800f00c880050022000000d8800401020003d
:1010b800400d880020082000500d8800c402a800b8
:1010c800c422a9000080fa00000006000000fa000f
:1010d8009e21ef00a021ef00a821ef00aa21ef0038
:1010e8000080fa00000006000000fa000080fa0004
:1010f800000006000200fa00000f78001e007800c9
:1011080000407800614060000080fb0061006000e2
:101118004700dd00611680000170a1000100700029
:10112800601688000080fa00000006000000fa003f
:1011380030182000a00c8800e0012000b00c8800c6
:101148000080fa00000006000000fa0030182000b5
:10115800a00c8800a0002000b00c88000080fa00d5
:10116800000006000000fa00c5fe070002ff0700a5
:10117800f6fe070035ff070038ff07000a28ef00d2
:1011880091ff07000c28ef000e28ef001028ef0051
:10119800edff0700c8e2a90015010700feff3700b0
:1011a8000000fa0050408000e20f50004600320074
:1011b800e20f500005003e000000e0000800320089
:1011c800e10f500022003200aa003700e30f500060
:1011d8005b003200e40f500077003200a5003700b2
:1011e80038ff07000000e0000b00320042ff070054
:1011f8000000e0000400320080ff0700100020001b
:10120800504088009b00370096ff07003000200000
:10121800504088009700370044ff07000000e000b6
:101228008300320034ff07000000e00004003200b1
:101238007fff070020002000504088008d00370005
:1012480095ff0700400020005040880089003700c3
:101258001cff07000000e0000700320026ff07001f
:101268000000e00074003a007eff07003000200014
:10127800504088007f0037002cff07000000e00086
:101288000b0032001cff07000000e00004003200e1
:1012980067ff0700200020005040880075003700d5
:1012a8007dff070040002000504088007100370093
:1012b80011ff07000000e0006100320042ff070054
:1012c8000a28ef006b003700fefe07000000e00070
:1012d8000b00320008ff07000000e00004003200a5
:1012e80046ff0700100020005040880061003700ca
:1012f8005cff070030002000504088005d00370088
:101308000aff07000000e00007003200fafe0700ad
:101318000000e0004c003a005fff0700400020009a
:101328005040880053003700f3fe07000000e0003b
:101338004700320024ff07000a28ef004d0037005d
:10134800e0fe07000000e00007003200eafe0700a8
:101358000000e0004000320028ff070010002000d5
:101368005040880043003700f0fe07000000e0000e
:101378000b003200e0fe07000000e000040032002d
:101388002bff07002000200050408800390037005c
:1013980041ff07004000200050408800350037001a
:1013a800d5fe07000000e0002d00320006ff070010
:1013b8000a28ef002f003700c2fe07000000e000f7
:1013c8000b003200ccfe07000000e00004003200f1
:1013d8000aff070010002000504088002500370051
:1013e80020ff07003000200050408800210037000f
:1013f800cefe07000000e00007003200befe070036
:101408000000e0001800320009ff0700200020005b
:101418005040880017003700b7fe07000000e000c2
:1014280013003200e8fe07000a28ef001100370019
:10143800000000000f003700000000000d0037001a
:10144800000000000b003700000000000900370012
:10145800000000000700370000000000050037000a
:101468000000000003003700000000000100370002
:10147800000000000080fa00000006000000fa00ea
:1014880060408000e10f50000e003200e10f500074
:1014980003003900e20f50001b0032003300370010
:1014a800affe07000000e0002b0032001000200013
:1014b800604088000228ef0094c0a8000828ef00c8
:1014c8002a00370011408000b0122000808f5000a1
:1014d800030034000c28ef0094c0a9002300370053
:1014e8009ffe07000000e0001d003a004040800019
:1014f8000000e800404088000228ef00200020009b
:10150800604088001900370011408000b0122000a8
:10151800808f5000030034000c28ef0094c0a9000d
:101528001200370040408000e30f500003003a00eb
:10153800a021ef00aa21ef000c00370088fe070069
:101548000000e00008003200100020006040880021
:1015580094c0a90005003700000000000300370010
:101568000000000001003700000000000080fa00c1
:10157800000006000000fa00704080000000e00053
:1015880003003200e10f50000d0032001600370052
:101598005116800000102000008060000000e0006c
:1015a8000e003a0010002000704088000228ef006a
:1015b8008000eb00a0052000630007000a00370048
:1015c8001140800030408000808f500005003500b9
:1015d8000e28ef007cfe0700030037000000000023
:1015e80001003700000000000080fa00000006003b
:1015f8000000fa0080408000e10f50002300320014
:10160800e10f500003003900e20f500032003200b1
:101618004b0037001140800030408000808f500020
:1016280002003500a9fe07000228ef00010880002b
:10163800606b2100808f50003a00360055fe07008d
:101648000000e000070032002000200080408800f1
:101658008000eb00a00520003b0007000021ef0000
:10166800370037004bfe07000000e0002f003a006b
:10167800100020008040880011002000a0052000f4
:10168800310007000021ef002d00370011408000d5
:1016980030408000808f500004003500a3fe070012
:1016a8000228ef0089fe07002500370001088000a6
:1016b800606b2100808f50001e0036001028ef005c
:1016c8008000eb00a00520001f0007009efe070019
:1016d8000021ef001a0037001140800030408000e0
:1016e800808f50000400350090fe07000228ef00ac
:1016f80076fe07001200370001088000606b2100a9
:10170800808f50000d0036001028ef0011002000d7
:10171800a00520000c0007008bfe07000021ef0049
:101728000700370000000000050037000000000037
:10173800030037000000000001003700000000002f
:101748000080fa00000006000400fa00000f78008c
:101758000e80e800010878001e007800cf80de00c7
:10176800c8fb07000002be0090408000a140800036
:101778000001be000400be00dafb0700a0fb070062
:10178800000078003040880094c0a8000228ef00cc
:1017980040062000f00c880020032000000d88007f
:1017a80040062000400d880020032000500d8800ce
:1017b8000e80e8001000780000407800614060006a
:1017c8000080fb0061006000211680000100a1007c
:1017d80001007000201688000e80e80010007800d4
:1017e80000407800614060000080fb0061006000fc
:1017f80000004000211680000110a10001007000c7
:0c180800201688000080fa000000060096
:020000040000fa
:101814000008000012000000000000001208000090
:101824000400000002000000841fe2003f000000ea
:0418340000000000b0
:020000040000fa
:0200000401f009
:04000c00fdff0000f4
:00000001FF
