:020000040000fa
:080000000002040000000000f2
:020000040000fa
:04000800fe020000f4
:020000040000fa
:04000c00fe020000f0
:020000040000fa
:04001000fe020000ec
:020000040000fa
:04001400fe020000e8
:020000040000fa
:04001800fe020000e4
:020000040000fa
:04001c00fe020000e0
:020000040000fa
:04002000fe020000dc
:020000040000fa
:04002400fe020000d8
:020000040000fa
:04002800fe020000d4
:020000040000fa
:04002c00fe020000d0
:020000040000fa
:04003000c802000002
:020000040000fa
:04003400fe020000c8
:020000040000fa
:04003800fe020000c4
:020000040000fa
:04003c00fe020000c0
:020000040000fa
:04004000da020000e0
:020000040000fa
:04004400fe020000b8
:020000040000fa
:04004800fe020000b4
:020000040000fa
:04004c00fe020000b0
:020000040000fa
:04005000fe020000ac
:020000040000fa
:04005400fe020000a8
:020000040000fa
:04005800fe020000a4
:020000040000fa
:04005c00fe020000a0
:020000040000fa
:04006000fe0200009c
:020000040000fa
:04006400fe02000098
:020000040000fa
:04006800fe02000094
:020000040000fa
:04006c00fe02000090
:020000040000fa
:04007000fe0200008c
:020000040000fa
:04007400fe02000088
:020000040000fa
:04007800fe02000084
:020000040000fa
:04007c00fe02000080
:020000040000fa
:04008000fe0200007c
:020000040000fa
:04008400fe02000078
:020000040000fa
:04008800fe02000074
:020000040000fa
:04008c00ec02000082
:020000040000fa
:04009000fe0200006c
:020000040000fa
:04009400fe02000068
:020000040000fa
:04009800fe02000064
:020000040000fa
:04009c00fe02000060
:020000040000fa
:0400a000fe0200005c
:020000040000fa
:0400a400fe02000058
:020000040000fa
:0400a800fe02000054
:020000040000fa
:0400ac00fe02000050
:020000040000fa
:0400b000fe0200004c
:020000040000fa
:0400b400fe02000048
:020000040000fa
:0400b800fe02000044
:020000040000fa
:0400bc00fe02000040
:020000040000fa
:0400c000fe0200003c
:020000040000fa
:0400c400fe02000038
:020000040000fa
:0400c800fe02000034
:020000040000fa
:0400cc00fe02000030
:020000040000fa
:0400d000fe0200002c
:020000040000fa
:0400d400fe02000028
:020000040000fa
:0400d800fe02000024
:020000040000fa
:0400dc00fe02000020
:020000040000fa
:0400e000fe0200001c
:020000040000fa
:0400e400fe02000018
:020000040000fa
:0400e800fe02000014
:020000040000fa
:0400ec00fe02000010
:020000040000fa
:0400f000fe0200000c
:020000040000fa
:0400f400fe02000008
:020000040000fa
:0400f800fe02000004
:020000040000fa
:0400fc00fe02000000
:020000040000fa
:04010000fe020000fb
:020000040000fa
:04010400fe020000f7
:020000040000fa
:04010800fe020000f3
:020000040000fa
:04010c00fe020000ef
:020000040000fa
:04011000fe020000eb
:020000040000fa
:04011400fe020000e7
:020000040000fa
:04011800fe020000e3
:020000040000fa
:04011c00fe020000df
:020000040000fa
:04012000fe020000db
:020000040000fa
:04012400fe020000d7
:020000040000fa
:04012800fe020000d3
:020000040000fa
:04012c00fe020000cf
:020000040000fa
:04013000fe020000cb
:020000040000fa
:04013400fe020000c7
:020000040000fa
:04013800fe020000c3
:020000040000fa
:04013c00fe020000bf
:020000040000fa
:04014000fe020000bb
:020000040000fa
:04014400fe020000b7
:020000040000fa
:04014800fe020000b3
:020000040000fa
:04014c00fe020000af
:020000040000fa
:04015000fe020000ab
:020000040000fa
:04015400fe020000a7
:020000040000fa
:04015800fe020000a3
:020000040000fa
:04015c00fe0200009f
:020000040000fa
:04016000fe0200009b
:020000040000fa
:04016400fe02000097
:020000040000fa
:04016800fe02000093
:020000040000fa
:04020800fe020000f2
:020000040000fa
:04020c00fe020000ee
:020000040000fa
:04021000fe020000ea
:020000040000fa
:04021400fe020000e6
:020000040000fa
:04021800fe020000e2
:020000040000fa
:04021c00fe020000de
:020000040000fa
:04022000fe020000da
:020000040000fa
:04022400fe020000d6
:020000040000fa
:04022800fe020000d2
:020000040000fa
:04022c00fe020000ce
:020000040000fa
:04023000c802000000
:020000040000fa
:04023400fe020000c6
:020000040000fa
:04023800fe020000c2
:020000040000fa
:04023c00fe020000be
:020000040000fa
:04024000da020000de
:020000040000fa
:04024400fe020000b6
:020000040000fa
:04024800fe020000b2
:020000040000fa
:04024c00fe020000ae
:020000040000fa
:04025000fe020000aa
:020000040000fa
:04025400fe020000a6
:020000040000fa
:04025800fe020000a2
:020000040000fa
:04025c00fe0200009e
:020000040000fa
:04026000fe0200009a
:020000040000fa
:04026400fe02000096
:020000040000fa
:04026800fe02000092
:020000040000fa
:04026c00fe0200008e
:020000040000fa
:04027000fe0200008a
:020000040000fa
:04027400fe02000086
:020000040000fa
:04027800fe02000082
:020000040000fa
:04027c00fe0200007e
:020000040000fa
:04028000fe0200007a
:020000040000fa
:04028400fe02000076
:020000040000fa
:04028800fe02000072
:020000040000fa
:04028c00ec02000080
:020000040000fa
:04029000fe0200006a
:020000040000fa
:04029400fe02000066
:020000040000fa
:04029800fe02000062
:020000040000fa
:04029c00fe0200005e
:020000040000fa
:0402a000fe0200005a
:020000040000fa
:0402a400fe02000056
:020000040000fa
:0402a800fe02000052
:020000040000fa
:0402ac00fe0200004e
:020000040000fa
:0402b000fe0200004a
:020000040000fa
:0402b400fe02000046
:020000040000fa
:0402b800fe02000042
:020000040000fa
:0402bc00fe0200003e
:020000040000fa
:0402c000fe0200003a
:020000040000fa
:0402c400fe02000036
:020000040000fa
:0402c800fe02000032
:020000040000fa
:0402cc00fe0200002e
:020000040000fa
:0402d000fe0200002a
:020000040000fa
:0402d400fe02000026
:020000040000fa
:0402d800fe02000022
:020000040000fa
:0402dc00fe0200001e
:020000040000fa
:0402e000fe0200001a
:020000040000fa
:0402e400fe02000016
:020000040000fa
:0402e800fe02000012
:020000040000fa
:0402ec00fe0200000e
:020000040000fa
:0402f000fe0200000a
:020000040000fa
:0402f400fe02000006
:020000040000fa
:0402f800fe02000002
:020000040000fa
:0402fc00fe020000fe
:020000040000fa
:04030000fe020000f9
:020000040000fa
:04030400fe020000f5
:020000040000fa
:04030800fe020000f1
:020000040000fa
:04030c00fe020000ed
:020000040000fa
:04031000fe020000e9
:020000040000fa
:04031400fe020000e5
:020000040000fa
:04031800fe020000e1
:020000040000fa
:04031c00fe020000dd
:020000040000fa
:04032000fe020000d9
:020000040000fa
:04032400fe020000d5
:020000040000fa
:04032800fe020000d1
:020000040000fa
:04032c00fe020000cd
:020000040000fa
:04033000fe020000c9
:020000040000fa
:04033400fe020000c5
:020000040000fa
:04033800fe020000c1
:020000040000fa
:04033c00fe020000bd
:020000040000fa
:04034000fe020000b9
:020000040000fa
:04034400fe020000b5
:020000040000fa
:04034800fe020000b1
:020000040000fa
:04034c00fe020000ad
:020000040000fa
:04035000fe020000a9
:020000040000fa
:04035400fe020000a5
:020000040000fa
:04035800fe020000a1
:020000040000fa
:04035c00fe0200009d
:020000040000fa
:04036000fe02000099
:020000040000fa
:04036400fe02000095
:020000040000fa
:04036800fe02000091
:020000040000fa
:10040000ef8220000eff20000e0188000000000097
:10041000000020000000e000020032000001200087
:100420002002880014000700760007000000e000aa
:1004300003003a002065210001002000020037007f
:100440000000200001002000810f70000100320038
:1004500014000700000020000000e000020032004d
:1004600000000200000000004a0e02000000000030
:100470000040da000000fe004440a9000000200017
:100480000000e0000300320000002000a00188000e
:100490004440a800000006008a1f78008b1f7800e7
:1004a0000000060091018800800478000000eb0045
:1004b0001a003700e284440032a0b4009905ba0063
:1004c000e284440032a0b4009906ba00e2844400f9
:1004d00032a0b4000006eb00476fde00fd07b2005b
:1004e000636ce10003003a00ebff07000000eb0043
:1004f0000a003700606ce10004003a00005deb0088
:100500008b05e900fdff3e00040037006168e10053
:10051000010032000086eb000b00070019c7ba008b
:100520001905ba000e04e00003003a000a00e000da
:10053000e0ff3a0000000600fe07b2009e018800be
:100540008a047800f5ff3700395dba008b05e900b1
:100550000c003200295dba008b05e900080032006a
:100560000c00e00003003a00e284440032a0b40032
:10057000f5ff370019ddba008b05e900faff3a00f4
:100580008904e800e184440032a0b40000000600c1
:10059000801f78000000fa008440a900004080001d
:1005a0000000e800004088000080fa004f0078005a
:1005b00000400600801f78000000fa0084c0a900f7
:1005c000104080000000e800104088000080fa0021
:1005d0004f00780000400600801f78000000fa00fd
:1005e0008720a900204080000000e800204088000b
:1005f0000080fa004f007800004006000040da005a
:100600000000fe0000000500f4ff2f004602370046
:100610000001be003f0007000470a70003f0a10026
:100620006509b100160032000d0035006828e100b0
:1006300006003500f0ff2f00f1ff27000300e00067
:1006400013003b00010028000000050000004000ee
:10065000818048008502e900fcff3a00080037006d
:10066000f88f420002003c008000eb000000050013
:100670008100d1000080d3008502e800fcff3a0031
:100680000300e00002003b0060001000e080180062
:10069000000006000001be001e0007000470a70055
:1006a00003f0a10003f8a30013003a006509b100ac
:1006b00010003200090035006928e1000200350011
:1006c0000100280000000500000040008180480073
:1006d0008502e900fcff3a0000000600f88f4200a6
:1006e000050035008100d1000080d3008502e800bc
:1006f000fcff3a00000006008000eb00000005004f
:100700004f89de0082017800220237006011b800b4
:1007100030023700c70ade00f107b200f50fb20061
:1007200008003200e1cf4200020032000170a00058
:1007300024000500810f700001003200040805004c
:1007400044000500810f700002003a00140005000b
:100750008502e9000000400081c04800fcff3b002a
:100760000170a0002400050007f82700078361003e
:100770000638e10004003a00f70720008783610093
:100780008703710001003a0003f0a200889fbe00b9
:100790008a9fbe008c9fbe00470ade000480a10035
:1007a000c71ade000580a100070028000785600049
:1007b00087856100f70f20000720e1009e003200ce
:1007c0000728e1009c003200010678000400e000e8
:1007d000b4003200f7072000878060000170a0009d
:1007e0000500e000c0003200f707200087816100ab
:1007f0000370a000050652000f003a000b50e10004
:100800000b0032000308e10002003a000200e100a0
:100810007e0032000204500083845800040031003e
:100820000001fd008101fd008402fd008a05fd003c
:100830006044b800210037000520e10005003d00bc
:100840000001fd008101fd008402fd008a05fd001c
:10085000050652007a60e100050035000170a10034
:100860004722dd00848070008a80700063003700ba
:100870006044b800ef02660007ff2f00070666001d
:100880000500e00006003400f08312008714dd004c
:100890000511de00071bdd00060171008519de0071
:1008a0007060e100050035000904780082047800da
:1008b000030178008001eb00700656000b50e10048
:1008c00003003a0002004000838048000400370023
:1008d00060041400e0841c0002005800838058006b
:1008e0000188a300060032008100d1000080d300ff
:1008f0008984d3000884d3000402e800270037006d
:100900000178a30025003a000100e0000300320056
:100910008186cf00698656000a0037008c002000cf
:100920000000e00004003a00090078008804780024
:100930000004eb00700252008086cf000d064600d6
:100940000c06e9007060e1000600350080007800c8
:1009500009007800880478000004eb007006560057
:10096000700252000c00e0000c0034008c08dd0026
:10097000f00316000703de00868070000c00dd0027
:10098000074bde00060070008c4cdd000743de00e4
:10099000868474000c44dd000c0252006120e100ea
:1009a0002000350061016000070028008781640095
:1009b000f7ff270087836400070374000300e0004b
:1009c0000600320082037300040032000000e800d9
:1009d000e08048000188a3000e003a00f70f2000d5
:1009e0000720e1004a003d000170a1004722dd0020
:1009f000810072008a8070000000be004f06be00b9
:100a00004f05be004f04be00000006006000b800a5
:100a1000faff37008100d1000080d3000402e80013
:100a2000eeff37000401780089017400c20007005e
:100a30008a807000f1ff3700180107000702780074
:100a40000001fd008101fd0014010700870278000c
:100a5000850372000778a300040032000001fd0046
:100a60008101fd0027010700e4ff370085036200d4
:100a70000768a300080032000b50e10003003200b9
:100a8000f0ff2f00f1ff2700dcff37000001fd0021
:100a90008101fd00d9ff37000468a300d7ff3200b1
:100aa000faff3700f8ff2700888360000b003a0048
:100ab0000000e00009003a008303640082837300b1
:100ac000020032000200be00ccff37000b50e100f4
:100ad000ceff3a000200be00c8ff3700140020001d
:100ae000810064003eff3700f8ff27008883610023
:100af00004003a000200e00002003a008c00780096
:100b0000beff3700150020008301640039ff370065
:100b100001f827000000200081007500b7ff3700b2
:100b2000038368000700280007036300470ade000c
:100b30000480a100c71ade000580a100f70f200085
:100b40000720e100420032000728e10040003200a7
:100b5000889fbe008a9fbe008c1f7800f107b200fc
:100b6000f307b2000400e000640032000170a0004e
:100b70000500e000680032000370a0008505420017
:100b8000eb07b1000204b8000302b80084844400fb
:100b900060854a00020ab800848444000a854a003d
:100ba000030ab80004054500040033000804d0001f
:100bb0008984d2000a85d2008b05e9006158e100e2
:100bc0003d003500021020000901610003082000eb
:100bd00089816100f707200087836400088673001d
:100be000c84cde00c853dd00878474004855de0021
:100bf0000300e000060032008203760004003200a9
:100c00008904e80060054d000a88a3000c003a0042
:100c1000f70f20000758e10044003d000a70a100d2
:100c2000c75ddd000a8575008a0073000900780041
:100c30004f0678004f05be004f04be0000000600be
:100c40000a05d1008984d3008b05e800f0ff370046
:100c5000881f7800060478009000070007027800db
:100c60000001fd008101fd008c0007008702780073
:100c7000850372000778a300050032000001fd0023
:100c80008101fd009f0007004f047800000006006e
:100c9000850372000748a30003003200f0ff2f0015
:100ca000f1ff2700f8ff37000000200001f82700bf
:100cb00088807000f4ff3700880178004848dd0024
:100cc000808171004848de00c850dd0001007000de
:100cd000c850de00060478000b01780016000700fb
:100ce00088807000d2ff37000500e0000500320068
:100cf000170020003a0007009dff370081037000b5
:100d0000f9ff3a00860078004f0678004f05be00d4
:100d10004f04be000000050083037100f9ff32009c
:100d2000270020002e00070094ff370001f827005d
:100d300086807000f4ff37000100e00026003200da
:100d4000610111007810e10023003c006022b8002e
:100d50007010e10004003500800278000100780086
:100d60008000eb00700151000200e0000900340037
:100d700070031100062add00822ade008603dd00f2
:100d8000878272000200de00860bdd000700700023
:100d90008208de0084817100f4ff27000482620073
:100da0008481710004002800848262006102600076
:100db00005f0a60000000600048271000700320062
:100dc0000000e800e0804800000006000002be00cd
:100dd0006000b800efff37006000b80000000600b8
:100de000889fbe000004eb006138e10016003a0065
:100df0000100e00008003a00c800de004800dd0005
:100e0000880020000100e00003003a00c800de0076
:100e10004800dd00680444008184cf00e984540068
:100e2000060034008908dd00f08314008703de002b
:100e3000878070000900dd0009044400610214008d
:100e40004f04be00000006000300e00008003a0066
:100e5000c811de004811dd00880020000300e0001a
:100e600003003a00c811de004811dd0068044400a8
:100e70008384cf00e9845400060034008919dd0022
:100e8000f08314008713de00878171000911dd00f3
:100e900009044400e1021400e9ff370027002000a4
:100ea00001f0a70017002000470bde00f60fb2008c
:100eb000040032000643e8000a0032004702b30093
:100ec0000000060001037800f607b2000603700078
:100ed00002003a000703b300000006008702b300d7
:100ee0000000060001037800f607b2000603700058
:100ef000020032000770a000000006000760a0009a
:100f0000000006000478a300040032000578a30066
:100f1000030032000168a30001003a000200be0095
:100f20000160a00000000600889fbe008a9fbe00ee
:100f3000841f78007c0007004f0078001100330008
:100f4000f0ff2f00838f6c0006003b000405650056
:100f50000a00a7000800370009f0a60010002000d2
:100f600008003700820f5400838f5c0003003900b3
:100f70001000200001003e000000200009f0a70042
:100f80000000ea004f05be004f04be000000e00074
:100f900000000600881f7800030478000300e000ca
:100fa00007003d0060001000e0801800600119009b
:100fb000e081190002003b0001f02d000300370022
:100fc0000400070008f0a70001f0a0004f0478001b
:100fd00000000600889fbe008a9fbe00008270004d
:100fe0000402710004827100260032000004be0079
:100ff0000200be006011b8006b09200095022000bd
:101000000182cf000a0039000541b1000082cf0003
:10101000070039000541b1000982cf000400390002
:101020000541b1000882cf00010039000541b1003f
:1010300005425200120032000a003b00828171001a
:10104000610164008100d1000080d3008984d30055
:101050000884d3008b05e8000442e800f7ff3a005b
:10106000070037000804440089844c000000480051
:10107000818048008b05e9000442e900f9ff3a004d
:10108000030007004f05be004f04be00000006002d
:1010900081002000618055000b003d000b00200006
:1010a00061fe2f000100e1001d003400828171000b
:1010b000610164008904d1000884d3000000e800c5
:1010c000faff3a0071002000610064000300700024
:1010d000020060000900320061044400e0844c001a
:1010e0000988a500050032008b05e8006808e100ca
:1010f00002003a008904d1000884d300f20f2000d6
:101100000258e10005003d00c75ddd00f907b200af
:101110008980750008007800000006000bf82700a1
:101120008b007800000005000004be0079fd070078
:101130000003be000405be000200be0075fd0700ee
:08114000844f75000000060059
:020000040000fa
:101148000000fa009a21ef009c21ef00d10c8000ea
:1011580000c0210001007000d00c8800e00c800065
:10116800f001b300e00c88009ce1a900d10c8000dc
:1011780080ff2f00008060006000b300d00c880062
:1011880031058000f08f2f00808060000050200023
:10119800010070003005880094c0a80084c0a90030
:1011a800a421ef00a621ef00210d800000c021003e
:1011b80001007000200d8800300d8000f001b300a0
:1011c800300d8800a6e1a900210d800080ff2f00c6
:1011d800008060006000b300200d88008105800059
:1011e800f0f82f00008060000060a00080058800f3
:1011f8009720a8008720a900c002a900e004a90040
:10120800e024a900c022a9000080fa00000006001e
:101218000000fa0005e1a800210880000003200072
:1012280001007000200888000421a9000021ef00b7
:101238000080fa00000006000000fa0041e3a9005f
:101248004143a800011a8000f0cf2f000080600001
:10125800001a8800011a8000f0f02f0080806000da
:101268000007200001007000001a88004043a80011
:10127800111a8000f0ff230000806000101a880017
:1012880043a3a9004363a8004343a800111a8000a0
:1012980030f82f00008060008001b300101a880029
:1012a8004203a90045e3a900211a8000f00f2e008f
:1012b800008060000080a000201a8800f0c3b300fe
:1012c80044e3b7000080fa00000006000000fa00be
:1012d800c842a800e244a8005083a800c042a80061
:1012e800e044a80051a3a800c062a800e064a800d8
:1012f80051c3a800c982a800e384a8005183a800ac
:10130800c9a2a800e3a4a8005163a800c9c2a80004
:10131800e3c4a8005143a8000080fa0000000600ba
:101328000000fa0041e3a8000080fa00000006006f
:101338000000fa00c082a800c882a800e284a900c0
:101348000080fa00000006000000fa009021ef007b
:101358009221ef00810c8000f03f2e000080600099
:1013680000c0a000800c8800900c8000f001b30041
:10137800900c880092e1a900810c800080ff2f006a
:10138800008060006000b300800c880021058000a8
:10139800f08f2f000080600000a0a00020058800ca
:1013a8009440a9009421ef009621ef000080fa00f4
:1013b800000006000000fa00c8e2a9000080fa0058
:1013c800000006000000fa00c9e2a800e3e4a80053
:1013d8005123a8000080fa00000006000000fa006f
:1013e800c902a9000080fa00000006000000fa0007
:1013f800c922a8000080fa00000006000200fa00d6
:1014080041188000007d2000808f500003003600c6
:1014180010002000000f7800020037000000eb00e9
:10142800000f78001e0078000080fa000000060017
:101438000200fa00d1188000007d2000808f500043
:101448000300360010002000000f7800020037006b
:101458000000eb00000f78001e0078000080fa0002
:10146800000006000200fa00e1188000007d20005c
:10147800808f50000300360010002000000f780015
:10148800020037000000eb00000f78001e00780013
:101498000080fa00000006000200fa00c11880006f
:1014a800007d2000808f50000300360010002000cf
:1014b800000f7800020037000000eb00000f7800f2
:1014c8001e0078000080fa00000006000200fa0002
:1014d800b1188000409c2000808f50000300360027
:1014e80010002000000f7800020037000000eb0019
:1014f800000f78001e0078000080fa000000060047
:101508000200fa00a118800080bb2000808f5000e4
:101518000300360010002000000f7800020037009a
:101528000000eb00000f78001e0078000080fa0031
:10153800000006000200fa00d118800080bb2000dd
:10154800808f50000300360010002000000f780044
:10155800020037000000eb00000f78001e00780042
:101568000080fa00000006000000fa0090188000d1
:101578000080fa00000006000000fa0080bb20008e
:10158800f00c8800c05d2000000d880080bb2000a2
:10159800400d8800c05d2000500d8800c402a800de
:1015a800c422a9000080fa00000006000000fa002a
:1015b80000f42100f00c880000fa2000000d8800db
:1015c80000f42100400d880000fa2000500d88002a
:1015d800c402a800c422a9000080fa000000060086
:1015e8000000fa0000fa2000f00c8800007d2000be
:1015f800000d880080bb2000400d8800c05d2000e1
:10160800500d8800c402a800c422a9000080fa0076
:10161800000006000000fa0080bb2000f00c8800e3
:10162800c05d2000000d880000fa2000400d8800f1
:10163800007d2000500d8800c402a800c422a90023
:101648000080fa00000006000000fa0000e2240012
:10165800f00c880000712200000d880080bb20007b
:10166800400d8800c05d2000500d8800c402a8000d
:10167800c422a9000080fa00000006000000fa0059
:1016880080bb2000f00c8800c05d2000000d8800a1
:1016980000e22400400d880000712200500d8800ef
:1016a800c402a800c422a9000080fa0000000600b5
:1016b8000000fa009e21ef00a021ef00a821ef0012
:1016c800aa21ef000080fa00000006000200fa00dc
:1016d800000f78001e0078000000e00002003200d1
:1016e800d9ff070001003700e4ff07000080fa0077
:1016f800000006000200fa00000f78001e007800c3
:1017080000407800614060000080fb0061006000dc
:101718004700dd00611680000170a1000100700023
:10172800601688000080fa00000006000000fa0039
:1017380060182000a00c8800e0012000b00c880090
:101748000080fa00000006000000fa00601820007f
:10175800a00c8800a0002000b00c88000080fa00cf
:10176800000006000000fa0060182000a00c8800a5
:1017780020012000b00c88000080fa00000006005c
:101788000000fa009421ef009621ef000080fa0093
:10179800000006000000fa00cd02a8000080fa0050
:1017a800000006000000fa00cd02a9000080fa003f
:1017b800000006000000fa00b00c8000ea0f50009c
:1017c8000f0036000108800000fa2000808f5000ca
:1017d8000d003600b00c80008000eb00c9fb07004c
:1017e8000200200003f02300ddfb0700a7fb070031
:1017f80000007800b00c88000021ef0002003700dc
:1018080090012000b00c88000080fa00000006005b
:101818000600fa0040832000000f780000e2240050
:101828001e0050000000e00002003d00f1ff200013
:10183800010040004c80de00411880000180b900a2
:10184800000078009e007800810040000e80e800cb
:10185800010878000e80e80010007800f00c88007d
:101868000e80e80010007800cf00de000080400005
:101878000080d100000d880000e224001e00500006
:101888000000e00002003d00f1ff200001004000e0
:101898004c80de00e11880000180b900000078006b
:1018a8009e0078008100400064004700010878002d
:1018b8006400470010007800400d8800640047006d
:1018c80010007800cf00de00008040000080d100ca
:1018d800500d8800c402a800c422a9000080fa00a4
:1018e800000006000000fa00f00c80008000eb0009
:1018f80084fb07006266260063f6230086fc070067
:1019080002002000633924009efb07005ffb0700ec
:1019180000007800f00c8800f00c80000000d10076
:10192800000d8800400d80008000eb0075fb07006b
:101938006266260063f6230077fc07000200200099
:10194800633924008ffb070050fb07000000780074
:10195800400d8800400d80000000d100500d880027
:10196800c402a800c422a9000080fa0000000600f2
:101978000000fa00f00c80008000eb0061fb07001b
:101988006266260063f6230063fc0700020020005d
:10199800833c24007bfb07003cfb07000000780029
:1019a800f00c8800f00c80000000d100000d8800c9
:1019b800400d80008000eb0052fb070062662600a5
:1019c80063f6230054fc070002002000633924005a
:1019d8006cfb07002dfb070000007800400d880015
:1019e800400d80000000d100500d8800c402a800fe
:1019f800c422a9000080fa00000006000000fa00d6
:101a0800f00c80008000eb003efb070062662600b9
:101a180063f6230040fc070002002000633924001d
:101a280058fb070019fb070000007800f00c88003d
:101a3800f00c80000000d100000d8800400d8000ef
:101a48008000eb002ffb07006266260063f6230088
:101a580031fc070002002000833c240049fb0700fa
:101a68000afb070000007800400d8800400d800048
:101a78000000d100500d8800c402a800c422a900ab
:101a88000080fa00000006000000fa00f00c800058
:101a98008000eb001bfb07006266260063f623004c
:101aa8001dfc070002002000a34f240035fb07009f
:101ab800f6fa070000007800f00c8800f00c8000af
:101ac8000000d100000d8800400d80008000eb0070
:101ad8000cfb07006266260063f623000efc070075
:101ae800020020006339240026fb0700e7fa0700fc
:101af80000007800400d8800400d80000000d100f3
:101b0800500d8800c402a800c422a9000080fa0071
:101b1800000006000000fa00f00c80008000eb00d6
:101b2800f8fa07006266260063f62300fafb07004e
:101b3800020020006339240012fb0700d3fa0700d3
:101b480000007800f00c8800f00c80000000d10044
:101b5800000d8800400d80008000eb00e9fa0700c6
:101b68006266260063f62300ebfb070002002000f4
:101b7800a34f240003fb0700c4fa07000000780005
:101b8800400d8800400d80000000d100500d8800f5
:101b9800c402a800c422a9000080fa0000000600c0
:101ba8000400fa00008fbe0060182000a00c880016
:101bb8001e00be00b5fa070000007800b00c8800cf
:101bc8000080fa00000006000600fa0090012000dc
:101bd800000f7800910120000e80e80001087800cd
:101be8008000eb0064004700010878000021ef0046
:101bf8001c0037001e007800cf80de00befa070008
:101c0800e7ff07000108800080d02300808f500084
:101c1800140036000021ef0053fe0700e4004700df
:101c280091007800810f5000060034004efe070036
:101c38008000780064004700010878000e80e80002
:101c48001e0878001e007800cf80de00aafa070080
:101c58000200200003f02300c1fa07006afa070017
:101c6800000f78001e007800e90f5000e1ff3c00eb
:101c78000e80e80010007800cf80de009efa070092
:101c8800c7ff07000080fa00000006000000fa0005
:101c98002bfd070086fe070067fd0700c9fd07004a
:101ca8008afd07005afd0700a1fd0700a6fd0700f1
:101cb800c0fd07009afd0700c8fd0700cbfd07001f
:101cc8001228ef001428ef001628ef001828ef005c
:101cd8001a28ef001c28ef001e28ef002028ef002c
:101ce8002228ef0011002000c0262000c6030700ac
:101cf80095fe070001000700feff37000000fa000c
:101d080090408000e30f500063003200e30f500062
:101d180005003e00e10f500012003200e10f5000b4
:101d280055003e0007003700e50f50006a003200fa
:101d3800e50f500060003900e60f500071003200d6
:101d4800840037005e020700604080000000e00069
:101d58006f0032000c28ef0010002000904088002f
:101d68007c0037007d0007006b01070060408000a1
:101d78000000e000240032000c28ef000828ef00e3
:101d880060418000e20f50000a003a002000200065
:101d980090408800604180000000e80060418800b1
:101da80011002000e00b2000970307006dfe0700dc
:101db8006800370060418000e30f500009003a00d6
:101dc800604180000000e800604188003000200089
:101dd8009040880011002000600920008a03070055
:101de8005c00370060418000e40f50004a003a0070
:101df800400020009040880011002000a00f200023
:101e0800810307005300370051168000002020008e
:101e1800008060000000e00008003a008040800078
:101e28000000e00005003a0021fe07000021ef0055
:101e3800500020009040880046003700b0fd0700a1
:101e48000000e00036003200804080000000e00022
:101e5800350032000108800020a12700808f500043
:101e680033003600600020009040880010fe070014
:101e78000021ef00370037002e0207006040800085
:101e88000000e0002c0032000c28ef0010002000b9
:101e9800904088002f003700c20107006040800092
:101ea8000000e000260032000c28ef00100020009f
:101eb80090408800270037005701070060408000e5
:101ec8000000e000200032000c28ef001000200085
:101ed800904088001f0037001000200080408800d4
:101ee80081020700604080000000e0001800320016
:101ef8000c28ef0010002000904088000021ef001f
:101f080014003700cc020700000000001100370061
:101f1800000000000f003700000000000d0037002f
:101f2800000000000b003700000000000900370027
:101f3800000000000700370000000000050037001f
:101f48000000000003003700000000000100370017
:101f5800000000000080fa00000006000000fa00ff
:101f6800a0408000e20f50004f003200e20f500006
:101f780005003e000000e0000a003200e10f5000ba
:101f880024003200e2003700e40f50008f003200d6
:101f9800e40f500068003900e50f5000af00320030
:101fa800db00370015fd07000000e0000b003200e1
:101fb8001ffd07000000e0000400320088fd070054
:101fc80010002000a0408800d10037009efd0700c7
:101fd80030002000a0408800cd00370021fd070018
:101fe8000000e000bf00320011fd07000000e00023
:101ff8000400320087fd070020002000a040880070
:10200800c30037009dfd070040002000a040880065
:10201800bf0037001000200050408800f7fc070080
:102028000000e0000700320001fd07000000e000aa
:10203800ae003a0084fd070030002000a040880070
:10204800b300370007fd07000000e0000b00320076
:10205800f7fc07000000e000040032006dfd0700f7
:1020680020002000a0408800a900370083fd070059
:1020780040002000a0408800a5003700ecfc0700c5
:102088000000e000030032003bfd07001428ef00c9
:102098009f00370050002000a0408800504080007a
:1020a8008afd07009a0037000a28ef00d3fc0700d2
:1020b8000000e0000b003200ddfc07000000e0003b
:1020c8000400320046fd070010002000a0408800f0
:1020d8008f0037005cfd070030002000a04088001a
:1020e8008b003700dffc07000000e000070032002b
:1020f800cffc07000000e0007e003a005ffd07000b
:1021080040002000a040880081003700c8fc07007c
:102118000000e0000300320017fd07001428ef005c
:102128007b00370050002000a0408800504080000d
:1021380066fd070076003700100020005040880038
:10214800aefc07000000e00007003200b8fc070002
:102158000000e0006900320021fd070010002000a7
:10216800a04088006a003700befc07000000e000bd
:102178000b003200aefc07000000e0000400320053
:1021880024fd070020002000a040880060003700e0
:102198003afd070040002000a04088005c0037009e
:1021a800a3fc07000000e00003003200f2fc070077
:1021b8001428ef005600370050002000a040880087
:1021c8005040800041fd0700510037000a28ef0009
:1021d8008afc07000000e0000b00320094fc0700b6
:1021e8000000e00004003200fdfc070010002000a1
:1021f800a04088004600370013fd0700300020008b
:10220800a04088004200370096fc07000000e0006c
:102218000700320086fc07000000e00039003200a9
:10222800fcfc070020002000a04088003800370090
:102238007ffc07000000e00003003200cefc07002e
:102248001428ef003200370050002000a04088001a
:10225800504080001dfd07002d00370067fc070077
:102268000000e0000b00320071fc07000000e000f5
:1022780004003200dafc070010002000a0408800ab
:1022880023003700f0fc070030002000a040880041
:102298001f00370073fc07000000e0000b0032004d
:1022a80063fc07000000e00004003200d9fc0700ce
:1022b80020002000a040880015003700effc070030
:1022c80040002000a04088001100370058fc07009b
:1022d8000000e0000d003200a7fc07001428ef0002
:1022e8000b00370000000000090037000000000064
:1022f800070037000000000005003700000000005c
:102308000300370000000000010037000000000053
:102318000080fa00000006000000fa00b0408000cb
:10232800e10f50000e003200e10f500003003900a9
:10233800e20f50001b0032003500370056fc070042
:102348000000e0002d00320010002000b04088009e
:102358000428ef009720a8000828ef002c00370079
:102368002140800030062000808f50000300340098
:102378001628ef009720a9002500370046fc070023
:102388000000e0001f003a00404080000000e80024
:10239800404088000428ef0020002000b04088005a
:1023a8001b0037002140800030062000808f50003d
:1023b800030034001628ef009720a9001400370006
:1023c8004140800060418000808f500004003a0046
:1023d80010002000604088001628ef000c0037002d
:1023e8002dfc07000000e00008003200100020006b
:1023f800b04088009720a9000500370000000000c1
:102408000300370000000000010037000000000052
:102418000080fa00000006000000fa00c0408000ba
:10242800e20f500031003200e20f500005003e007c
:102438000000e00008003200e10f50000e003200fa
:1024480056003700e30f500030003200e40f500010
:1024580040003200510037001140800030408000b9
:10246800808f50004400350010002000c0408800d4
:102478004efc070049003700100020009dfc0700b3
:1024880010168000700060000000e0000e003a00a6
:1024980020002000c04088005016800070006000b6
:1024a8000000e00004003a008000eb00a0052000d6
:1024b800a20107003900370011002000a005200004
:1024c8009e010700350037001afc07000000e000f5
:1024d8002b00320030002000c0408800110020008e
:1024e80060042000c80107002c003700114080005c
:1024f80030408000808f50002300350010002000fd
:10250800c040880029fc07002400370011408000e3
:1025180030408000808f50001d00350040002000b2
:10252800c040880050168000700060000000e00085
:1025380004003a008000eb00a00520007f0107009e
:102548001600370011002000a00520007b010700bd
:10255800120037000000eb0066fc07001140800005
:1025680030408000808f50000b00350010002000a4
:1025780060408800090037000000000007003700ad
:1025880000000000050037000000000003003700cd
:102598000000000001003700000000000080fa0081
:1025a800000006000000fa00d0408000e10f500053
:1025b8001d003200e10f500005003900e20f500005
:1025c80023003200e30f50002d0032003a0037009c
:1025d8001140800030408000808f50002f0035006f
:1025e800bafb07000000e000080032008000eb00a2
:1025f800a00520005101070010002000d0408800ed
:1026080010002000704088002b00370011002000c7
:10261800a00520004901070010002000d0408800d4
:102628000e28ef0024003700114080003040800061
:10263800808f50001b0035000021ef002000200093
:10264800d04088001afc070038fc07001a00370041
:102658000108800080d02300808f500013003600ce
:102668007040800080007800a0052000330107003a
:1026780030002000d040880033fc07000e003700ef
:102688001140800030408000808f500009003500e4
:10269800100020006040880007003700000000009c
:1026a80005003700000000000300370000000000ac
:1026b80001003700000000000080fa00000006005a
:1026c8000000fa00e04080000000e0000300320053
:1026d800e10f50000b003200140037001140800059
:1026e80030408000808f50000d0035001100200020
:1026f800a00520001101070010002000e04088001c
:102708000a0037001140800030408000808f500060
:1027180005003500100020006040880003003700e5
:102728000000000001003700000000000080fa00ef
:10273800000006000000fa00881f7800f0408000c2
:10274800e30f500033003200e30f500005003e0055
:10275800e10f500013003200e10f500023003e004b
:1027680007003700e50f50003e003200e50f50002b
:1027780031003900e60f500044003200570037009e
:102788001140800030408000808f500046003500a6
:1027980010002000f0408800c5fb07000021ef0072
:1027a8004e003700000880008000eb00d5f70700d6
:1027b80018c0b300020025003354240090f7070026
:1027c8000000e00001003c000044eb000804e000c9
:1027d8003700320020002000f04088008000eb0025
:1027e80050052000d50007003c003700114080004c
:1027f80030408000808f50002f00350030002000ce
:10280800f040880011002000000f2000fe000700a3
:10281800320037001140800030408000808f500027
:1028280027003500a2fb070040002000f040880088
:102838000021ef00290037000108800090d0230014
:10284800808f5000200036008000eb00000f200031
:10285800ed00070050002000f0408800bafb070098
:102868001e0037001140800030408000808f5000eb
:10287800170035001100200000052000af000700f8
:1028880060002000f04088001400370011408000ec
:1028980030408000808f50000f003500100020006d
:1028a800604088000d003700000000000b00370072
:1028b8000000000009003700000000000700370092
:1028c800000000000500370000000000030037008a
:1028d8000000000001003700000000004f047800ed
:1028e8000080fa00000006000000fa00881f780047
:1028f80000418000e20f500028003200e20f500033
:1029080005003e000000e00008003200e10f500022
:102918001800320045003700e30f5000290032004c
:10292800e40f5000310032004000370000088000fa
:102938008000eb0073f7070018c0b3000200250001
:10294800334c24002ef707000000e00001003d0092
:102958000044eb000804e0002b00320010002000c7
:10296800004188008000eb00a005200073000700ec
:102978002e0037001140800030408000808f5000ca
:1029880023003500200020000041880011002000ad
:10299800000f20009c000700240037001140800031
:1029a80030408000808f50001b0035003000200030
:1029b800004188008000eb00000f20009200070013
:1029c8001a0037001140800030408000808f50008e
:1029d800130035004000200000418800110020004d
:1029e800a0052000550007001000370011408000a6
:1029f80030408000808f50000b0035001000200010
:102a08006040880009003700000000000700370018
:102a18000000000005003700000000000300370038
:102a28000000000001003700000000004f0478009b
:102a38000080fa00000006000000fa00881f7800f5
:102a480010418000e10f500019003200e10f5000e2
:102a580005003900e20f50001f003200e30f50005c
:102a68002500320032003700000880008000eb00ab
:102a780024f7070018c0b3000200250033542400cf
:102a8800dff607000000e00001003d000044eb0015
:102a98000804e000210032008000eb00000520005f
:102aa8002600070010002000104188002000370091
:102ab8001140800030408000808f500019003500a0
:102ac80020002000104188008000eb00c026200074
:102ad8004d0007001600370011408000304080008c
:102ae800808f500011003500300020001041880010
:102af800effa07000e0037009bfa0700311f20008d
:102b0800810f500003003c0026fb070029fb07004b
:102b1800070037001ffb0700050037000000000012
:102b2800030037000000000001003700000000002b
:102b38004f0478000080fa00000006000400fa0044
:102b4800000f78000e80e800010878001e00780069
:102b5800cf80de00e8f607000002be0020418000ba
:102b6800314180000001be000400be00eaf7070002
:102b7800a5f60700000078003040880094c0a8003f
:102b88000228ef0080382100f00c8800f00c80004b
:102b98000000d100000d880080382100400d880019
:102ba800400d80004300de00500d88000e80e800d4
:102bb8001000780000407800614060000080fb0051
:102bc80061006000211680000100a1000100700072
:102bd800201688000e80e800100078000040780079
:102be800614060000080fb00610060000000400060
:102bf800211680000110a100010070002016880035
:102c08000080fa00000006000400fa00000f7800b7
:102c18000e80e800010878001e007800cf80de00f2
:102c2800b5f607000002be00404180005141800017
:102c38000001be000400be00b7f7070072f60700e7
:102c480000007800304088000228ef0094c0a800f7
:102c580000712200f00c880080382100000d8800e7
:102c680000712200400d880080382100500d880036
:102c78000e80e800100078000000e0000300320039
:102c8800c402a800c422a90002003700c402a90097
:0c2c9800c422a8000080fa000000060022
:020000040000fa
:102ca40000080000240000000000000024080000c8
:102cb4000a000000020000009a996900409a9900f5
:0c2cc400094002000000000000000000b9
:020000040000fa
:0200000401f009
:04000c00d8ff000019
:00000001FF
