:020000040000fa
:080000000002040000000000f2
:020000040000fa
:04000800fe020000f4
:020000040000fa
:04000c00fe020000f0
:020000040000fa
:04001000fe020000ec
:020000040000fa
:04001400fe020000e8
:020000040000fa
:04001800fe020000e4
:020000040000fa
:04001c00fe020000e0
:020000040000fa
:04002000fe020000dc
:020000040000fa
:04002400fe020000d8
:020000040000fa
:04002800fe020000d4
:020000040000fa
:04002c00fe020000d0
:020000040000fa
:04003000c802000002
:020000040000fa
:04003400fe020000c8
:020000040000fa
:04003800fe020000c4
:020000040000fa
:04003c00fe020000c0
:020000040000fa
:04004000da020000e0
:020000040000fa
:04004400fe020000b8
:020000040000fa
:04004800fe020000b4
:020000040000fa
:04004c00fe020000b0
:020000040000fa
:04005000fe020000ac
:020000040000fa
:04005400fe020000a8
:020000040000fa
:04005800fe020000a4
:020000040000fa
:04005c00fe020000a0
:020000040000fa
:04006000fe0200009c
:020000040000fa
:04006400fe02000098
:020000040000fa
:04006800fe02000094
:020000040000fa
:04006c00fe02000090
:020000040000fa
:04007000fe0200008c
:020000040000fa
:04007400fe02000088
:020000040000fa
:04007800fe02000084
:020000040000fa
:04007c00fe02000080
:020000040000fa
:04008000fe0200007c
:020000040000fa
:04008400fe02000078
:020000040000fa
:04008800fe02000074
:020000040000fa
:04008c00ec02000082
:020000040000fa
:04009000fe0200006c
:020000040000fa
:04009400fe02000068
:020000040000fa
:04009800fe02000064
:020000040000fa
:04009c00fe02000060
:020000040000fa
:0400a000fe0200005c
:020000040000fa
:0400a400fe02000058
:020000040000fa
:0400a800fe02000054
:020000040000fa
:0400ac00fe02000050
:020000040000fa
:0400b000fe0200004c
:020000040000fa
:0400b400fe02000048
:020000040000fa
:0400b800fe02000044
:020000040000fa
:0400bc00fe02000040
:020000040000fa
:0400c000fe0200003c
:020000040000fa
:0400c400fe02000038
:020000040000fa
:0400c800fe02000034
:020000040000fa
:0400cc00fe02000030
:020000040000fa
:0400d000fe0200002c
:020000040000fa
:0400d400fe02000028
:020000040000fa
:0400d800fe02000024
:020000040000fa
:0400dc00fe02000020
:020000040000fa
:0400e000fe0200001c
:020000040000fa
:0400e400fe02000018
:020000040000fa
:0400e800fe02000014
:020000040000fa
:0400ec00fe02000010
:020000040000fa
:0400f000fe0200000c
:020000040000fa
:0400f400fe02000008
:020000040000fa
:0400f800fe02000004
:020000040000fa
:0400fc00fe02000000
:020000040000fa
:04010000fe020000fb
:020000040000fa
:04010400fe020000f7
:020000040000fa
:04010800fe020000f3
:020000040000fa
:04010c00fe020000ef
:020000040000fa
:04011000fe020000eb
:020000040000fa
:04011400fe020000e7
:020000040000fa
:04011800fe020000e3
:020000040000fa
:04011c00fe020000df
:020000040000fa
:04012000fe020000db
:020000040000fa
:04012400fe020000d7
:020000040000fa
:04012800fe020000d3
:020000040000fa
:04012c00fe020000cf
:020000040000fa
:04013000fe020000cb
:020000040000fa
:04013400fe020000c7
:020000040000fa
:04013800fe020000c3
:020000040000fa
:04013c00fe020000bf
:020000040000fa
:04014000fe020000bb
:020000040000fa
:04014400fe020000b7
:020000040000fa
:04014800fe020000b3
:020000040000fa
:04014c00fe020000af
:020000040000fa
:04015000fe020000ab
:020000040000fa
:04015400fe020000a7
:020000040000fa
:04015800fe020000a3
:020000040000fa
:04015c00fe0200009f
:020000040000fa
:04016000fe0200009b
:020000040000fa
:04016400fe02000097
:020000040000fa
:04016800fe02000093
:020000040000fa
:04020800fe020000f2
:020000040000fa
:04020c00fe020000ee
:020000040000fa
:04021000fe020000ea
:020000040000fa
:04021400fe020000e6
:020000040000fa
:04021800fe020000e2
:020000040000fa
:04021c00fe020000de
:020000040000fa
:04022000fe020000da
:020000040000fa
:04022400fe020000d6
:020000040000fa
:04022800fe020000d2
:020000040000fa
:04022c00fe020000ce
:020000040000fa
:04023000c802000000
:020000040000fa
:04023400fe020000c6
:020000040000fa
:04023800fe020000c2
:020000040000fa
:04023c00fe020000be
:020000040000fa
:04024000da020000de
:020000040000fa
:04024400fe020000b6
:020000040000fa
:04024800fe020000b2
:020000040000fa
:04024c00fe020000ae
:020000040000fa
:04025000fe020000aa
:020000040000fa
:04025400fe020000a6
:020000040000fa
:04025800fe020000a2
:020000040000fa
:04025c00fe0200009e
:020000040000fa
:04026000fe0200009a
:020000040000fa
:04026400fe02000096
:020000040000fa
:04026800fe02000092
:020000040000fa
:04026c00fe0200008e
:020000040000fa
:04027000fe0200008a
:020000040000fa
:04027400fe02000086
:020000040000fa
:04027800fe02000082
:020000040000fa
:04027c00fe0200007e
:020000040000fa
:04028000fe0200007a
:020000040000fa
:04028400fe02000076
:020000040000fa
:04028800fe02000072
:020000040000fa
:04028c00ec02000080
:020000040000fa
:04029000fe0200006a
:020000040000fa
:04029400fe02000066
:020000040000fa
:04029800fe02000062
:020000040000fa
:04029c00fe0200005e
:020000040000fa
:0402a000fe0200005a
:020000040000fa
:0402a400fe02000056
:020000040000fa
:0402a800fe02000052
:020000040000fa
:0402ac00fe0200004e
:020000040000fa
:0402b000fe0200004a
:020000040000fa
:0402b400fe02000046
:020000040000fa
:0402b800fe02000042
:020000040000fa
:0402bc00fe0200003e
:020000040000fa
:0402c000fe0200003a
:020000040000fa
:0402c400fe02000036
:020000040000fa
:0402c800fe02000032
:020000040000fa
:0402cc00fe0200002e
:020000040000fa
:0402d000fe0200002a
:020000040000fa
:0402d400fe02000026
:020000040000fa
:0402d800fe02000022
:020000040000fa
:0402dc00fe0200001e
:020000040000fa
:0402e000fe0200001a
:020000040000fa
:0402e400fe02000016
:020000040000fa
:0402e800fe02000012
:020000040000fa
:0402ec00fe0200000e
:020000040000fa
:0402f000fe0200000a
:020000040000fa
:0402f400fe02000006
:020000040000fa
:0402f800fe02000002
:020000040000fa
:0402fc00fe020000fe
:020000040000fa
:04030000fe020000f9
:020000040000fa
:04030400fe020000f5
:020000040000fa
:04030800fe020000f1
:020000040000fa
:04030c00fe020000ed
:020000040000fa
:04031000fe020000e9
:020000040000fa
:04031400fe020000e5
:020000040000fa
:04031800fe020000e1
:020000040000fa
:04031c00fe020000dd
:020000040000fa
:04032000fe020000d9
:020000040000fa
:04032400fe020000d5
:020000040000fa
:04032800fe020000d1
:020000040000fa
:04032c00fe020000cd
:020000040000fa
:04033000fe020000c9
:020000040000fa
:04033400fe020000c5
:020000040000fa
:04033800fe020000c1
:020000040000fa
:04033c00fe020000bd
:020000040000fa
:04034000fe020000b9
:020000040000fa
:04034400fe020000b5
:020000040000fa
:04034800fe020000b1
:020000040000fa
:04034c00fe020000ad
:020000040000fa
:04035000fe020000a9
:020000040000fa
:04035400fe020000a5
:020000040000fa
:04035800fe020000a1
:020000040000fa
:04035c00fe0200009d
:020000040000fa
:04036000fe02000099
:020000040000fa
:04036400fe02000095
:020000040000fa
:04036800fe02000091
:020000040000fa
:100400000f8320000eff20000e0188000000000076
:10041000000020000000e000020032000001200087
:100420002002880014000700760007000000e000aa
:1004300003003a006056210001002000020037004e
:100440000000200001002000810f70000100320038
:1004500014000700000020000000e000020032004d
:1004600000000200000000001a0d02000000000061
:100470000040da000000fe004440a9000000200017
:100480000000e0000300320000002000a00188000e
:100490004440a800000006008a1f78008b1f7800e7
:1004a0000000060091018800800478000000eb0045
:1004b0001a003700e284440032a0b4009905ba0063
:1004c000e284440032a0b4009906ba00e2844400f9
:1004d00032a0b4000006eb00476fde00fd07b2005b
:1004e000636ce10003003a00ebff07000000eb0043
:1004f0000a003700606ce10004003a00005deb0088
:100500008b05e900fdff3e00040037006168e10053
:10051000010032000086eb000b00070019c7ba008b
:100520001905ba000e04e00003003a000a00e000da
:10053000e0ff3a0000000600fe07b2009e018800be
:100540008a047800f5ff3700395dba008b05e900b1
:100550000c003200295dba008b05e900080032006a
:100560000c00e00003003a00e284440032a0b40032
:10057000f5ff370019ddba008b05e900faff3a00f4
:100580008904e800e184440032a0b40000000600c1
:10059000801f78000000fa008440a900004080001d
:1005a0000000e800004088000080fa004f0078005a
:1005b00000400600801f78000000fa0084c0a900f7
:1005c000104080000000e800104088000080fa0021
:1005d0004f00780000400600801f78000000fa00fd
:1005e0008720a900204080000000e800204088000b
:1005f0000080fa004f007800004006000040da005a
:100600000000fe0000000500f4ff2f004602370046
:100610000001be003f0007000470a70003f0a10026
:100620006509b100160032000d0035006828e100b0
:1006300006003500f0ff2f00f1ff27000300e00067
:1006400013003b00010028000000050000004000ee
:10065000818048008502e900fcff3a00080037006d
:10066000f88f420002003c008000eb000000050013
:100670008100d1000080d3008502e800fcff3a0031
:100680000300e00002003b0060001000e080180062
:10069000000006000001be001e0007000470a70055
:1006a00003f0a10003f8a30013003a006509b100ac
:1006b00010003200090035006928e1000200350011
:1006c0000100280000000500000040008180480073
:1006d0008502e900fcff3a0000000600f88f4200a6
:1006e000050035008100d1000080d3008502e800bc
:1006f000fcff3a00000006008000eb00000005004f
:100700004f89de0082017800220237006011b800b4
:1007100030023700c70ade00f107b200f50fb20061
:1007200008003200e1cf4200020032000170a00058
:1007300024000500810f700001003200040805004c
:1007400044000500810f700002003a00140005000b
:100750008502e9000000400081c04800fcff3b002a
:100760000170a0002400050007f82700078361003e
:100770000638e10004003a00f70720008783610093
:100780008703710001003a0003f0a200889fbe00b9
:100790008a9fbe008c9fbe00470ade000480a10035
:1007a000c71ade000580a100070028000785600049
:1007b00087856100f70f20000720e1009e003200ce
:1007c0000728e1009c003200010678000400e000e8
:1007d000b4003200f7072000878060000170a0009d
:1007e0000500e000c0003200f707200087816100ab
:1007f0000370a000050652000f003a000b50e10004
:100800000b0032000308e10002003a000200e100a0
:100810007e0032000204500083845800040031003e
:100820000001fd008101fd008402fd008a05fd003c
:100830006044b800210037000520e10005003d00bc
:100840000001fd008101fd008402fd008a05fd001c
:10085000050652007a60e100050035000170a10034
:100860004722dd00848070008a80700063003700ba
:100870006044b800ef02660007ff2f00070666001d
:100880000500e00006003400f08312008714dd004c
:100890000511de00071bdd00060171008519de0071
:1008a0007060e100050035000904780082047800da
:1008b000030178008001eb00700656000b50e10048
:1008c00003003a0002004000838048000400370023
:1008d00060041400e0841c0002005800838058006b
:1008e0000188a300060032008100d1000080d300ff
:1008f0008984d3000884d3000402e800270037006d
:100900000178a30025003a000100e0000300320056
:100910008186cf00698656000a0037008c002000cf
:100920000000e00004003a00090078008804780024
:100930000004eb00700252008086cf000d064600d6
:100940000c06e9007060e1000600350080007800c8
:1009500009007800880478000004eb007006560057
:10096000700252000c00e0000c0034008c08dd0026
:10097000f00316000703de00868070000c00dd0027
:10098000074bde00060070008c4cdd000743de00e4
:10099000868474000c44dd000c0252006120e100ea
:1009a0002000350061016000070028008781640095
:1009b000f7ff270087836400070374000300e0004b
:1009c0000600320082037300040032000000e800d9
:1009d000e08048000188a3000e003a00f70f2000d5
:1009e0000720e1004a003d000170a1004722dd0020
:1009f000810072008a8070000000be004f06be00b9
:100a00004f05be004f04be00000006006000b800a5
:100a1000faff37008100d1000080d3000402e80013
:100a2000eeff37000401780089017400c20007005e
:100a30008a807000f1ff3700180107000702780074
:100a40000001fd008101fd0014010700870278000c
:100a5000850372000778a300040032000001fd0046
:100a60008101fd0027010700e4ff370085036200d4
:100a70000768a300080032000b50e10003003200b9
:100a8000f0ff2f00f1ff2700dcff37000001fd0021
:100a90008101fd00d9ff37000468a300d7ff3200b1
:100aa000faff3700f8ff2700888360000b003a0048
:100ab0000000e00009003a008303640082837300b1
:100ac000020032000200be00ccff37000b50e100f4
:100ad000ceff3a000200be00c8ff3700140020001d
:100ae000810064003eff3700f8ff27008883610023
:100af00004003a000200e00002003a008c00780096
:100b0000beff3700150020008301640039ff370065
:100b100001f827000000200081007500b7ff3700b2
:100b2000038368000700280007036300470ade000c
:100b30000480a100c71ade000580a100f70f200085
:100b40000720e100420032000728e10040003200a7
:100b5000889fbe008a9fbe008c1f7800f107b200fc
:100b6000f307b2000400e000640032000170a0004e
:100b70000500e000680032000370a0008505420017
:100b8000eb07b1000204b8000302b80084844400fb
:100b900060854a00020ab800848444000a854a003d
:100ba000030ab80004054500040033000804d0001f
:100bb0008984d2000a85d2008b05e9006158e100e2
:100bc0003d003500021020000901610003082000eb
:100bd00089816100f707200087836400088673001d
:100be000c84cde00c853dd00878474004855de0021
:100bf0000300e000060032008203760004003200a9
:100c00008904e80060054d000a88a3000c003a0042
:100c1000f70f20000758e10044003d000a70a100d2
:100c2000c75ddd000a8575008a0073000900780041
:100c30004f0678004f05be004f04be0000000600be
:100c40000a05d1008984d3008b05e800f0ff370046
:100c5000881f7800060478009000070007027800db
:100c60000001fd008101fd008c0007008702780073
:100c7000850372000778a300050032000001fd0023
:100c80008101fd009f0007004f047800000006006e
:100c9000850372000748a30003003200f0ff2f0015
:100ca000f1ff2700f8ff37000000200001f82700bf
:100cb00088807000f4ff3700880178004848dd0024
:100cc000808171004848de00c850dd0001007000de
:100cd000c850de00060478000b01780016000700fb
:100ce00088807000d2ff37000500e0000500320068
:100cf000170020003a0007009dff370081037000b5
:100d0000f9ff3a00860078004f0678004f05be00d4
:100d10004f04be000000050083037100f9ff32009c
:100d2000270020002e00070094ff370001f827005d
:100d300086807000f4ff37000100e00026003200da
:100d4000610111007810e10023003c006022b8002e
:100d50007010e10004003500800278000100780086
:100d60008000eb00700151000200e0000900340037
:100d700070031100062add00822ade008603dd00f2
:100d8000878272000200de00860bdd000700700023
:100d90008208de0084817100f4ff27000482620073
:100da0008481710004002800848262006102600076
:100db00005f0a60000000600048271000700320062
:100dc0000000e800e0804800000006000002be00cd
:100dd0006000b800efff37006000b80000000600b8
:100de000889fbe000004eb006138e10016003a0065
:100df0000100e00008003a00c800de004800dd0005
:100e0000880020000100e00003003a00c800de0076
:100e10004800dd00680444008184cf00e984540068
:100e2000060034008908dd00f08314008703de002b
:100e3000878070000900dd0009044400610214008d
:100e40004f04be00000006000300e00008003a0066
:100e5000c811de004811dd00880020000300e0001a
:100e600003003a00c811de004811dd0068044400a8
:100e70008384cf00e9845400060034008919dd0022
:100e8000f08314008713de00878171000911dd00f3
:100e900009044400e1021400e9ff370027002000a4
:100ea00001f0a70017002000470bde00f60fb2008c
:100eb000040032000643e8000a0032004702b30093
:100ec0000000060001037800f607b2000603700078
:100ed00002003a000703b300000006008702b300d7
:100ee0000000060001037800f607b2000603700058
:100ef000020032000770a000000006000760a0009a
:100f0000000006000478a300040032000578a30066
:100f1000030032000168a30001003a000200be0095
:100f20000160a00000000600889fbe008a9fbe00ee
:100f3000841f78007c0007004f0078001100330008
:100f4000f0ff2f00838f6c0006003b000405650056
:100f50000a00a7000800370009f0a60010002000d2
:100f600008003700820f5400838f5c0003003900b3
:100f70001000200001003e000000200009f0a70042
:100f80000000ea004f05be004f04be000000e00074
:100f900000000600881f7800030478000300e000ca
:100fa00007003d0060001000e0801800600119009b
:100fb000e081190002003b0001f02d000300370022
:100fc0000400070008f0a70001f0a0004f0478001b
:100fd00000000600889fbe008a9fbe00008270004d
:100fe0000402710004827100260032000004be0079
:100ff0000200be006011b8006b09200095022000bd
:101000000182cf000a0039000541b1000082cf0003
:10101000070039000541b1000982cf000400390002
:101020000541b1000882cf00010039000541b1003f
:1010300005425200120032000a003b00828171001a
:10104000610164008100d1000080d3008984d30055
:101050000884d3008b05e8000442e800f7ff3a005b
:10106000070037000804440089844c000000480051
:10107000818048008b05e9000442e900f9ff3a004d
:10108000030007004f05be004f04be00000006002d
:1010900081002000618055000b003d000b00200006
:1010a00061fe2f000100e1001d003400828171000b
:1010b000610164008904d1000884d3000000e800c5
:1010c000faff3a0071002000610064000300700024
:1010d000020060000900320061044400e0844c001a
:1010e0000988a500050032008b05e8006808e100ca
:1010f00002003a008904d1000884d300f20f2000d6
:101100000258e10005003d00c75ddd00f907b200af
:101110008980750008007800000006000bf82700a1
:101120008b007800000005000004be0079fd070078
:101130000003be000405be000200be0075fd0700ee
:08114000844f75000000060059
:020000040000fa
:101148000000fa009a21ef009c21ef00d10c8000ea
:1011580000c0210001007000d00c8800e00c800065
:10116800f001b300e00c88009ce1a900d10c8000dc
:1011780080ff2f00008060006000b300d00c880062
:1011880031058000f08f2f00808060000050200023
:10119800010070003005880094c0a80084c0a90030
:1011a800a421ef00a621ef00210d800000c021003e
:1011b80001007000200d8800300d8000f001b300a0
:1011c800300d8800a6e1a900210d800080ff2f00c6
:1011d800008060006000b300200d88008105800059
:1011e800f0f82f00008060000060a00080058800f3
:1011f8009720a8008720a900c002a900e004a90040
:10120800e024a900c022a9000080fa00000006001e
:101218000000fa0005e1a800210880000003200072
:1012280001007000200888000421a9000021ef00b7
:101238000080fa00000006000000fa0041e3a9005f
:101248004143a800011a8000f0cf2f000080600001
:10125800001a8800011a8000f0f02f0080806000da
:101268000007200001007000001a88004043a80011
:10127800111a8000f0ff230000806000101a880017
:1012880043a3a9004363a8004343a800111a8000a0
:1012980030f82f00008060008001b300101a880029
:1012a8004203a90045e3a900211a8000f00f2e008f
:1012b800008060000080a000201a8800f0c3b300fe
:1012c80044e3b7000080fa00000006000000fa00be
:1012d800c842a800e244a8005083a800c042a80061
:1012e800e044a80051a3a800c062a800e064a800d8
:1012f80051c3a800c982a800e384a8005183a800ac
:10130800c9a2a800e3a4a8005163a800c9c2a80004
:10131800e3c4a8005143a8000080fa0000000600ba
:101328000000fa0041e3a8000080fa00000006006f
:101338000000fa00c082a800c882a800e284a900c0
:101348000080fa00000006000000fa009021ef007b
:101358009221ef00810c8000f03f2e000080600099
:1013680000c0a000800c8800900c8000f001b30041
:10137800900c880092e1a900810c800080ff2f006a
:10138800008060006000b300800c880021058000a8
:10139800f08f2f000080600000a0a00020058800ca
:1013a8009440a9009421ef009621ef000080fa00f4
:1013b800000006000000fa00c8e2a9000080fa0058
:1013c800000006000000fa00c9e2a800e3e4a80053
:1013d8005123a8000080fa00000006000000fa006f
:1013e800c902a9000080fa00000006000000fa0007
:1013f800c922a8000080fa00000006000200fa00d6
:1014080041188000007d2000808f500003003600c6
:1014180010002000000f7800020037000000eb00e9
:10142800000f78001e0078000080fa000000060017
:101438000200fa00d1188000007d2000808f500043
:101448000300360010002000000f7800020037006b
:101458000000eb00000f78001e0078000080fa0002
:10146800000006000200fa00e1188000007d20005c
:10147800808f50000300360010002000000f780015
:10148800020037000000eb00000f78001e00780013
:101498000080fa00000006000200fa00c11880006f
:1014a80000c82000808f5000030036001000200084
:1014b800000f7800020037000000eb00000f7800f2
:1014c8001e0078000080fa00000006000200fa0002
:1014d800b1188000409c2000808f50000300360027
:1014e80010002000000f7800020037000000eb0019
:1014f800000f78001e0078000080fa000000060047
:101508000200fa00a118800000af2000808f500070
:101518000300360010002000000f7800020037009a
:101528000000eb00000f78001e0078000080fa0031
:10153800000006000200fa00d118800080bb2000dd
:10154800808f50000300360010002000000f780044
:10155800020037000000eb00000f78001e00780042
:101568000080fa00000006000000fa0090188000d1
:101578000080fa00000006000000fa0000fa2000cf
:10158800f00c8800007d2000000d880000fa200083
:10159800400d8800007d2000500d8800c402a8007e
:1015a800c422a9000080fa00000006000000fa002a
:1015b80080bb2000f00c8800c05d2000000d880072
:1015c80080bb2000400d8800c05d2000500d8800c1
:1015d800c402a800c422a9000080fa000000060086
:1015e8000000fa0000772100f00c880080bb200082
:1015f800000d880000772100400d880080bb200086
:10160800500d8800c402a800c422a9000080fa0076
:10161800000006000000fa0000fa2000f00c880024
:10162800007d2000000d880080bb2000400d880050
:10163800c05d2000500d8800c402a800c422a90083
:101648000080fa00000006000000fa0080bb2000bd
:10165800f00c8800c05d2000000d880000fa200012
:10166800400d8800007d2000500d8800c402a800ad
:10167800c422a9000080fa00000006000000fa0059
:1016880000e22400f00c880000712200000d8800a0
:1016980080bb2000400d8800c05d2000500d8800f0
:1016a800c402a800c422a9000080fa0000000600b5
:1016b8000000fa0080bb2000f00c8800c05d20000c
:1016c800000d880000e22400400d8800007122000f
:1016d800500d8800c402a800c422a9000080fa00a6
:1016e800000006000000fa009e21ef00a021ef0094
:1016f800a821ef00aa21ef000080fa0000000600f0
:101708000200fa00000f78001e0078000000e000d8
:1017180002003200d9ff070001003700e4ff07008c
:101728000080fa00000006000200fa00000f7800ae
:101738001e00780000407800614060000080fb00d7
:10174800610060004700dd00611680000170a100a3
:1017580001007000601688000080fa000000060092
:101768000000fa0060182000a00c8800e0012000aa
:10177800b00c88000080fa00000006000000fa00a3
:1017880060182000a00c8800a0002000b00c880081
:101798000080fa00000006000000fa00601820002f
:1017a800a00c880020012000b00c88000080fa00fe
:1017b800000006000000fa009421ef009621ef00d7
:1017c8000080fa00000006000000fa00cd02a80020
:1017d8000080fa00000006000000fa00cd02a9000f
:1017e8000080fa00000006000000fa00b00c80003b
:1017f800ea0f50000f00360001088000007d20002d
:10180800808f50000d003600b00c80008000eb0087
:10181800bcfb0700d2cc2c00c3dc2300d0fb0700a4
:101828009afb070000007800b00c88000021ef0048
:101838000200370090012000b00c88000080fa00f8
:10184800000006000600fa0040832000000f780020
:1018580000e224001e0050000000e00002003d00ed
:10186800f1ff2000010040004c80de00411880009c
:101878000180b900000078009e00780081004000d7
:101888000e80e800010878000e80e800100078005b
:10189800f00c88000e80e80010007800cf00de0011
:1018a800008040000080d100000d880000e2240084
:1018b8001e0050000000e00002003d00f1ff200083
:1018c800010040004c80de00e11880000180b90072
:1018d800000078009e007800810040006400470006
:1018e800010878006400470010007800400d880067
:1018f8006400470010007800cf00de000080400040
:101908000080d100500d8800c402a800c422a9009c
:101918000080fa00000006000400fa00008fbe00f4
:1019280060182000a00c88001e00be0057fb0700ae
:1019380000007800b00c88000080fa000000060063
:101948000600fa00881f780090012000000f780038
:10195800910120000e80e800010878008000eb006b
:1019680064004700010878000021ef0024003700d8
:101978001e007800cf80de005ffb0700e6ff07004f
:10198800000880008000eb005efb070018c0b30071
:1019980002c027002359240019fb07000000e000bb
:1019a80001003d000044eb000804e0001400320090
:1019b8000021ef00ecfe0700e400470091007800ea
:1019c800810f500006003400e7fe07008000780011
:1019d80064004700010878000e80e8001e087800bf
:1019e8001e007800cf80de0043fb0700d2cc2c001d
:1019f800c3e423005afb070003fb0700000f78002d
:101a08001e007800e90f5000d9ff3c000e80e80066
:101a180010007800cf80de0037fb0700beff07000c
:101a28004f0478000080fa00000006000000fa0069
:101a3800c3fd07002bff0700fffd070061fe07003d
:101a480022fe0700f2fd070039fe07003efe0700f0
:101a580058fe070032fe070060fe070063fe07001d
:101a68001428ef001628ef001828ef001a28ef00b6
:101a78001c28ef001e28ef002028ef002228ef0086
:101a88002428ef00bcfe07003cff07000100070008
:101a9800feff37000000fa00a0408000e30f50006e
:101aa80064003200e30f500005003e00e10f5000d3
:101ab80012003200e10f500056003e0007003700c8
:101ac800e50f50006b003200e50f5000610039004f
:101ad800e60f500072003200830037005f020700f3
:101ae800604080000000e000700032000c28ef0029
:101af80010002000a04088007b0037007c00070011
:101b08006a010700604080000000e0002400320005
:101b18000c28ef000828ef0070418000e20f500009
:101b28000a003a0020002000a04088007041800090
:101b38000000e8007041880011002000a00a200081
:101b48009603070014ff0700670037007041800004
:101b5800e30f500009003a00704180000000e800df
:101b68007041880030002000a0408800110020004b
:101b780060092000890307005b003700704180007e
:101b8800e40f50004b003a0040002000a0408800bd
:101b98001100200060092000800307005200370070
:101ba8005116800000202000008060000000e00046
:101bb8000d003a00804080000000e0000a003a0072
:101bc800904080000000e000070032001000200074
:101bd80080408800c3fe07000021ef00500020006d
:101be800a04088004000370045fe07000000e000e4
:101bf80032003200804080000000e00031003200f6
:101c080060002000a0408800b6fe07000021ef0019
:101c1800350037002d020700604080000000e0001a
:101c28002a0032000c28ef0010002000a040880095
:101c38002d003700c2010700604080000000e0006e
:101c4800240032000c28ef0010002000a04088007b
:101c58002500370055010700604080000000e000c3
:101c68001e0032000c28ef0010002000a040880061
:101c78001d00370010002000804088008002070007
:101c8800604080000000e000160032000c28ef00e1
:101c980010002000a04088000021ef00120037004b
:101ca800cb020700000000000f0037000000000012
:101cb8000d003700000000000b0037000000000096
:101cc800090037000000000007003700000000008e
:101cd8000500370000000000030037000000000086
:101ce80001003700000000000080fa000000060034
:101cf8000000fa00b0408000e20f50004f003200b0
:101d0800e20f500005003e000000e0000a0032002b
:101d1800e10f500024003200e2003700e40f5000c9
:101d28008f003200e40f500068003900e50f5000c2
:101d3800af003200db003700b0fd07000000e00014
:101d48000b003200bafd07000000e000040032007a
:101d580030fe070010002000b0408800d100370096
:101d680046fe070030002000b0408800cd00370054
:101d7800bcfd07000000e000bf003200acfd07001a
:101d88000000e000040032002ffe070020002000c1
:101d9800b0408800c300370045fe0700400020001f
:101da800b0408800bf003700100020005040880075
:101db80092fd07000000e000070032009cfd0700cc
:101dc8000000e000ae003a002cfe070030002000c2
:101dd800b0408800b3003700a2fd07000000e00013
:101de8000b00320092fd07000000e0000400320002
:101df80015fe070020002000b0408800a900370029
:101e08002bfe070040002000b0408800a5003700e6
:101e180087fd07000000e00003003200e3fd070033
:101e28001628ef009f00370050002000b0408800bf
:101e38005040800032fe07009a0037000a28ef0061
:101e48006efd07000000e0000b00320078fd07007f
:101e58000000e00004003200eefd07001000200042
:101e6800b04088008f00370004fe070030002000d3
:101e7800b04088008b0037007afd07000000e000c2
:101e8800070032006afd07000000e0007e003a000b
:101e980007fe070040002000b0408800810037009e
:101ea80063fd07000000e00003003200bffd0700eb
:101eb8001628ef007b00370050002000b040880053
:101ec800504080000efe070076003700100020000a
:101ed8005040880049fd07000000e000070032007c
:101ee80053fd07000000e00069003200c9fd07004b
:101ef80010002000b04088006a00370059fd070034
:101f08000000e0000b00320049fd07000000e0007f
:101f180004003200ccfd070020002000b0408800fb
:101f280060003700e2fd070040002000b040880054
:101f38005c0037003efd07000000e00003003200af
:101f48009afd07001628ef005600370050002000c1
:101f5800b040880050408000e9fd0700510037007c
:101f68000a28ef0025fd07000000e0000b00320002
:101f78002ffd07000000e00004003200a5fd070067
:101f880010002000b040880046003700bbfd070065
:101f980030002000b04088004200370031fd0700c3
:101fa8000000e0000700320021fd07000000e0000b
:101fb80039003200a4fd070020002000b04088004e
:101fc800380037001afd07000000e0000300320067
:101fd80076fd07001628ef00320037005000200079
:101fe800b040880050408000c5fd07002d00370034
:101ff80002fd07000000e0000b0032000cfd0700a6
:102008000000e0000400320082fd070010002000fc
:10201800b04088002300370098fd070030002000fa
:10202800b04088001f0037000efd07000000e000e8
:102038000b003200fefc07000000e0000400320044
:1020480081fd070020002000b040880015003700ff
:1020580097fd070040002000b040880011003700bd
:10206800f3fc07000000e0000d0032004ffd070000
:102078001628ef000b0037000000000009003700a9
:1020880000000000070037000000000005003700ce
:1020980000000000030037000000000001003700c6
:1020a800000000000080fa00000006000000fa00ae
:1020b800c0408000e10f50000e003200e10f5000d8
:1020c80003003900e20f50001b00320035003700d2
:1020d800f1fc07000000e0002d0032001000200095
:1020e800c04088000428ef009720a8000828ef00c7
:1020f8002c0037002140800030062000808f5000df
:10210800030034001828ef009720a90025003700a5
:10211800e1fc07000000e0001f003a00404080009a
:102128000000e800404088000428ef00200020005c
:10213800c04088001b003700214080003006200086
:10214800808f5000030034001828ef009720a90062
:10215800140037004140800070418000808f50009b
:1021680004003a0010002000604088001828ef00a2
:102178000c003700c8fc07000000e000080032002f
:1021880010002000c04088009720a90005003700f3
:1021980000000000030037000000000001003700c5
:1021a800000000000080fa00000006000000fa00ad
:1021b800d0408000e20f500031003200e20f5000a2
:1021c80005003e000000e00008003200e10f50006a
:1021d8000e00320058003700e30f50003000320084
:1021e800e40f5000400032005300370011408000d7
:1021f80030408000808f50004600350010002000dd
:10220800d0408800f6fc07004b0037001000200083
:1022180045fd070010168000700060000000e00017
:102228000e003a0020002000d040880050168000a0
:10223800700060000000e00004003a008000eb003d
:10224800a0052000a20107003b0037001100200074
:10225800a00520009e01070037003700b5fc0700e5
:102268000000e0002d00320030002000d04088003f
:102278001100200060042000c80107002e0037006c
:102288001140800030408000808f500025003500cc
:1022980010002000d0408800d1fc0700260037003d
:1022a8001140800030408000808f50001f003500b2
:1022b80040002000d0408800501680007000600068
:1022c8000000e00004003a008000eb00a0052000b8
:1022d8007f0107001800370011002000a00520002a
:1022e8007b010700140037000000eb000efd07001b
:1022f8001140800030408000808f50000d00350074
:1023080010002000604088001000200090408800e5
:102318000900370000000000070037000000000037
:10232800050037000000000003003700000000002f
:1023380001003700000000000080fa0000000600dd
:102348000000fa00e0408000e10f50001d0032005c
:10235800e10f500005003900e20f50002300320061
:10236800e30f50002d0032003a0037001140800082
:1023780030408000808f50002f00350053fc07004c
:102388000000e000080032008000eb00a0052000fb
:102398004f01070010002000e040880010002000d6
:1023a800704088002b00370011002000a005200095
:1023b8004701070010002000e04088000e28ef00c9
:1023c800240037001140800030408000808f50008a
:1023d8001b0035000021ef0020002000e0408800ad
:1023e800c0fc0700defc07001a0037000108800067
:1023f80080d02300808f500013003600704080008a
:1024080080007800a005200031010700300020007e
:10241800e0408800d9fc07000e003700114080001a
:1024280030408000808f50000900350010002000e7
:1024380060408800070037000000000005003700f2
:102448000000000003003700000000000100370012
:10245800000000000080fa00000006000000fa00fa
:10246800f04080000000e00003003200e10f50005f
:102478000a0032001300370007fc07000000e000e4
:102488000d00320011002000a005200010010700f7
:1024980010002000f04088000a003700114080003a
:1024a80030408000808f500005003500100020006b
:1024b800604088000300370000000000010037007a
:1024c800000000000080fa00000006000000fa008a
:1024d800881f780000418000e30f5000330032006d
:1024e800e30f500005003e00e10f500013003200da
:1024f800e10f500023003e0007003700e50f5000b1
:102508003e003200e50f500031003900e60f500060
:1025180044003200570037001140800030408000ee
:10252800808f5000460035001000200000418800d0
:102538006cfc07000021ef004e0037000008800007
:102548008000eb006ff8070018c0b30002002500f8
:10255800335424002af807000000e00001003c0082
:102568000044eb000804e00037003200200020009f
:10257800004188008000eb0080052000d40007009f
:102588003c0037001140800030408000808f5000b0
:102598002f00350030002000004188001100200085
:1025a800600e2000fd000700320037001140800057
:1025b80030408000808f50002700350049fc07001c
:1025c80040002000004188000021ef00290037006a
:1025d8000108800090d02300808f50002000360032
:1025e8008000eb00600e2000ec0007005000200087
:1025f8000041880061fc07001e0037001140800080
:1026080030408000808f50001700350011002000f6
:1026180080052000ae00070060002000004188000f
:10262800140037001140800030408000808f500037
:102638000f00350010002000604088000d003700b2
:10264800000000000b003700000000000900370000
:1026580000000000070037000000000005003700f8
:1026680000000000030037000000000001003700f0
:10267800000000004f0478000080fa000000060007
:102688000000fa00881f780010418000e20f500017
:1026980028003200e20f500005003e000000e00074
:1026a80008003200e10f50001800320045003700e2
:1026b800e30f500029003200e40f500031003200cf
:1026c80040003700000880008000eb000df807008c
:1026d80018c0b30002002500334c2400c8f70700d7
:1026e8000000e00001003d000044eb000804e000a9
:1026f8002b00320010002000104188008000eb0001
:10270800a0052000720007002e003700114080004d
:1027180030408000808f50002300350020002000ca
:102728001041880011002000600e2000c000070042
:10273800240037001140800030408000808f500016
:102748001b00350030002000104188008000eb009d
:10275800600e2000910007001a0037001140800029
:1027680030408000808f500013003500400020006a
:102778001041880011002000a00520005400070027
:10278800100037001140800030408000808f5000da
:102798000b00350010002000604088000900370059
:1027a80000000000070037000000000005003700a7
:1027b800000000000300370000000000010037009f
:1027c800000000004f0478000080fa0000000600b6
:1027d8000000fa00881f780020418000e20f5000b6
:1027e80026003200e20f500005003e000000e00025
:1027f80006003200e10f50001600320031003700a9
:10280800e30f5000250032002e003700000880003a
:102818008000eb00bbf7070018c0b30002002500da
:102828003354240076f707000000e00001003d0063
:102838000044eb000804e0001d0032008000eb00bb
:1028480060052000220007001000200020418800b9
:102858001c0037001140800030408000808f5000fd
:102868001500350020002000204188008000eb0082
:10287800c0262000490007001200370011408000e0
:1028880030408000808f50000d003500300020005f
:102898002041880093fb07000a00370028fc070046
:1028a800c9fb0700400020002041880005003700d0
:1028b800000000000300370000000000010037009e
:1028c800000000004f0478000080fa0000000600b5
:1028d8000400fa00000f78000e80e8000108780074
:1028e8001e007800cf80de0083f707000002be00dc
:1028f80030418000414180000001be000400be005c
:1029080085f8070040f7070000007800304088008d
:1029180094c0a8000228ef0080b52100f00c8800c0
:10292800f00c80000000d100000d880080b5210067
:10293800400d8800400d80004300de00500d8800e7
:102948000e80e800100078000040780061406000c8
:102958000080fb0061006000211680000100a100da
:1029680001007000201688000e80e8001000780032
:1029780000407800614060000080fb00610060005a
:1029880000004000211680000110a1000100700025
:10299800201688000080fa00000006000400fa00f3
:1029a800000f78000e80e800010878001e0078000b
:1029b800cf80de0050f707000002be0050418000c3
:1029c800614180000001be000400be0052f807000b
:1029d8000df7070000007800304088000228ef005b
:1029e80094c0a80000ee2200f00c880000772100b7
:1029f800000d880000ee2200400d880000772100bd
:102a0800500d88000e80e800100078000000e000fb
:102a180003003200c402a800c422a9000200370043
:102a2800c402a900c422a8000080fa000000060021
:102a38000400fa00000f78000e80e8000108780012
:102a48001e007800cf80de002bf707000002be00d2
:102a580050418000614180000001be000400be00ba
:102a68002df80700e8f607000000780030408800dd
:102a78000228ef0094c0a80000ee2200f00c8800a5
:102a880000772100000d880000ee2200400d88002c
:102a980000772100500d88000e80e80010007800b3
:102aa8000000e00003003200c402a800c422a9000c
:102ab80002003700c402a900c422a8000080fa005e
:042ac8000000060004
:020000040000fa
:102acc00000800002600000000000000260800009e
:102adc000a000000020000009a996900409a9900cf
:0c2aec0009400200000000000000000093
:020000040000fa
:0200000401f009
:04000c00d8ff000019
:00000001FF
