:020000040000fa
:080000000002040000000000f2
:020000040000fa
:04000800fe020000f4
:020000040000fa
:04000c00fe020000f0
:020000040000fa
:04001000fe020000ec
:020000040000fa
:04001400fe020000e8
:020000040000fa
:04001800fe020000e4
:020000040000fa
:04001c00fe020000e0
:020000040000fa
:04002000fe020000dc
:020000040000fa
:04002400fe020000d8
:020000040000fa
:04002800fe020000d4
:020000040000fa
:04002c00fe020000d0
:020000040000fa
:04003000c802000002
:020000040000fa
:04003400fe020000c8
:020000040000fa
:04003800fe020000c4
:020000040000fa
:04003c00fe020000c0
:020000040000fa
:04004000da020000e0
:020000040000fa
:04004400fe020000b8
:020000040000fa
:04004800fe020000b4
:020000040000fa
:04004c00fe020000b0
:020000040000fa
:04005000fe020000ac
:020000040000fa
:04005400fe020000a8
:020000040000fa
:04005800fe020000a4
:020000040000fa
:04005c00fe020000a0
:020000040000fa
:04006000fe0200009c
:020000040000fa
:04006400fe02000098
:020000040000fa
:04006800fe02000094
:020000040000fa
:04006c00fe02000090
:020000040000fa
:04007000fe0200008c
:020000040000fa
:04007400fe02000088
:020000040000fa
:04007800fe02000084
:020000040000fa
:04007c00fe02000080
:020000040000fa
:04008000fe0200007c
:020000040000fa
:04008400fe02000078
:020000040000fa
:04008800fe02000074
:020000040000fa
:04008c00ec02000082
:020000040000fa
:04009000fe0200006c
:020000040000fa
:04009400fe02000068
:020000040000fa
:04009800fe02000064
:020000040000fa
:04009c00fe02000060
:020000040000fa
:0400a000fe0200005c
:020000040000fa
:0400a400fe02000058
:020000040000fa
:0400a800fe02000054
:020000040000fa
:0400ac00fe02000050
:020000040000fa
:0400b000fe0200004c
:020000040000fa
:0400b400fe02000048
:020000040000fa
:0400b800fe02000044
:020000040000fa
:0400bc00fe02000040
:020000040000fa
:0400c000fe0200003c
:020000040000fa
:0400c400fe02000038
:020000040000fa
:0400c800fe02000034
:020000040000fa
:0400cc00fe02000030
:020000040000fa
:0400d000fe0200002c
:020000040000fa
:0400d400fe02000028
:020000040000fa
:0400d800fe02000024
:020000040000fa
:0400dc00fe02000020
:020000040000fa
:0400e000fe0200001c
:020000040000fa
:0400e400fe02000018
:020000040000fa
:0400e800fe02000014
:020000040000fa
:0400ec00fe02000010
:020000040000fa
:0400f000fe0200000c
:020000040000fa
:0400f400fe02000008
:020000040000fa
:0400f800fe02000004
:020000040000fa
:0400fc00fe02000000
:020000040000fa
:04010000fe020000fb
:020000040000fa
:04010400fe020000f7
:020000040000fa
:04010800fe020000f3
:020000040000fa
:04010c00fe020000ef
:020000040000fa
:04011000fe020000eb
:020000040000fa
:04011400fe020000e7
:020000040000fa
:04011800fe020000e3
:020000040000fa
:04011c00fe020000df
:020000040000fa
:04012000fe020000db
:020000040000fa
:04012400fe020000d7
:020000040000fa
:04012800fe020000d3
:020000040000fa
:04012c00fe020000cf
:020000040000fa
:04013000fe020000cb
:020000040000fa
:04013400fe020000c7
:020000040000fa
:04013800fe020000c3
:020000040000fa
:04013c00fe020000bf
:020000040000fa
:04014000fe020000bb
:020000040000fa
:04014400fe020000b7
:020000040000fa
:04014800fe020000b3
:020000040000fa
:04014c00fe020000af
:020000040000fa
:04015000fe020000ab
:020000040000fa
:04015400fe020000a7
:020000040000fa
:04015800fe020000a3
:020000040000fa
:04015c00fe0200009f
:020000040000fa
:04016000fe0200009b
:020000040000fa
:04016400fe02000097
:020000040000fa
:04016800fe02000093
:020000040000fa
:04020800fe020000f2
:020000040000fa
:04020c00fe020000ee
:020000040000fa
:04021000fe020000ea
:020000040000fa
:04021400fe020000e6
:020000040000fa
:04021800fe020000e2
:020000040000fa
:04021c00fe020000de
:020000040000fa
:04022000fe020000da
:020000040000fa
:04022400fe020000d6
:020000040000fa
:04022800fe020000d2
:020000040000fa
:04022c00fe020000ce
:020000040000fa
:04023000c802000000
:020000040000fa
:04023400fe020000c6
:020000040000fa
:04023800fe020000c2
:020000040000fa
:04023c00fe020000be
:020000040000fa
:04024000da020000de
:020000040000fa
:04024400fe020000b6
:020000040000fa
:04024800fe020000b2
:020000040000fa
:04024c00fe020000ae
:020000040000fa
:04025000fe020000aa
:020000040000fa
:04025400fe020000a6
:020000040000fa
:04025800fe020000a2
:020000040000fa
:04025c00fe0200009e
:020000040000fa
:04026000fe0200009a
:020000040000fa
:04026400fe02000096
:020000040000fa
:04026800fe02000092
:020000040000fa
:04026c00fe0200008e
:020000040000fa
:04027000fe0200008a
:020000040000fa
:04027400fe02000086
:020000040000fa
:04027800fe02000082
:020000040000fa
:04027c00fe0200007e
:020000040000fa
:04028000fe0200007a
:020000040000fa
:04028400fe02000076
:020000040000fa
:04028800fe02000072
:020000040000fa
:04028c00ec02000080
:020000040000fa
:04029000fe0200006a
:020000040000fa
:04029400fe02000066
:020000040000fa
:04029800fe02000062
:020000040000fa
:04029c00fe0200005e
:020000040000fa
:0402a000fe0200005a
:020000040000fa
:0402a400fe02000056
:020000040000fa
:0402a800fe02000052
:020000040000fa
:0402ac00fe0200004e
:020000040000fa
:0402b000fe0200004a
:020000040000fa
:0402b400fe02000046
:020000040000fa
:0402b800fe02000042
:020000040000fa
:0402bc00fe0200003e
:020000040000fa
:0402c000fe0200003a
:020000040000fa
:0402c400fe02000036
:020000040000fa
:0402c800fe02000032
:020000040000fa
:0402cc00fe0200002e
:020000040000fa
:0402d000fe0200002a
:020000040000fa
:0402d400fe02000026
:020000040000fa
:0402d800fe02000022
:020000040000fa
:0402dc00fe0200001e
:020000040000fa
:0402e000fe0200001a
:020000040000fa
:0402e400fe02000016
:020000040000fa
:0402e800fe02000012
:020000040000fa
:0402ec00fe0200000e
:020000040000fa
:0402f000fe0200000a
:020000040000fa
:0402f400fe02000006
:020000040000fa
:0402f800fe02000002
:020000040000fa
:0402fc00fe020000fe
:020000040000fa
:04030000fe020000f9
:020000040000fa
:04030400fe020000f5
:020000040000fa
:04030800fe020000f1
:020000040000fa
:04030c00fe020000ed
:020000040000fa
:04031000fe020000e9
:020000040000fa
:04031400fe020000e5
:020000040000fa
:04031800fe020000e1
:020000040000fa
:04031c00fe020000dd
:020000040000fa
:04032000fe020000d9
:020000040000fa
:04032400fe020000d5
:020000040000fa
:04032800fe020000d1
:020000040000fa
:04032c00fe020000cd
:020000040000fa
:04033000fe020000c9
:020000040000fa
:04033400fe020000c5
:020000040000fa
:04033800fe020000c1
:020000040000fa
:04033c00fe020000bd
:020000040000fa
:04034000fe020000b9
:020000040000fa
:04034400fe020000b5
:020000040000fa
:04034800fe020000b1
:020000040000fa
:04034c00fe020000ad
:020000040000fa
:04035000fe020000a9
:020000040000fa
:04035400fe020000a5
:020000040000fa
:04035800fe020000a1
:020000040000fa
:04035c00fe0200009d
:020000040000fa
:04036000fe02000099
:020000040000fa
:04036400fe02000095
:020000040000fa
:04036800fe02000091
:020000040000fa
:100400008f8120000eff20000e01880000000000f8
:10041000000020000000e000020032000001200087
:100420002002880014000700760007000000e000aa
:1004300003003a00e0f12000010020000200370034
:100440000000200001002000810f70000100320038
:1004500014000700000020000000e000020032004d
:100460000000020000000000480b02000000000035
:100470000040da000000fe004440a9000000200017
:100480000000e0000300320000002000a00188000e
:100490004440a800000006008a1f78008b1f7800e7
:1004a0000000060091018800800478000000eb0045
:1004b0001a003700e284440032a0b4009905ba0063
:1004c000e284440032a0b4009906ba00e2844400f9
:1004d00032a0b4000006eb00476fde00fd07b2005b
:1004e000636ce10003003a00ebff07000000eb0043
:1004f0000a003700606ce10004003a00005deb0088
:100500008b05e900fdff3e00040037006168e10053
:10051000010032000086eb000b00070019c7ba008b
:100520001905ba000e04e00003003a000a00e000da
:10053000e0ff3a0000000600fe07b2009e018800be
:100540008a047800f5ff3700395dba008b05e900b1
:100550000c003200295dba008b05e900080032006a
:100560000c00e00003003a00e284440032a0b40032
:10057000f5ff370019ddba008b05e900faff3a00f4
:100580008904e800e184440032a0b40000000600c1
:10059000801f78000000fa008440a900004080001d
:1005a0000000e800004088000080fa004f0078005a
:1005b00000400600801f78000000fa0084c0a900f7
:1005c000104080000000e800104088000080fa0021
:1005d0004f00780000400600801f78000000fa00fd
:1005e0008720a900204080000000e800204088000b
:1005f0000080fa004f007800004006000040da005a
:100600000000fe00000005000001be003f000700e2
:100610000470a70003f0a1006509b10016003200c4
:100620000d0035006828e10006003500f0ff2f00be
:10063000f1ff27000300e00013003b000100280049
:100640000000050000004000818048008502e900ac
:10065000fcff3a0008003700f88f420002003c001f
:100660008000eb00000005008100d1000080d30075
:100670008502e800fcff3a000300e00002003b00b6
:1006800060001000e0801800000006000001be00bd
:100690001e0007000470a70003f0a10003f8a300e8
:1006a00013003a006509b10010003200090035005e
:1006b0006928e10002003500010028000000050063
:1006c00000004000818048008502e900fcff3a00fc
:1006d00000000600f88f4200050035008100d100bf
:1006e0000080d3008502e800fcff3a00000006000d
:1006f0008000eb00000005004f89de0082017800d9
:10070000070237006011b80015023700c70ade0083
:10071000f107b200f50fb20008003200e1cf42004d
:10072000020032000170a00024000500810f70005b
:10073000010032000408050044000500810f70002c
:1007400002003a00140005008502e90000004000a4
:1007500081c04800fcff3b000170a00024000500a0
:1007600007f82700078361000638e10004003a001b
:10077000f7072000878361008703710001003a00ba
:1007800003f0a200889fbe008a9fbe008c9fbe001f
:10079000470ade000480a100c71ade000580a10020
:1007a000070028000785600087856100f70f20009b
:1007b0000720e1009e0032000728e1009c00320083
:1007c000010678000400e000b4003200f7072000c2
:1007d000878060000170a0000500e000c0003200ca
:1007e000f7072000878161000370a0000506520012
:1007f0000f003a000b50e1000b0032000308e1004b
:1008000002003a000200e1007e00320002045000c3
:1008100083845800040031000001fd008101fd00c7
:100820008402fd008a05fd006044b8002100370005
:100830000520e10005003d000001fd008101fd00f3
:100840008402fd008a05fd00050652007a60e10081
:10085000050035000170a1004722dd008480700092
:100860008a807000630037006044b800ef026600c1
:1008700007ff2f00070666000500e00006003400b1
:10088000f08312008714dd000511de00071bdd0078
:10089000060171008519de007060e1000500350079
:1008a0000904780082047800030178008001eb00dd
:1008b000700656000b50e10003003a0002004000b1
:1008c000838048000400370060041400e0841c00aa
:1008d00002005800838058000188a30006003200ff
:1008e0008100d1000080d3008984d3000884d30024
:1008f0000402e800270037000178a30025003a0031
:100900000100e000030032008186cf0069865600b6
:100910000a0037008c0020000000e00004003a00cc
:1009200009007800880478000004eb00700252008f
:100930008086cf000d0646000c06e9007060e100dd
:1009400006003500800078000900780088047800ef
:100950000004eb0070065600700252000c00e0002c
:100960000c0034008c08dd00f00316000703de00e5
:10097000868070000c00dd00074bde000600700072
:100980008c4cdd000743de00868474000c44dd00df
:100990000c0252006120e10020003500610160007e
:1009a0000700280087816400f7ff27008783640021
:1009b000070374000300e0000600320082037300a6
:1009c000040032000000e800e08048000188a30035
:1009d0000e003a00f70f20000720e1004a003d001a
:1009e0000170a1004722dd00810072008a80700042
:1009f0000000be004f06be004f05be004f04be0003
:100a0000000006006000b800faff37008100d10046
:100a10000080d3000402e800eeff370004017800f4
:100a200089017400c20007008a807000f1ff37005e
:100a300018010700070278000001fd008101fd0098
:100a40001401070087027800850372000778a3006d
:100a5000040032000001fd008101fd0027010700b4
:100a6000e4ff3700850362000768a3000800320036
:100a70000b50e10003003200f0ff2f00f1ff2700d0
:100a8000dcff37000001fd008101fd00d9ff3700c8
:100a90000468a300d7ff3200faff3700f8ff2700f1
:100aa000888360000b003a000000e00009003a0073
:100ab0008303640082837300020032000200be00e0
:100ac000ccff37000b50e100ceff3a000200be0021
:100ad000c8ff370014002000810064003eff37008b
:100ae000f8ff27008883610004003a000200e0005c
:100af00002003a008c007800beff3700150020008d
:100b00008301640039ff370001f82700000020004e
:100b100081007500b7ff37000383680007002800d5
:100b200007036300470ade000480a100c71ade0045
:100b30000580a100f70f20000720e10042003200ed
:100b40000728e10040003200889fbe008a9fbe0057
:100b50008c1f7800f107b200f307b2000400e00038
:100b6000640032000170a0000500e000680032005f
:100b70000370a00085054200eb07b1000204b80035
:100b80000302b8008484440060854a00020ab80069
:100b9000848444000a854a00030ab800040545001d
:100ba000040033000804d0008984d2000a85d200f2
:100bb0008b05e9006158e1003d003500021020007e
:100bc000090161000308200089816100f707200006
:100bd0008783640008867300c84cde00c853dd00bc
:100be000878474004855de000300e00006003200f0
:100bf00082037600040032008904e80060054d009d
:100c00000a88a3000c003a00f70f20000758e10003
:100c100044003d000a70a100c75ddd000a85750033
:100c20008a007300090078004f0678004f05be0067
:100c30004f04be00000006000a05d1008984d300dd
:100c40008b05e800f0ff3700881f78000604780065
:100c500090000700070278000001fd008101fd00ff
:100c60008c00070087027800850372000778a300d4
:100c7000050032000001fd008101fd009f0007001a
:100c80004f04780000000600850372000748a300a7
:100c900003003200f0ff2f00f1ff2700f8ff3700bc
:100ca0000000200001f8270088807000f4ff370062
:100cb000880178004848dd00808171004848de00e6
:100cc000c850dd0001007000c850de000604780046
:100cd0000b0178001600070088807000d2ff3700f3
:100ce0000500e00005003200170020003a00070070
:100cf0009dff370081037000f9ff3a0086007800fd
:100d00004f0678004f05be004f04be0000000500ee
:100d100083037100f9ff3200270020002e00070036
:100d200094ff370001f8270086807000f4ff370039
:100d30000100e00026003200610111007810e1009e
:100d400023003c006022b8007010e1000400350070
:100d500080027800010078008000eb0070015100f3
:100d60000200e0000900340070031100062add00d3
:100d7000822ade008603dd00878272000200de0028
:100d8000860bdd00070070008208de0084817100a0
:100d9000f4ff2700048262008481710004002800af
:100da000848262006102600005f0a6000000060077
:100db00004827100070032000000e800e080480073
:100dc000000006000002be006000b800efff370020
:100dd0006000b80000000600889fbe000004eb0021
:100de0006138e10016003a000100e00008003a0016
:100df000c800de004800dd00880020000100e0009f
:100e000003003a00c800de004800dd00680444002a
:100e10008184cf00e9845400060034008908dd0095
:100e2000f08314008703de00878070000900dd0076
:100e300009044400610214004f04be0000000600d3
:100e40000300e00008003a00c811de004811dd0090
:100e5000880020000300e00003003a00c811de0013
:100e60004811dd00680444008384cf00e984540005
:100e7000060034008919dd00f08314008713de00ba
:100e8000878171000911dd0009044400e1021400aa
:100e9000e9ff37002700200001f0a700170020001d
:100ea000470bde00f60fb200040032000643e800f4
:100eb0000a0032004702b300000006000103780078
:100ec000f607b2000603700002003a000703b30001
:100ed000000006008702b30000000600010378004e
:100ee000f607b20006037000020032000770a0008f
:100ef000000006000760a000000006000478a300c0
:100f0000040032000578a300030032000168a3004a
:100f100001003a000200be000160a00000000600cf
:100f2000881f7800030478000300e00007003d00fc
:100f300060001000e080180060011900e0811900d5
:100f400002003b0001f02d00030037000400070001
:100f500008f0a70001f0a0004f0478000000060090
:100f6000889fbe008a9fbe0000827000040271004c
:100f700004827100260032000004be000200be00a0
:100f80006011b8006b092000950220000182cf009b
:100f90000a0039000541b1000082cf000700390086
:100fa0000541b1000982cf00040039000541b100bc
:100fb0000882cf00010039000541b100054252000e
:100fc000120032000a003b0082817100610164005e
:100fd0008100d1000080d3008984d3000884d3002d
:100fe0008b05e8000442e800f7ff3a0007003700ed
:100ff0000804440089844c000000480081804800b7
:101000008b05e9000442e900f9ff3a0003000700fc
:101010004f05be004f04be00000006008100200006
:10102000618055000b003d000b00200061fe2f0089
:101030000100e1001d003400828171006101640043
:101040008904d1000884d3000000e800faff3a00c8
:101050007100200061006400030070000200600065
:101060000900320061044400e0844c000988a500b6
:10107000050032008b05e8006808e10002003a0034
:101080008904d1000884d300f20f20000258e10047
:1010900005003d00c75ddd00f907b20089807500dd
:1010a00008007800000006000bf827008b0078008d
:0410b0000000050037
:020000040000fa
:1010b4000000fa009a21ef009c21ef00d10c80007f
:1010c40000c0210001007000d00c8800e00c8000fa
:1010d400f001b300e00c88009ce1a900d10c800071
:1010e40080ff2f00008060006000b300d00c8800f7
:1010f40031058000f08f2f000080600000a0a00068
:101104003005880094c0a80084c0a900a421ef0081
:10111400a621ef00210d800000c021000100700015
:10112400200d8800300d8000f001b300300d8800e0
:10113400a6e1a900210d800080ff2f00008060003f
:101144006000b300200d880081058000f0f82f00b6
:10115400008060000060a000800588009720a8003f
:101164008720a900c002a900e004a900e024a90086
:10117400c022a9000080fa00000006000000fa0066
:1011840005e1a80021088000f0fc2f000080600029
:101194000040a000200888000421a9000021ef00dd
:1011a4000080fa00000006000000fa0041e3a900f4
:1011b4004143a800011a8000f0cf2f000080600096
:1011c400001a8800011a8000f0f02f00808060006f
:1011d4000007200001007000001a88004043a800a6
:1011e400111a8000f0ff230000806000101a8800ac
:1011f40043a3a9004363a8004343a800111a800035
:1012040030f82f00008060004001b300101a8800fd
:101214004203a90045e3a900211a8000f00f2e0023
:10122400008060000080a000201a8800f0c3b30092
:1012340044e3b7000080fa00000006000000fa0052
:10124400c842a800e244a8005083a800c042a800f5
:10125400e044a80051a3a800c062a800e064a8006c
:1012640051c3a800c982a800e384a8005183a80040
:10127400c9a2a800e3a4a8005163a8000080fa0052
:10128400000006000000fa0041e3a8000080fa0014
:10129400000006000000fa00c902a8000080fa005d
:1012a400000006000000fa009021ef009221ef00f8
:1012b400810c800000c0210001007000800c8800b7
:1012c400900c8000f001b300900c880092e1a9001a
:1012d400810c800080ff2f00008060006000b3005c
:1012e400800c880021058000f08f2f0000806000b2
:1012f40000a0a000200588009440a9009421ef00dc
:101304009621ef000080fa00000006000000fa00b9
:10131400c8e2a9000080fa00000006000000fa00fc
:10132400c9e2a800e3e4a8005123a8000080fa0061
:10133400000006000000fa00c902a9000080fa00bb
:10134400000006000200fa0041188000007d200021
:10135400808f50000300360010002000000f78003a
:10136400020037000000eb00000f78001e00780038
:101374000080fa00000006000200fa00d118800084
:10138400007d2000808f50000300360010002000f4
:10139400000f7800020037000000eb00000f780017
:1013a4001e0078000080fa00000006000200fa0027
:1013b400e1188000007d2000808f5000030036007b
:1013c40010002000000f7800020037000000eb003e
:1013d400000f78001e0078000080fa00000006006c
:1013e4000200fa00c1188000007d2000808f5000a8
:1013f4000300360010002000000f780002003700c0
:101404000000eb00000f78001e0078000080fa0056
:10141400000006000200fa00b1188000007d2000e0
:10142400808f50000300360010002000000f780069
:10143400020037000000eb00000f78001e00780067
:101444000080fa00000006000000fa0090188000f6
:101454000080fa00000006000000fa0000f42100f9
:10146400f00c880000fa2000000d880000f4210030
:10147400400d880000fa2000500d8800c402a80026
:10148400c422a9000080fa00000006000000fa004f
:1014940000e22400f00c880000712200000d880096
:1014a40000f42100400d880000fa2000500d88004f
:1014b400c402a800c422a9000080fa0000000600ab
:1014c4000000fa0000f42100f00c880000fa20006b
:1014d400000d880000e22400400d88000071220005
:1014e400500d8800c402a800c422a9000080fa009c
:1014f400000006000000fa0000172100f00c88002c
:10150400808b2800000d880000f42100400d880025
:1015140000fa2000500d8800c402a800c422a900cb
:101524000080fa00000006000000fa0000f4210028
:10153400f00c880000fa2000000d8800001721003c
:10154400400d8800808b2800500d8800c402a8003c
:10155400c422a9000080fa00000006000000fa007e
:101564009e21ef00a021ef00a821ef00aa21ef00a7
:101574000080fa00000006000200fa00000f780064
:101584001e0078000000e00002003200d9ff0700ce
:1015940001003700e4ff07000080fa0000000600a5
:1015a4000200fa00000f78001e0078000040780066
:1015b400614060000080fb00610060004700dd00c6
:1015c400611680000170a10001007000601688009f
:1015d4000080fa00000006000000fa003018200025
:1015e400a00c8800e0012000b00c88000080fa0004
:1015f400000006000000fa0030182000a00c88004b
:10160400a0002000b00c88000080fa000000060052
:101614000000fa00cd02a8000080fa0000000600d5
:101624000000fa00cd02a9000080fa0000000600c4
:101634000000fa00b00c8000ea0f50000f003600e2
:101644000108800000192000808f50000d00360032
:10165400b00c80008000eb0029fc07000200200091
:1016640003f023003dfc070007fc0700000078009e
:10167400b00c88000021ef00020037009001200028
:10168400b00c88000080fa00000006000000fa0098
:1016940087fe0700c4fe070020ff0700e7fe0700df
:1016a400b6fe0700fbfe0700fefe070017ff07005b
:1016b400f4fe07001fff0700a8ff07000c28ef0037
:1016c4000e28ef001028ef001228ef003018200039
:1016d400a00c880090012000b00c8800c5ff070012
:1016e40002000700f0000700fdff37000000fa00c9
:1016f40060408000e20f50004f003200e20f5000c3
:1017040005003e000000e0000a003200e10f500036
:1017140024003200e2003700e40f50008f00320052
:10172400e40f500068003900e50f5000af003200ac
:10173400db00370003ff07000000e0000b0032006d
:101744000dff07000000e000040032004fff070017
:101754001000200060408800d100370065ff0700ba
:101764003000200060408800cd0037000fff0700e4
:101774000000e000bf003200fffe07000000e000b0
:10178400040032004eff0700200020006040880063
:10179400c300370064ff0700400020006040880059
:1017a400bf0037001000200050408800e5fe07000d
:1017b4000000e00007003200effe07000000e00038
:1017c400ae003a004bff0700300020006040880064
:1017d400b3003700f5fe07000000e0000b00320004
:1017e400e5fe07000000e0000400320034ff0700bb
:1017f4002000200060408800a90037004aff07004d
:101804004000200060408800a5003700dafe070091
:101814000000e000030032000fff07000c28ef0077
:101824009f00370050002000604088005040800036
:1018340051ff07009a0037000a28ef00c1fe070095
:101844000000e0000b003200cbfe07000000e000c7
:10185400040032000dff07001000200060408800e3
:101864008f00370023ff070030002000604088000d
:101874008b003700cdfe07000000e00007003200b7
:10188400bdfe07000000e0007e003a0026ff0700ce
:10189400400020006040880081003700b6fe070049
:1018a4000000e00003003200ebfe07000c28ef000c
:1018b4007b003700500020006040880050408000ca
:1018c4002dff0700760037001000200050408800ec
:1018d4009cfe07000000e00007003200a6fe07009f
:1018e4000000e00069003200e8fe0700100020005c
:1018f400604088006a003700acfe07000000e0008a
:101904000b0032009cfe07000000e00004003200df
:10191400ebfe0700200020006040880060003700d4
:1019240001ff070040002000604088005c00370091
:1019340091fe07000000e00003003200c6fe07002d
:101944000c28ef005600370050002000604088004b
:101954005040800008ff0700510037000a28ef00bc
:1019640078fe07000000e0000b00320082fe070052
:101974000000e00004003200c4fe07001000200054
:101984006040880046003700dafe0700300020007f
:10199400604088004200370084fe07000000e00039
:1019a4000700320074fe07000000e0003900320036
:1019b400c3fe070020002000604088003800370084
:1019c4006dfe07000000e00003003200a2fe0700e5
:1019d4000c28ef00320037005000200060408800df
:1019e40050408000e4fe07002d00370055fe07003c
:1019f4000000e0000b0032005ffe07000000e00082
:101a040004003200a1fe070010002000604088009e
:101a140023003700b7fe0700300020006040880034
:101a24001f00370061fe07000000e0000b003200d9
:101a340051fe07000000e00004003200a0fe070091
:101a4400200020006040880015003700b6fe070023
:101a540040002000604088001100370046fe070067
:101a64000000e0000d0032007bfe07000c28ef00b0
:101a74000b003700000000000900370000000000e0
:101a840007003700000000000500370000000000d8
:101a940003003700000000000100370000000000d0
:101aa4000080fa00000006000000fa007040800088
:101ab400e10f50000e003200e10f50000300390026
:101ac400e20f50001b0032003300370044fe0700d1
:101ad4000000e0002b00320010002000704088005d
:101ae4000228ef0094c0a8000828ef002a0037005d
:101af40011408000b0122000808f50000300340099
:101b04000e28ef0094c0a9002300370034fe07001c
:101b14000000e0001d003a00404080000000e800a2
:101b2400404088000228ef00200020007040880018
:101b34001900370011408000b0122000808f50003f
:101b4400030034000e28ef0094c0a90012003700ef
:101b540040408000e30f500003003a00a021ef0052
:101b6400aa21ef000c0037001dfe07000000e00072
:101b740008003200100020007040880094c0a900c2
:101b840005003700000000000300370000000000db
:101b940001003700000000000080fa000000060089
:101ba4000000fa00804080000000e00003003200e2
:101bb400e10f50000d00320016003700511680006e
:101bc40000102000008060000000e0000e003a00d9
:101bd40010002000804088000228ef008000eb0005
:101be400a0052000630007000a00370011408000b0
:101bf40030408000808f5000050035001028ef0031
:101c040015fe070003003700000000000100370044
:101c1400000000000080fa00000006000000fa0046
:101c240090408000e10f500023003200e10f50008b
:101c340003003900e20f5000320032004b0037003d
:101c44001140800030408000808f50000200350039
:101c540042fe07000228ef0001088000606b2100ab
:101c6400808f50003a003600eafd07000000e000d3
:101c74000700320020002000904088008000eb0024
:101c8400a00520003b0007000021ef0037003700cb
:101c9400e0fd07000000e0002f003a0010002000e3
:101ca4009040880011002000a005200031000700aa
:101cb4000021ef002d0037001140800030408000eb
:101cc400808f50000400350043fe07000228ef0017
:101cd40022fe07002500370001088000606b210008
:101ce400808f50001e0036001228ef008000eb00a9
:101cf400a00520001f0007003efe07000021ef00a2
:101d04001a0037001140800030408000808f50005e
:101d14000400350030fe07000228ef000ffe070024
:101d24001200370001088000606b2100808f500092
:101d34000d0036001228ef0011002000a00520003d
:101d44000c0007002bfe07000021ef0007003700fe
:101d54000000000005003700000000000300370009
:101d64000000000001003700000000000080fa00bd
:101d7400000006000400fa00000f78000e80e8005e
:101d8400010878001e007800cf80de0059fa0700b1
:101d94000002be00a0408000b14080000001be00ef
:101da4000400be005bfb070016fa07000000780081
:101db4003040880094c0a8000228ef0040062000ac
:101dc400f00c880020032000000d8800400620004d
:101dd400400d880020032000500d88000e80e8008c
:101de4001000780000407800614060000080fb0033
:101df40061006000211680000100a1000100700054
:101e0400201688000e80e80010007800004078005a
:101e1400614060000080fb00610060000000400041
:101e2400211680000110a100010070002016880016
:081e34000080fa000000060026
:020000040000fa
:101e3c00000800001400000000000000140800005e
:101e4c000400000002000000f31fe2003f0000004d
:041e5c000000000082
:020000040000fa
:0200000401f009
:04000c00f8ff0000f9
:00000001FF
